:020000040000FA
:060000000A128A110E280D
:10000800FE00030EF7000408F8000A08F9000A12B7
:100018008A15122D0A128A1111288313E730FD0060
:100028000B30FE009430FF00C73084000A128A1596
:1000380059230A128A110A128A11F9270A128A11F7
:10004800E400831790308400F0300A128A152623C2
:100058000A128A111030840058300A128A15262391
:100068000A128A118313A0308400C7300A128A1535
:1000780026230A128A114C30840064300A128A1529
:1000880026230A128A11F001F101F201F301F401A9
:1000980083010A128A1150281F3083160313860021
:1000A80080308700880101308900E0308B000430FF
:1000B80081000630831203138100313090000A1248
:1000C8008A1542230A128A11803083120313AF0063
:1000D8002530B0000A128A1598240A128A110230B3
:1000E80083120313A0000030A1000230A2000030E8
:1000F800A3000230A4000030A5000A128A116F275D
:100108000A128A113C30831203138F00B0308E001C
:1001180083120317DF0183120313DB018312031712
:100128005D14E601E7010F3083120313BC0083124C
:1001380003176608543E8400831203133C08831394
:1001480080003F30BC00831203176608503E8400CD
:10015800831203133C088000FF30BC00831203178E
:1001680066084C3E8400831203133C08800001306B
:1001780083120317E6070318E70A0030E707670842
:10018800803AFF0080307F02031DCC2804306602CD
:10019800031CCF28D028972883120313621CD52864
:1001A800D628B32A9E2A6314621083120317EC011F
:1001B800ED016D08803AFF0080307F02031DE628BC
:1001C80004306C02031CE928EA28EB286A29831208
:1001D8000313B401B40A831203176C08543E840055
:1001E8008313000883120313BC003C08B5000130D8
:1001F800BD00831203176C08013E013E83120313EE
:1002080007290310BD0DFF3E031D05293D080138D0
:100218000A128A1532240A128A1110308312031323
:10022800BC003C08B400831203176C08503E8400DD
:100238008313000883120313BD003D08B500013085
:10024800BE00831203176C08013E013E831203139C
:100258002F290310BE0DFF3E031D2D293E0801382E
:100268000A128A1532240A128A11113083120313D2
:10027800BC003C08B400831203176C084C3E840091
:100288008313000883120313BD003D08B500013035
:10029800BE00831203176C08013E013E831203134C
:1002A80057290310BE0DFF3E031D55293E0801388E
:1002B8000A128A1532240A128A110130831203178E
:1002C800EC070318ED0A0030ED07DD288312031749
:1002D800E801E9016908803AFF0080307F02031DC8
:1002E800772904306802031C7A297B297C29922902
:1002F800831203176808543E84008313800168083A
:10030800503E8400800168084C3E84008001013022
:10031800E8070318E90A0030E9076E298312031772
:10032800E30105306302031C9A299B299C29B32AFF
:100338006308A03E840083138001013083120313F5
:10034800BC003C0883120317E30795296314621065
:1003580000300A128A15B4230A128A118312031371
:100368002008BC002108BD003D0DBD0CBC0C3D0D96
:10037800BD0CBC0C3C08B0003D08B1000030B20018
:10038800B300FF30B4000030B500EC30B600FF30E9
:10039800B7003C30B8000030B9000A128A1563244F
:1003A8000A128A11831203133008BE003E08831212
:1003B8000317DA0001300A128A15B4230A128A11C7
:1003C800831203132008BC002108BD003D0DBD0C9D
:1003D800BC0C3D0DBD0CBC0C3C08B0003D08B10088
:1003E8000030B200B300FF30B4000030B500003078
:1003F800B600B7006430B8000030B9000A128A1598
:1004080063240A128A11831203133008BE003E08BF
:1004180083120317DB0005300A128A15B4230A1267
:100428008A11831203132008BC002108BD003D0D6A
:10043800BD0CBC0C3D0DBD0CBC0C3C08B0003D080F
:10044800B1000030B200B300FF30B4000030B50096
:100458000030B600B7006430B8000030B9000A12A6
:100468008A1563240A128A11831203133008BE0006
:100478003E0883120317DC0083120313B4018312AE
:1004880003175A0883120313BC003C08B500023056
:100498000A128A1532240A128A1183120313B4012C
:1004A800831203175B0883120313BC003C08B500D2
:1004B80004300A128A1532240A128A11831203138D
:1004C800B401831203175C0883120313BC003C08B1
:1004D800B50006300A128A1532240A128A118312CC
:1004E8000317E40105306402031C7B2A7C2A7D2A59
:1004F800B32A6408A03E840083138001013083126C
:100508000313BC003C0883120317E407762A04305F
:100518005802031C902A912A942A6314E314621047
:100528000F305902031C992A9A2AB32A6314E3103C
:100538006210B32A8316031320087F39831203132A
:10054800BC00BD013D08003A0319AB2A8B2A3C08C0
:10055800083A0319D728023A0319AA298B2A031340
:10056800631CB72AB82A4F2B6210D9016310D8012F
:10057800E31CBF2AC02AC22AE3104F2BA0300A125C
:100588008A11A6260A128A1183120317E50103307D
:100598006502031CD02AD12AD22A4F2B0530831298
:1005A8000313BC003C08A0008312031765080A1255
:1005B8008A157D230A128A1183120313BD003D0890
:1005C80083120317E0006008A03E8400831300082C
:1005D80083120313BC003C0883120317DE005E0875
:1005E80083120313BC0003103C0C0F39BD003D08F7
:1005F80083120317D8006008A03E84000008831205
:100608000313BC003C0883120317DE005E08831244
:100618000313BC0005300310BC0CFF3E031D0F2B59
:100628003C080339FF3EBD003D0883120317D9007B
:1006380060080A128A15D2240A128A118312031733
:10064800580883120313BC003C07C73E8400831379
:100658000008BD00840A0008BE0083120317590869
:1006680083120313BF003F073D07C0003E0803186D
:10067800013EC100400884008317411C83132008F1
:100688008000840A210880000130BC003C088312E5
:100698000317E507CB2A831203175D1C542B552B30
:1006A800462CEA0110306A02031C5B2B5C2B5D2B85
:1006B800172CEB0103306B02031C632B642B652B97
:1006C8000E2C6A0883120313BC003C07C73E840043
:1006D80083130008BD00840A0008BE0083120317B4
:1006E8006B0883120313BF003F073D07C0003E0895
:1006F8000318013EC100400884008317411C83137E
:100708000008C200840A0008C300831203176A089D
:1007180083120313C4004407C73E840083130008F0
:10072800C500840A0008C600831203176B088312E9
:100738000313C7004707063E4507C80046080318C5
:10074800013EC900480884008317491C8313000828
:10075800CA00840A0008CB0043084B06031DB62BC9
:1007680042084A060319B92BBA2B072C8312031720
:100778006A0883120313BC003C07C73E8400831336
:100788000008BD00840A0008BE00831203176B0826
:1007980083120313BF003F073D07C0003E0803183C
:1007A800013EC100400884008317411C83130008E0
:1007B800C200840A0008C300831203176A08831260
:1007C8000313C4004407C73E840083130008C50010
:1007D800840A0008C600831203176B0883120313E8
:1007E800C7004707063E4507C80046080318013EEC
:1007F800C900480884008317491C831342088000F5
:10080800840A430880000130BC003C0883120317A7
:10081800EB075E2B013083120313BC003C088312E4
:100828000317EA07562B03136408013E0F39BC006F
:100838003C08E4006408BC003C07C73E84008313FE
:100848000008BD00840A0008BE003D08063EBF003F
:100858003E080318013E003EC0003F08840083178D
:10086800401C83130008C100840A0008C200410824
:100878004204031D402C412C462C6408031D452CC2
:10088800462C172C0313611C4A2C4B2C102D601C72
:100898004E2C4F2C102D013083120317E10703183B
:1008A800E20A0030E2075D10831203136408BC00FB
:1008B8003C07C73E840083130008BD00840A000873
:1008C800BE00831203175F0883120313BF003F079C
:1008D800063E3D07C0003E080318013EC10040081F
:1008E80084008317411C83130008C200840A00088F
:1008F800C300831203176108831203134202C40062
:10090800831203176208031C620A8312031343024B
:10091800C500C51F902C912C982C831203175D14C9
:100928000130E1000030E2000230831203175F0655
:10093800031D9F2CA02CD62C831203136408BC0023
:100948003C07C73E840083130008BD00840A0008E2
:10095800BE003D080A3EBF003E080318013E003EA7
:10096800C0003F0884008317401C83130008C1009F
:10097800840A0008C200831203176208803A8312AF
:100988000313C3004208803A4302031DCF2C4108D9
:10099800831203176102031CD22CD32CD62C83128A
:1009A80003175D14831203136408BC003C07C73E99
:1009B800840083130008BD00840A0008BE00831267
:1009C80003175F0883120313BF003F07063E3D0766
:1009D800C0003E080318013EC10040088400831788
:1009E800411C83130008C200840A0008C300831254
:1009F80003176108831203134202B000831203171E
:100A08006208031C620A831203134302B1000A122C
:100A18008A1530260A128A11831203135B085C06B2
:100A28000319172D182D942D5B08BC003C08DC0019
:100A38007E2D5D080319212D222D942DA001A101E1
:100A48005D08013E84000A128A1500200A128A11E4
:100A5800BC003C08A20001300A128A1568230A1259
:100A68008A11942D5E08031D3A2D3B2D402D5D08FB
:100A780003193F2D402D942DA001A00AA1015E0865
:100A8800013E84000A128A1500200A128A11BC004D
:100A98003C08A20000300A128A1568230A128A113B
:100AA800942DA001A101A10A5F08013E84000A1249
:100AB8008A1500200A128A11BC003C08A2000030E6
:100AC8000A128A1568230A128A11942DA001A1011D
:100AD8006408013E84000A128A1500200A128A114D
:100AE800BC003C08A20001300A128A1568230A12C9
:100AF8008A11942D5B08BC00BD013D08003A03191A
:100B0800862D942D3C08003A03191D2D013A03192E
:100B1800362D033A0319552D013A03196A2D942DE0
:100B2800033083120313A0000030A1005B08013ECC
:100B3800A200003003180130A3000A128A156C25A0
:100B48000A128A11831203132008BC003C08DB0038
:100B5800611CAF2DB02DB62D601CB32DB42DB62D54
:100B680061106010611CB92DBA2DD0286018BD2DF8
:100B7800BE2DD0286014D0280A128A110E2883129C
:100B880003138619C82DC92DD02D0130F00703187D
:100B9800F10A0030F107FD2D861DD32DD42DFD2D32
:100BA80001307102F43003197002031CDC2DDD2DB5
:100BB800E12D0130F5007508D40705307102DC30ED
:100BC80003197002031CE92DEA2DEE2D0130F50002
:100BD8007508D0070B307102B83003197002031C76
:100BE800F62DF72DFB2D0130F5007508CC07F00127
:100BF800F101061A002E012E082E0130F007031805
:100C0800F10A0030F107352E061E0B2E0C2E352E5C
:100C180001307102F43003197002031C142E152ED2
:100C2800192E0130F5007508D50705307102DC3042
:100C380003197002031C212E222E262E0130F500E6
:100C48007508D1070B307102B83003197002031C04
:100C58002E2E2F2E332E0130F5007508CD07F0010A
:100C6800F101861A382E392E402E0130F00703186C
:100C7800F10A0030F1076D2E861E432E442E6D2E8C
:100C880001307102F43003197002031C4C2E4D2EF2
:100C9800512E0130F5007508D60705307102DC3099
:100CA80003197002031C592E5A2E5E2E0130F500CE
:100CB8007508D2070B307102B83003197002031C93
:100CC800662E672E6B2E0130F5007508CE07F001F1
:100CD800F101851A702E712E782E0130F007031855
:100CE800F10A0030F107A52E851E7B2E7C2EA52E3D
:100CF80001307102F43003197002031C842E852E12
:100D0800892E0130F5007508D70705307102DC30EF
:100D180003197002031C912E922E962E0130F500B5
:100D28007508D3070B307102B83003197002031C21
:100D38009E2E9F2EA32E0130F5007508CF07F001D7
:100D4800F101080083120313B100AB01A801AC0143
:100D5800A901AA01B201B30183120313AD01AE01C7
:100D68008312031332083107A40024088400831374
:100D78000008A5002D0AC22E0310A50CFF3E031D76
:100D8800C02E25080139A6002608A8070130AD079E
:100D98000318AE0A0030AE072E08803AFF008030F4
:100DA8007F02031DD92E08302D02031CDC2EDD2EF8
:100DB800B42E83120313281CE22EE32EE92EAB0176
:100DC800AB0A3208A4002408AC000130B2070318AB
:100DD800B30A0030B3073308803AFF0080307F023F
:100DE800031DF82E05303202031CFB2EFC2EB02EFC
:100DF80083120313B401B50183120313AF01B001C9
:100E0800831203132F083107A400240884008313D6
:100E18000008A500340A122F0310A50CFF3E031D7D
:100E2800102F25080139A6002608A9070130AF07A9
:100E38000318B00A0030B0073008803AFF0080304D
:100E48007F02031D292F04302F02031C2C2F2D2F66
:100E5800042F83120313291C322F332F392FAB0190
:100E6800AB0A3408A4002408AA000130B407031808
:100E7800B50A0030B5073508803AFF0080307F0298
:100E8800031D482F08303402031C4B2F4C2F002F12
:100E9800831203132B080319522F532F6E2F2A087E
:100EA800A4002408A0002C083107A5002508840008
:100EB800831300080A128A1501240A128A11831260
:100EC8000313A6002C083107A7002708840026086A
:100ED80083138000080083120313AC01AD01D12FE6
:100EE8002C08A6002607C73E840083130008A70025
:100EF800840A0008A8002D08A90029072707AA00C6
:100F080028080318013EAB002A08840083172B1C0D
:100F1800831320088000840A21088000E42F2C080D
:100F2800A6002607C73E840083130008A700840A8A
:100F38000008A8002D08A90029072707AA002808E3
:100F48000318013EAB002A08840083172B1C831367
:100F580022088000840A23088000E42F2C08A600B9
:100F68002607C73E840083130008A700840A0008E8
:100F7800A8002D08A90029072707AA002808031890
:100F8800013EAB002A08840083172B1C8313240816
:100F98008000840A25088000E42F2D08A600A701F8
:100FA8002708003A0319D92FE42F2608003A031915
:100FB800742F013A0319932F033A0319B22FE42F20
:100FC8000130A6002608AD0703302D02031CED2FC3
:100FD800EE2FD12F0130A6002608AC0710302C02C6
:0C0FE800031CF72FF82F722F08000F34A5
:1010000008308A000408840A820700343F3406341A
:101010005B344F3466346D347D3407347F346F3441
:0210200000349A
:10164C0064008001840A0406031900340406272B65
:10165C00831203138C1E332B342B2E2B8C121A0853
:10166C00080083120313A0000C1E3D2B3E2B3A2BBB
:10167C000C12200899000800E33083160313850030
:10168C00831203139F018030831603139F001930BC
:10169C0083120313A000A00B512B542B08007E08BF
:1016AC008A007F0882000A128A1555230A128A15AD
:1016BC008000840A04087D0603190034FF0A03190C
:1016CC00FE0A592B83120313A300230C031C0511D0
:1016DC0003180515200C031C851103188515210C06
:1016EC00031C051203180516220888000800831233
:1016FC000313A300A201231C842B852B892B200808
:10170C00A1002108A2070310A00D0310A30C2308AD
:10171C00031D912B922B812B22080800BB34003423
:10172C00AF340034E4340134D8340134CC340134D3
:10173C00C0340134B4340134A83401349C34013441
:10174C00903401344C340134403401343434013499
:10175C00283401341C340134103401348312031343
:10176C00A3002308A20002300310A20DFF3E031DAC
:10177C00BA2B0310220D01389F000430831203137F
:10178C00A200A20BC72B0000831203131F151F19F5
:10179C00D02BD12BCD2B1E08A100831603131E08B2
:1017AC0083120313A000080083120313A401A501E4
:1017BC00201CE12BE22BE82B2208A4070318A50A16
:1017CC002308A50701300310A20DA30DFF3E031D36
:1017DC00E92B01300310A10CA00CFF3E031DF02BD4
:1017EC0020082104031DFB2BFC2BDE2B2508A1005C
:1017FC002408A000080083120313A3000130A100E9
:10180C00200A0A2C0310A10DFF3E031D082C2108F1
:10181C0023050319122C132C222C0130A100200AB1
:10182C00192C0310A10DFF3E031D172C2108A2003B
:10183C002208A3042308312C0130A100200A282CF3
:10184C000310A10DFF3E031D262C2108FF3AA20018
:10185C002208A3052308080083120313B9003408D7
:10186C00B6003608A0003508B7003708A1003908C3
:10187C000A128A1538270A128A1583120313B80024
:10188C003808BA00BB013A088400831300080A1216
:10189C008A1537230A128A15013083120313B600F6
:1018AC003608BA070130B6003608BB0705303B02D4
:1018BC00031C612C622C492C080083120313320880
:1018CC003402A7003308031C330A3502A80032087F
:1018DC003002A0003308031C330A3102A100360881
:1018EC003802A2003708031C370A3902A3000A1277
:1018FC008A15DA230A128A15831203132108AA0007
:10190C002008A9000A128A15C7250A128A15831203
:10191C00031336082707B00037080318370A2807BF
:10192C00B1000800831603130713981683120313D0
:10193C00981718162F08B1003008B2000030B21BEF
:10194C00FF30B300B40006300310B10DB20DB30D6F
:10195C00B40DFF3E031DAA2C3408A3003308A200CB
:10196C003208A1003108A0000130A700E830A60021
:10197C004830A5000030A4000A128A159B260A12D2
:10198C008A15831203132008FF3E83160313990054
:10199C008B170B178C16080083120313A400240852
:1019AC00A33E84007F3083130005A2002508220685
:1019BC0080392206A50025087F39A200A301220840
:1019CC00A6002308A7002708A3002608A2000730BA
:1019DC00FF000310A20DA30DFF0BEF2C803022058E
:1019EC00A60000302305A7002408A23E84007F3007
:1019FC000005A2002508220680392206A50025082C
:101A0C007F39A20026082204A6002708A700270871
:101A1C00A1002608A0000800831203138C1E172DAA
:101A2C00182D212D62181B2D1C2D212D62146310D5
:101A3C00E310D901D8018C1E242D252D3C2D621CC0
:101A4C00282D292D3C2D0A128A152E230A128A15AF
:101A5C00F600831203135908A03E84007608831302
:101A6C0080000130F6007608D907D8010B1D3F2DF8
:101A7C00402D4A2D0B110A128A11C3250A128A1500
:101A8C0006308312031381000C1C4D2D4E2D632D3B
:101A9C000C100130F6007608F40714307402031CA5
:101AAC00582D592D5F2D6114F4010130F600760884
:101ABC00D8073C308F00B0308E0079088A00780847
:101ACC008400770E8300FE0E7E0E09008312031332
:101ADC00A601A31F722D732D7A2DA209A309A20AA8
:101AEC000319A30AA601A60AA11F7D2D7E2D832D05
:101AFC00A009A109A00A0319A10A200821040319AD
:101B0C00882D892DB82DA501A50A972D013003101C
:101B1C00A00DA10DFF3E031D8D2D0130A400240846
:101B2C00A507A11F9A2D9B2D8C2D21082302031D87
:101B3C00A12D20082202031CA42DA52DAB2D2008BD
:101B4C00A2022108031CA303A30201300310A10C61
:101B5C00A00CFF3E031DAC2D0130A502031DB72DBB
:101B6C00B82D9B2D26080319BC2DBD2DC22DA20905
:101B7C00A309A20A0319A30A2308A1002208A000A2
:101B8C00080083120313AD01A81FCD2DCE2DD52D2A
:101B9C00A709A809A70A0319A80AAD01AD0AAA1F2B
:101BAC00D82DD92DE22DA909AA09A90A0319AA0A27
:101BBC000130AB002B08AD06AE01AF01270828049D
:101BCC000319E92DEA2D212EAC01AC0AF82D0130B8
:101BDC000310A70DA80DFF3E031DEE2D0130AB0029
:101BEC002B08AC07A81FFB2DFC2DED2D013003108D
:101BFC00AE0DAF0DFF3E031DFD2D28082A02031D5F
:101C0C00092E27082902031C0C2E0D2E142E270832
:101C1C00A9022808031CAA03AA022E1401300310DF
:101C2C00A80CA70CFF3E031D152E0130AC02031DA2
:101C3C00202E212EFC2D2D080319252E262E2B2E81
:101C4C00AE09AF09AE0A0319AF0A2F08A8002E0877
:101C5C00A7000800831203133008B2003208DA0020
:101C6C006430A7000030A8005A08B200B301320853
:101C7C00A9003308AA000A128A15C7250A128A1568
:101C8C00831203132708B4003408DD000A30A700C0
:101C9C000030A8005A08B200B3013208A200330881
:101CAC00A3006430A0000030A1000A128A156C2534
:101CBC000A128A15831203132108AA002008A9000E
:101CCC000A128A15C7250A128A15831203132708CC
:101CDC00B4003408DE005A08B200B3013208A20086
:101CEC003308A3006430A0000030A1000A128A154A
:101CFC006C250A128A15831203132108B6002008DA
:101D0C00B5000A30A0000030A1003608A300350849
:101D1C00A2000A128A156C250A128A158312031363
:101D2C002008B2003208DF00080083120313AA0156
:101D3C00A31FA12EA22EAF2EA009A109A209A309AF
:101D4C00A00A0319A10A0319A20A0319A30AAA01DA
:101D5C00AA0AA71FB22EB32EC22EA409A509A60942
:101D6C00A709A40A0319A50A0319A60A0319A70AA5
:101D7C000130A8002808AA060030AE000030AD00E3
:101D8C000030AC000030AB002308220421042004F6
:101D9C000319D12ED22E1F2FA901A90AE22E013030
:101DAC00A8000310A00DA10DA20DA30DA80BD72EFA
:101DBC000130A8002808A907A31FE52EE62ED52E72
:101DCC000130A8000310AB0DAC0DAD0DAE0DA80B82
:101DDC00E82E23082702031DFD2E22082602031DD0
:101DEC00FD2E21082502031DFD2E20082402031CB4
:101DFC00002F012F102F2008A4022108031C210FF3
:101E0C00A5022208031C220FA6022308031C230F81
:101E1C00A7022B1401300310A30CA20CA10CA00CD4
:101E2C00FF3E031D112F0130A902031D1E2F1F2F72
:101E3C00E62E2A080319232F242F2F2FAB09AC09C8
:101E4C00AD09AE09AB0A0319AC0A0319AD0A0319A3
:101E5C00AE0A2E08A3002D08A2002C08A1002B0806
:101E6C00A000080083120313A40024087F39A200E9
:101E7C002208A50020087F39A2002208A60021080C
:101E8C007F39A2002208A7002108A2000730031006
:101E9C00A20CFF3E031D4D2F22087F39A3002308FF
:101EAC00A800AA01AB01B001B10183120313AC016C
:101EBC00AD01831203133008253E84008313000800
:101ECC00A2002C0A6B2F0310A20CFF3E031D692FDE
:101EDC0022080139A3002308AA070130AC07031814
:101EEC00AD0A0030AD072D08803AFF0080307F022C
:101EFC00031D822F08302C02031C852F862F5F2F89
:101F0C00831203132A1C8B2F8C2F942F8030A2004A
:101F1C003008253E8400220883138007AA01013073
:101F2C00B0070318B10A0030B1073108803AFF003E
:101F3C0080307F02031DA42F04303002031CA72F16
:101F4C00A82F5B2F83120313B201B3018312031367
:101F5C00AE01AF01831203132E08253E84008313B8
:101F6C000008A200320ABC2F0310A20CFF3E031D76
:101F7C00BA2F22080139A3002308AB070130AE07A2
:101F8C000318AF0A0030AF072F08803AFF008030EB
:101F9C007F02031DD32F04302E02031CD62FD72F04
:101FAC00B02F831203132B1CDC2FDD2FEA2F0130F3
:101FBC00A200320AE32F0310A20DFF3E031DE12FF6
:101FCC002208A3002308A907AB010130B2070318AC
:101FDC00B30A0030B3073308803AFF0080307F0229
:101FEC00031DFA2F08303202031CFD2FFE2FAC2FDD
:041FFC002530080084
:02400E00F23F7F
:00000001FF
