:020000040000FA
:060000000A128A1110280B
:10000800FE00030E83120313A1000408A2000A08CD
:10001800A3000A128A15242E0A128A1113288313A0
:10002800ED30FD000C30FE002C30FF00DD30840088
:100038000A128A1553240A128A11831790308400F1
:10004800D6300A128A1510240A128A118313A03096
:100058008400DD300A128A1510240A128A114A30E7
:10006800840066300A128A1510240A128A11830144
:100078000A128A113F281F30831603138600803026
:100088008700880101308900E0308B00043081004E
:100098000630831203138100313090003C308F000A
:1000A800B0308E00D10183160317D601D701D801CD
:1000B8000A128A153C240A128A118030831203130B
:1000C800B3002530B4000A128A11C1270A128A1116
:1000D800013083120313A4000030A5000130A600EC
:1000E8000030A7000130A8000030A900DD30C000B2
:1000F8004008AA000A128A11C3260A128A1183121A
:100108000313541C882889281D2B082B55145410B8
:1001180083160317E001E101AD2983120313B80127
:10012800B80A8316031760085E3E8400831300082C
:1001380083120313C0004008B90003300A128A155D
:10014800DB240A128A11023083120313C00040080C
:10015800B8008316031760085A3E8400831300080A
:1001680083120313C1004108B90003300A128A152B
:10017800DB240A128A11033083120313C0004008DB
:10018800B800831603176008563E840083130008DE
:1001980083120313C1004108B90003300A128A15FB
:1001A800DB240A128A11C22983120313B801B80A80
:1001B8008316031760085E3E8400831300088312C9
:1001C8000313C0004008B90005300A128A15DB2461
:1001D8000A128A11023083120313C0004008B800C3
:1001E8008316031760085A3E84008313000883129D
:1001F8000313C1004108B90005300A128A15DB242F
:100208000A128A11033083120313C0004008B80091
:10021800831603176008563E840083130008831270
:100228000313C1004108B90005300A128A15DB24FE
:100238000A128A11C22983120313B801B80A831655
:10024800031760085E3E84008313000883120313BB
:10025800C0004008B90007300A128A15DB240A12C8
:100268008A11023083120313C0004008B8008316B5
:10027800031760085A3E840083130008831203138F
:10028800C1004108B90007300A128A15DB240A1296
:100298008A11033083120313C0004008B800831684
:1002A80003176008563E8400831300088312031363
:1002B800C1004108B90007300A128A15DB240A1266
:1002C8008A11C22983120313B801B80A83160317C7
:1002D80060085E3E84008313000883120313C00085
:1002E8004008B90009300A128A15DB240A128A115B
:1002F800023083120313C0004008B80083160317A6
:1003080060085A3E84008313000883120313C10057
:100318004108B90009300A128A15DB240A128A1129
:10032800033083120313C0004008B8008316031774
:100338006008563E84008313000883120313C1002B
:100348004108B90009300A128A15DB240A128A11F9
:10035800C229831603176108003A0319B429C22970
:100368006008003A03199128013A0319D828033A7A
:1003780003191F29013A03196629C2290130831676
:100388000317E0070318E10A0030E1076108803A23
:10039800FF0080307F02031DD32904306002031C54
:1003A800D629D729AD2983160317DE01DF01831665
:1003B80003175E085E3E8400831380015E085A3E80
:1003C800840080015E08563E840080010130DE070B
:1003D8000318DF0A0030DF075F08803AFF0080302B
:1003E8007F02031DF92904305E02031CFC29FD2944
:1003F800DB2983160317DB015B08A43E8400831303
:100408008001013083120313C000400883160317CC
:10041800DB0705305B02031C122A132A002A1D2B56
:100428005514541000300A128A158E240A128A11A3
:10043800831203132408C0002508C100410DC10C14
:10044800C00C410DC10CC00C4008B4004108B500F7
:100458000030B600B700FF30B8000030B900EC300B
:10046800BA00FF30BB003C30BC000030BD000A12AF
:100478008A150C250A128A11831203133408C20044
:10048800420883160317D60001300A128A158E24F3
:100498000A128A11831203132408C0002508C10018
:1004A800410DC10CC00C410DC10CC00C4008B4007A
:1004B8004108B5000030B600B700FF30B800003082
:1004C800B9000030BA00BB006430BC000030BD0089
:1004D8000A128A150C250A128A118312031334088A
:1004E800C200420883160317D70005300A128A157E
:1004F8008E240A128A11831203132408C0002508C7
:10050800C100410DC10CC00C410DC10CC00C40080C
:10051800B4004108B5000030B600B700FF30B8009D
:100528000030B9000030BA00BB006430BC000030B5
:10053800BD000A128A150C250A128A1183120313A8
:100548003408C200420883160317D8008312031325
:10055800B80183160317560883120313C000400816
:10056800B90002300A128A15DB240A128A11831292
:100578000313B80183160317570883120313C00027
:100588004008B90004300A128A15DB240A128A11BD
:1005980083120313B8018316031758088312031331
:1005A800C0004008B90006300A128A15DB240A1276
:1005B8008A1183160317DC0105305C02031CE52A47
:1005C800E62AE72A1D2B5C08A43E840083138001D9
:1005D800013083120313C000400883160317DC0799
:1005E800E02A04304C02031CFA2AFB2AFE2A55147E
:1005F800D51454100F304D02031C032B042B1D2B54
:100608005514D51054101D2B8316031324087F3955
:1006180083120313C000C1014108003A0319152BC6
:10062800F52A4008083A03198A28023A0319142AB5
:10063800F52A83120313551C222B232B372B541016
:10064800CD015510CC01D51C2A2B2B2B2D2BD510C9
:10065800372BDD30C0004008AC00A4300A128A11E4
:1006680053270A128A1183120313531C3C2B3D2B68
:10067800802C521C402B412B802C013083160317F1
:10068800D9070318DA0A0030DA0762308312031335
:10069800C0004008AB00DD300A128A15D3250A12C3
:1006A8008A11831203136208C0004007DD3E8400EC
:1006B80083130008C100840A0008C20041080C3EE8
:1006C800C30042080318013E003EC40043088400EA
:1006D8008317441C83130008C500450883160317B5
:1006E800DD00831203136208C0004007DD3E84006A
:1006F80083130008C100840A0008C2008316031788
:100708005D0883120313C30043074107C40042086E
:100718000318013EC500440884008317451C831351
:100728000008C600840A0008C70083160317590882
:10073800831203134602C800831603175A08031CC2
:100748005A0A831203134702C900C91FAC2BAD2BE9
:10075800CB2B0130C000400883160317DD0701309A
:10076800D9000030DA0003305D02031CBC2BBD2B1E
:10077800CB2BDD01831203136208031DC42BC52B89
:10078800CB2BDD300A128A15D7260A128A11831656
:1007980003175D0883120313C0006208C1004107F4
:1007A800DD3E840083130008C200840A0008C300E9
:1007B80042080C3EC40043080318013E003EC50031
:1007C800440884008317451C831340088000643064
:1007D800C0004008B4006530C1004108B500620897
:1007E800C2004207DD3E840083130008C300840A68
:1007F8000008C400831603175D0883120313C5009D
:1008080045074307C60044080318013EC7004608C9
:1008180084008317471C83130008C800840A000853
:10082800C900831603175908831203134802B60038
:10083800831603175A08031C5A0A83120313490222
:10084800B70063300A128A1127260A128A11831206
:1008580003136208031D312C322C492B802C6308AA
:100868000319372C382C932CA401A5016308013EE9
:1008780084000A128A1500200A128A11C000400852
:10088800A60001300A128A1562240A128A11932CD2
:100898006408031D502C512C562C63080319552C41
:1008A800562C932CA401A40AA5016408013E8400D7
:1008B8000A128A1500200A128A11C0004008A600F0
:1008C80000300A128A1562240A128A11932CA40194
:1008D800A501A50A6508013E84000A128A150020B0
:1008E8000A128A11C0004008A60000300A128A15B0
:1008F80062240A128A11932C5108C000C1014108D0
:10090800003A0319882C932C4008003A0319332C19
:10091800013A03194C2C033A03196B2C932C03301E
:1009280083120313A4000030A5005108013EA6005D
:10093800003003180130A7000A128A157C260A1213
:100948008A11831203132408C0004008D100531CE5
:10095800AE2CAF2CB52C521CB22CB32CB52C53108A
:100968005210531CB82CB92C83285218BC2CBD2CFF
:100978008328521483280A128A1110288312031319
:10098800A80028087F39A6002608A90024087F396E
:10099800A6002608AA0025087F39A6002608AB006D
:1009A8002508A60007300310A60CFF3E031DD72C10
:1009B80026087F39A7002708AC00AE01AF01B401B3
:1009C800B50183120313B001B10183120313340874
:1009D800293E840083130008A600300AF52C031072
:1009E800A60CFF3E031DF32C26080139A700270893
:1009F800AE070130B0070318B10A0030B10731085B
:100A0800803AFF0080307F02031D0C2D0830300231
:100A1800031C0F2D102DE92C831203132E1C152DEA
:100A2800162D1E2D8030A6003408293E8400260885
:100A380083138007AE010130B4070318B50A0030EC
:100A4800B5073508803AFF0080307F02031D2E2D40
:100A580004303402031C312D322DE52C831203138C
:100A6800B601B70183120313B201B3018312031352
:100A78003208293E840083130008A600360A462D52
:100A88000310A60CFF3E031D442D26080139A700BC
:100A98002708AF070130B2070318B30A0030B307BD
:100AA8003308803AFF0080307F02031D5D2D04303B
:100AB8003202031C602D612D3A2D831203132F1C63
:100AC800662D672D742D0130A600360A6D2D031092
:100AD800A60DFF3E031D6B2D2608A7002708AD07AE
:100AE800AF010130B6070318B70A0030B707370857
:100AF800803AFF0080307F02031D842D08303602C3
:100B0800031C872D882D362D2930080083120313E6
:100B1800AE01A71F902D912D9E2DA409A509A60908
:100B2800A709A40A0319A50A0319A60A0319A70AFB
:100B3800AE01AE0AAB1FA12DA22DB12DA809A9099E
:100B4800AA09AB09A80A0319A90A0319AA0A0319C9
:100B5800AB0A0130AC002C08AE060030B200003001
:100B6800B1000030B0000030AF002708260425048B
:100B780024040319C02DC12D0E2EAD01AD0AD12DAF
:100B88000130AC000310A40DA50DA60DA70DAC0BEC
:100B9800C62D0130AC002C08AD07A71FD42DD52DCC
:100BA800C42D0130AC000310AF0DB00DB10DB20D66
:100BB800AC0BD72D27082B02031DEC2D26082A0283
:100BC800031DEC2D25082902031DEC2D24082802FD
:100BD800031CEF2DF02DFF2D2408A8022508031C67
:100BE800250FA9022608031C260FAA022708031CA2
:100BF800270FAB022F1401300310A70CA60CA50C6D
:100C0800A40CFF3E031D002E0130AD02031D0D2E66
:100C18000E2ED52D2E080319122E132E1E2EAF09B7
:100C2800B009B109B209AF0A0319B00A0319B10A28
:100C38000319B20A3208A7003108A6003008A50037
:100C48002F08A400080083120313BB00402E0A30AB
:100C580083120313AB000030AC003708AE0036082F
:100C6800AD000A128A1597270A128A1183120313F4
:100C78002C08B7002B08B600E830AB000330AC00F6
:100C88003708AE003608AD000A128A1597270A12EF
:100C98008A11831203132C08803AFF0080307F02E8
:100CA800031D582E01302B0203185B2E5C2E2B2EB1
:100CB800643083120313AB000030AC003708AE0079
:100CC8003608AD000A128A1597270A128A1183126C
:100CD80003132B08B8003B088400380883138000EE
:100CE8000A30AB000030AC003708A7003608A60071
:100CF8006430A4000030A5000A128A157C260A1266
:100D08008A11831203132508AE002408AD000A12C5
:100D18008A1597270A128A11831203132B08B80021
:100D2800340884003808831380003708A700360881
:100D3800A6006430A4000030A5000A128A157C269B
:100D48000A128A11831203132508BA002408B9006D
:100D58000A30A4000030A5003A08A7003908A60008
:100D68000A128A157C260A128A1183120313240890
:100D7800B8003508840038088313800008008312FF
:100D88000313B201B3012B2F3208AB002B072A073C
:100D9800AC002C08840083130008AD00840A000806
:100DA800AE003308AF002F072D07B0002E08031838
:100DB800013EB100300884008317311C83132408D6
:100DC8008000840A250880003E2F3208AB002B07DC
:100DD8002A07AC002C08840083130008AD00840A9D
:100DE8000008AE003308AF002F072D07B0002E080B
:100DF8000318013EB100300884008317311C8313A7
:100E080026088000840A270880003E2F3208AB009D
:100E18002B072A07AC002C08840083130008AD00B8
:100E2800840A0008AE003308AF002F072D07B00072
:100E38002E080318013EB100300884008317311CC6
:100E4800831328088000840A290880003E2F33086D
:100E5800AB00AC012C08003A0319332F3E2F2B08A6
:100E6800003A0319C82E013A0319E92E033A031967
:100E78000A2F3E2F0130AB002B08B3070330330293
:100E8800031C472F482F2B2F0130AB002B08B2072C
:100E980010303202031C512F522FC62E0800831225
:100EA8000313B700B90103303902031C5C2F5D2F0F
:100EB8005E2FC02F0530AD002D08A40039080A1296
:100EC8008A1577240A128A1183120313AE002E089A
:100ED800B80038083707AD002D08840083130008D0
:100EE800AE0003102E0C0F39AF002F08B5003808DC
:100EF8003707AD002D0884000008AE000530031048
:100F0800AE0CFF3E031D832F2E080339FF3EAF00B2
:100F18002F08B6003708AD002D08A40038080A12BB
:100F28008A1541250A128A11831203133508AE0067
:100F38002E072C07AF002F08840083130008B00089
:100F4800840A0008B1003608B2003207063E3007AE
:100F5800B30031080318013EB40033088400831736
:100F6800341C831324088000840A2508800001307B
:100F7800AD002D08B907572F080083160313071370
:100F8800981683120313981718163308B5003408F7
:100F9800B6000030B61BFF30B700B80006300310AB
:100FA800B50DB60DB70DB80DFF3E031DD32F38088C
:100FB800A7003708A6003608A5003508A4000130A8
:100FC800AB00E830AA004830A9000030A8000A1297
:100FD8008A118A250A128A11831203132408FF3EF4
:0E0FE8008316031399008B170B178C16080045
:1010000008308A000408840A820700343F3406341A
:101010005B344F3466346D347D3407347F346F3441
:0210200000349A
:1018200064008001840A0406031900340406112CA4
:10183000831203138C1E1D2C1E2C182C8C121A08BC
:10184000080083120313A4000C1E272C282C242C20
:101850000C12240899000800CF340034C13400343D
:10186000B3340034C8340134BA340134AC340134F4
:101870009E34013490340134E33083160313850021
:10188000831203139F018030831603139F001930C6
:1018900083120313A400A40B4B2C4E2C08007E08CB
:1018A0008A007F0882000A128A154F240A128A15BC
:1018B0008000840A04087D0603190034FF0A031916
:1018C000FE0A532C83120313A700270C031C0511D7
:1018D00003180515240C031C851103188515250C08
:1018E000031C051203180516260888000800831239
:1018F0000313A700A601271C7E2C7F2C832C240811
:10190000A5002508A6070310A40D0310A70C27089F
:10191000031D8B2C8C2C7B2C2608080083120313B0
:10192000A7002708A60002300310A60DFF3E031DE6
:10193000942C0310260D01389F00043083120313EA
:10194000A600A60BA12C0000831203131F151F195C
:10195000AA2CAB2CA72C1E08A500831603131E0867
:1019600083120313A400080083120313A801A90122
:10197000241CBB2CBC2CC22C2608A8070318A90ABF
:101980002708A90701300310A60DA70DFF3E031D70
:10199000C32C01300310A50CA40CFF3E031DCA2C60
:1019A00024082504031DD52CD62CB82C2908A50005
:1019B0002808A400080083120313BD003808BA00E9
:1019C0003A08A4003908BB003B08A5003D080A12EC
:1019D0008A11C2240A128A1583120313BC003C0820
:1019E000BE00BF013E088400831300080A128A1556
:1019F00021240A128A15013083120313BA003A080F
:101A0000BE070130BA003A08BF0705303F02031C89
:101A10000A2D0B2DF22C080083120313360838020E
:101A2000AB003708031C370A3902AC003608340211
:101A3000A4003708031C370A3502A5003A083C0207
:101A4000A6003B08031C3B0A3D02A7000A128A15A8
:101A5000B4240A128A15831203132508AE00240841
:101A6000AD000A128A1597270A128A1583120313EA
:101A70003A082B07B4003B0803183B0A2C07B500B3
:101A8000080083120313A80028082407A6002608CC
:101A9000033E84007F3083130005A7002908270632
:101AA00080392706A90029087F39A600A701260842
:101AB000AA002708AB002B08A7002A08A6000730B9
:101AC000FF000310A60DA70DFF0B612D803026052A
:101AD000AA0000302705AB0028082407A600260826
:101AE000023E84007F300005A700290827068039C0
:101AF0002706A90029087F39A6002A082604AA007B
:101B00002B08AB002B08A5002A08A4000800013010
:101B10007102F43003197002031C8F2D902DA02D3B
:101B200075087207F6007608840083130008013EEA
:101B3000F70075087207F8007808840077088000BD
:101B400005307102DC3003197002031CA82DA92D89
:101B5000B92D75087307F600760884008313000812
:101B6000013EF70075087307F800780884007708CD
:101B700080000B307102B83003197002031CC12DB4
:101B8000C22DD22D75087407F600760884008313E1
:101B90000008013EF70075087407F8007808840013
:101BA00077088000080083120313B2002B0884001A
:101BB00083130008013EAC002B0884002C08800031
:101BC0002B0884000008AC002C073207AD002D085C
:101BD00084000008AE00840A0008AF002E088400CC
:101BE00083172F1C83130008B000840A0008B1007B
:101BF00030083104031DFD2DFE2D072E2B08840017
:101C00000A3083130002031C062E072ED62D0A303D
:101C1000A4000030A5002B08840083130008AC004A
:101C2000AD012C08A6002D08A7000A128A157C26F3
:101C30000A128A15831203132408AE002B088400AD
:101C40002E088313800008008C1E272E282E312E8C
:101C500054182B2E2C2E312E54145510D510CD0186
:101C6000CC018C1E342E352E4C2E541C382E392E81
:101C70004C2E0A128A1518240A128A15831203138D
:101C8000A0004D08A43E840020088313800001308A
:101C9000A0002008CD07CC010B1D4F2E502E5A2E30
:101CA0000B110A128A1532270A128A15063083127E
:101CB000031381000C1C5D2E5E2E732E0C10013060
:101CC000A0002008D00714305002031C682E692E93
:101CD0006F2E5314D0010130A0002008CC073C30F7
:101CE0008F00B0308E0023088A0022088400210E65
:101CF0008300FE0E7E0E090083120313AA01A71FA4
:101D0000822E832E8A2EA609A709A60A0319A70ADE
:101D1000AA01AA0AA51F8D2E8E2E932EA409A5090D
:101D2000A40A0319A50A240825040319982E992E3C
:101D3000C82EA901A90AA72E01300310A40DA50DD4
:101D4000FF3E031D9D2E0130A8002808A907A51FEE
:101D5000AA2EAB2E9C2E25082702031DB12E240887
:101D60002602031CB42EB52EBB2E2408A60225087D
:101D7000031CA703A70201300310A50CA40CFF3E0F
:101D8000031DBC2E0130A902031DC72EC82EAB2E89
:101D90002A080319CC2ECD2ED22EA609A709A60AF1
:101DA0000319A70A2708A5002608A4000800831223
:101DB0000313B400B501B6013508A40024073407A5
:101DC000A5002508840083130008A600840A0008E3
:101DD000A7003608A8002807063E2607A9002708FE
:101DE0000318013EAA002908840083172A1C8313C4
:101DF0000008AB00840A0008AC003508AD002D07D0
:101E00003407AE002E08840083130008AF00840A54
:101E10000008B0003608B10031072F07B2003008C3
:101E20000318013EB300320884008317331C831368
:101E30002B088000840A2C0880000130A4002408AC
:101E4000B60703303602031C262F272FDC2E013065
:101E5000A4002408B50710303502031C302F312FA1
:101E6000DB2E08000030831203138619013083161D
:101E70000313A000003083120313061A01308316E7
:101E80000313A100003083120313861A0130831656
:101E90000313A200003083120313851A0130831646
:101EA0000313A300FD017D08A03E840083130008F6
:101EB000031D5B2F5C2F652F013083120313CA07AC
:101EC0000318CB0A0030CB078C2F7D08A03E84007E
:101ED000000803196C2F6D2F8C2F831203134B08EE
:101EE000F1004A08F0005E30F9007908F2005A303B
:101EF000FA007A08F3005630FB007B08F4007D08F6
:101F0000FC007C08F5000A128A1587250A128A153A
:101F100083120313CA01CB010130F9007908FD07D0
:101F200004307D02031C952F962F532F0800831237
:101F30000313B101AC1F9D2F9E2FA52FAB09AC0938
:101F4000AB0A0319AC0AB101B10AAE1FA82FA92F21
:101F5000B22FAD09AE09AD0A0319AE0A0130AF00C8
:101F60002F08B106B201B3012B082C040319B92FB5
:101F7000BA2FF12FB001B00AC82F01300310AB0DFA
:101F8000AC0DFF3E031DBE2F0130AF002F08B00780
:101F9000AC1FCB2FCC2FBD2F01300310B20DB30DD2
:101FA000FF3E031DCD2F2C082E02031DD92F2B0819
:101FB0002D02031CDC2FDD2FE42F2B08AD022C0893
:101FC000031CAE03AE02321401300310AC0CAB0C98
:101FD000FF3E031DE52F0130B002031DF02FF12F4E
:101FE000CC2F31080319F52FF62FFB2FB209B309B7
:101FF000B20A0319B30A3308AC003208AB00080078
:02400E00F23F7F
:00000001FF
