:020000040000FA
:060000000A128A1110280B
:10000800FE00030E83120313A1000408A2000A08CD
:10001800A3000A128A15402F0A128A11132883177F
:10002800DD30FD000C30FE00FE30FF00BD308400E6
:100038000A128A15C3240A128A1190308400BD302E
:100048000A128A1590240A128A118313A030840098
:10005800ED300A128A1590240A128A114A30840057
:1000680062300A128A1590240A128A11FD0183014E
:100078000A128A113F281F30831603138600803026
:100088008700880101308900E0308B00043081004E
:100098000630831203138100313090003C308F000A
:1000A800B0308E0083160317E80183120313D001C2
:1000B80083160317DE01DF010A128A15AC240A121F
:1000C8008A11803083120313B3002530B4000A125A
:1000D8008A15D1250A128A11013083120313A4004C
:1000E8000030A5000130A6000030A7000130A800AC
:1000F8000030A900BD30C0004008AA000A128A11C9
:10010800A6260A128A1183120313541C8C288D28E0
:10011800672A522A5514541083160317EC01ED016F
:100128006D08803AFF0080307F02031D9D2804304F
:100138006C02031CA028A128A228212983120313DA
:10014800B801B80A831603176C085A3E8400831353
:10015800000883120313C0004008B9000130C10031
:10016800831603176C08013E013E83120313BE2851
:100178000310C10DFF3E031DBC28410801380A12B7
:100188008A156B250A128A11103083120313C000D6
:100198004008B800831603176C08563E8400831382
:1001A800000883120313C1004108B9000130C200DE
:1001B800831603176C08013E013E83120313E628D9
:1001C8000310C20DFF3E031DE428420801380A123D
:1001D8008A156B250A128A11113083120313C00085
:1001E8004008B800831603176C08E93E840083139F
:1001F800000883120313C1004108B9000130C2008E
:10020800831603176C08013E013E831203130E295F
:100218000310C20DFF3E031D0C29420801380A12C3
:100228008A156B250A128A11013083160317EC0709
:100238000318ED0A0030ED07942883160317EA0126
:10024800EB01831603176A085A3E84008313800162
:100258006A08563E840080016A08E93E84008001ED
:100268000130EA070318EB0A0030EB076B08803A05
:10027800FF0080307F02031D432904306A02031CFB
:1002880046294729252983160317E5016508903E65
:10029800840083178001013083120313C0004008D3
:1002A80083160317E50705306502031C5C295D29E1
:1002B8004A29672A5514541000300A128A151E2537
:1002C8000A128A11831203132408C0002508C100EA
:1002D800410DC10CC00C410DC10CC00C4008B4004C
:1002E8004108B5000030B600B700FF30B800003054
:1002F800B900EC30BA00FF30BB003C30BC00003025
:10030800BD000A128A159C250A128A11831203134A
:100318003408C200420883160317DD0001300A12B0
:100328008A151E250A128A11831203132408C00095
:100338002508C100410DC10CC00C410DC10CC00CF9
:100348004008B4004108B5000030B600B700FF30DF
:10035800B8000030B9000030BA00BB006430BC00FF
:100368000030BD000A128A159C250A128A118312D0
:1003780003133408C200420883160317DE00053051
:100388000A128A151E250A128A11831203132408D9
:10039800C0002508C100410DC10CC00C410DC10CA5
:1003A800C00C4008B4004108B5000030B600B700E2
:1003B800FF30B8000030B9000030BA00BB0064302C
:1003C800BC000030BD000A128A159C250A128A1149
:1003D800831203133408C200420883160317DF0090
:1003E80083120313B801831603175D0883120313DE
:1003F800C0004008B90002300A128A156B250A129B
:100408008A1183120313B801831603175E08831237
:100418000313C0004008B90004300A128A156B257E
:100428000A128A1183120313B801831603175F088F
:1004380083120313C0004008B90006300A128A1557
:100448006B250A128A1183160317E6010530660226
:10045800031C2F2A302A312A672A6608903E840016
:1004680083178001013083120313C00040088316EC
:100478000317E6072A2A04304C02031C442A452A9B
:10048800482A5514D51454100F304D02031C4D2A18
:100498004E2A672A5514D5105410672A8316031755
:1004A80010087F3983120313C000C1014108003AC4
:1004B80003195F2A3F2A4008083A03198E28023A8E
:1004C80003195E293F2A83120313551C6C2A6D2ACF
:1004D8002D2B5410CD015510CC01D51C742A752A2A
:1004E800772AD5102D2B83160317E70103306702EF
:1004F800031C7F2A802A812A2D2B0530831203139F
:10050800C0004008A4008316031767080A128A155A
:10051800E7240A128A1183120313C10041088316C3
:100528000317E900690883120313C0004008831603
:100538000317E300630883120313C0000310400C81
:100548000F39C100410883160317E40069088312B4
:100558000313C000400883160317E30063088312DF
:100568000313C00005300310C00CFF3E031DB72A5B
:1005780040080339FF3EC100410883160317E00015
:100588006408831203135E060319CB2ACC2AFF2AB8
:100598009030C0004008A4008316031769080A12A7
:1005A8008A150B260A128A11831603176408831208
:1005B8000313C1004107BD3E840083170008C20031
:1005C800840A0008C3008316031760088312031304
:1005D800C40044074207C50043080318013EC6008B
:1005E800450884008317461C831324088000840A66
:1005F80025088000262B831603176408831203132B
:10060800C000400883160313A6009030831203131A
:10061800C0004008A4008316031769080A128A1547
:100628000B260A128A118316031760088312031314
:10063800C1004107A03E8400240883138000840A77
:10064800250880000130C000400883160317E7071B
:100658007A2A83120313531C322B332BE22B521C9E
:10066800362B372BE22B013083160317E1070318CB
:10067800E20A0030E207831203135E08C000400755
:10068800BD3E840083170008C100840A0008C20028
:1006980083160317680883120313C300430741072F
:1006A800C40042080318013EC500440884008317AB
:1006B800451C83130008C600840A0008C700831677
:1006C80003176108831203134602C8008316031731
:1006D8006208031C620A831203134702C900C91F78
:1006E800762B772BA02B0130C00040088316031708
:1006F800E8070130E1000030E20003306802031C23
:10070800862B872BA02BE801A03083120313C0008F
:100718004008A400BD300A128A159D260A128A11C3
:100728005E3083120313C0004008AB00BD300A12CC
:100738008A15EE260A128A11603083120313C0004C
:100748004008B4006130C1004108B5005E08C2002D
:100758004207BD3E840083170008C300840A0008CE
:10076800C40083160317680883120313C5004507DE
:100778004307C60044080318013EC7004608840022
:100788008317471C83130008C800840A0008C9009F
:10079800831603176108831203134802B6008316F1
:1007A80003176208031C620A831203134902B70085
:1007B8005F300A128A1598270A128A1183120313C6
:1007C800500851060319E92BEA2B642C5008C00085
:1007D8004008D100512C5F080319F32BF42B072C88
:1007E800A401A5015F08013E84000A128A150020B1
:1007F8000A128A11C0004008A60001300A128A15A0
:10080800D2240A128A1183120313A401A5015E08D7
:10081800013E84000A128A1500200A128A11C000BB
:100828004008A60001300A128A15D2240A128A1139
:10083800642C6008031D212C222C272C5F08031927
:10084800262C272C642CA401A40AA5016008013ECB
:1008580084000A128A1500200A128A11C000400872
:10086800A60000300A128A15D2240A128A11642CB2
:10087800A401A501A50A6108013E84000A128A158F
:1008880000200A128A11C0004008A60000300A128F
:100898008A15D2240A128A11642C5008C000C1019A
:1008A8004108003A0319592C642C4008003A0319EE
:1008B800EF2B013A03191D2C033A03193C2C642C25
:1008C800033083120313A4000030A5005008013E32
:1008D800A600003003180130A7000A128A119F27CA
:1008E8000A128A11831203132408C0004008D0009A
:1008F800531C7F2C802C862C521C832C842C862CF9
:1009080053105210531C892C8A2C872852188D2C6E
:100918008E2C8728521487280A128A1110288312CD
:100928000313A80028087F39A6002608A900240870
:100938007F39A6002608AA0025087F39A6002608C0
:10094800AB002508A60007300310A60CFF3E031DC8
:10095800A82C26087F39A7002708AC00AE01AF01F4
:10096800B401B50183120313B001B101831203135B
:100978003408293E840083130008A600300AC62CD8
:100988000310A60CFF3E031DC42C26080139A7003E
:100998002708AE070130B0070318B10A0030B107C5
:1009A8003108803AFF0080307F02031DDD2C0830BB
:1009B8003002031CE02CE12CBA2C831203132E1CEA
:1009C800E62CE72CEF2C8030A6003408293E840062
:1009D800260883138007AE010130B4070318B50A4F
:1009E8000030B5073508803AFF0080307F02031DCC
:1009F800FF2C04303402031C022D032DB62C831265
:100A08000313B601B70183120313B201B3018312B2
:100A180003133208293E840083130008A600360A0F
:100A2800172D0310A60CFF3E031D152D26080139AE
:100A3800A7002708AF070130B2070318B30A003030
:100A4800B3073308803AFF0080307F02031D2E2D44
:100A580004303202031C312D322D0B2D8312031367
:100A68002F1C372D382D452D0130A600360A3E2D76
:100A78000310A60DFF3E031D3C2D2608A7002708DE
:100A8800AD07AF010130B6070318B70A0030B70742
:100A98003708803AFF0080307F02031D552D08304B
:100AA8003602031C582D592D072D293008008312B2
:100AB80003138619602D612D682D0130CA070318AC
:100AC800CB0A0030CB07862D861D6B2D6C2D862D0D
:100AD8004B08F1004A08F0005A30F9007908F20092
:100AE8005630FA007A08F300E930FB007B08F4007E
:100AF800F5010A128A1551260A128A118312031364
:100B0800CA01CB01061A892D8A2D912D0130CA07F9
:100B18000318CB0A0030CB07B02D061E942D952D57
:100B2800B02D4B08F1004A08F0005A30F900790856
:100B3800F2005630FA007A08F300E930FB007B082F
:100B4800F400F501F50A0A128A1551260A128A11CB
:100B580083120313CA01CB01861AB32DB42DBB2D02
:100B68000130CA070318CB0A0030CB07DC2D861EDC
:100B7800BE2DBF2DDC2D4B08F1004A08F0005A307D
:100B8800F9007908F2005630FA007A08F300E930E3
:100B9800FB007B08F4000230FC007C08F5000A1218
:100BA8008A1551260A128A1183120313CA01CB012E
:100BB800851ADF2DE02DE72D0130CA070318CB0A6F
:100BC8000030CB07082E851EEA2DEB2D082E4B088A
:100BD800F1004A08F0005A30F9007908F20056305E
:100BE800FA007A08F300E930FB007B08F4000330D0
:100BF800FC007C08F5000A128A1551260A128A118F
:100C080083120313CA01CB01080083120313AE0138
:100C1800A71F0F2E102E1D2EA409A509A609A70986
:100C2800A40A0319A50A0319A60A0319A70AAE01FB
:100C3800AE0AAB1F202E212E302EA809A909AA0919
:100C4800AB09A80A0319A90A0319AA0A0319AB0AC6
:100C58000130AC002C08AE060030B2000030B10004
:100C68000030B0000030AF00270826042504240413
:100C780003193F2E402E8D2EAD01AD0A502E0130A6
:100C8800AC000310A40DA50DA60DA70DAC0B452EA9
:100C98000130AC002C08AD07A71F532E542E432E4D
:100CA8000130AC000310AF0DB00DB10DB20DAC0B9F
:100CB800562E27082B02031D6B2E26082A02031D19
:100CC8006B2E25082902031D6B2E24082802031CFD
:100CD8006E2E6F2E7E2E2408A8022508031C250FD1
:100CE800A9022608031C260FAA022708031C270F9F
:100CF800AB022F1401300310A70CA60CA50CA40CF2
:100D0800FF3E031D7F2E0130AD02031D8C2E8D2E5C
:100D1800542E2E080319912E922E9D2EAF09B0093C
:100D2800B109B209AF0A0319B00A0319B10A0319C4
:100D3800B20A3208A7003108A6003008A5002F081B
:100D4800A400080083120313B201B3010E2F320866
:100D5800AB002B072A07AC002C0884008317000877
:100D6800AD00840A0008AE003308AF002F072D0736
:100D7800B0002E080318013EB10030088400831724
:100D8800311C831324088000840A25088000212F41
:100D98003208AB002B072A07AC002C088400831705
:100DA8000008AD00840A0008AE003308AF002F0722
:100DB8002D07B0002E080318013EB100300884004A
:100DC8008317311C831326088000840A27088000B3
:100DD800212F3208AB002B072A07AC002C0884000F
:100DE80083170008AD00840A0008AE003308AF007E
:100DF8002F072D07B0002E080318013EB100300858
:100E080084008317311C831328088000840A29086A
:100E18008000212F3308AB00AC012C08003A0319DD
:100E2800162F212F2B08003A0319AB2E013A03196C
:100E3800CC2E033A0319ED2E212F0130AB002B08DD
:100E4800B30703303302031C2A2F2B2F0E2F013038
:100E5800AB002B08B20710303202031C342F352F99
:100E6800A92E080083120313B101AC1F3C2F3D2F9C
:100E7800442FAB09AC09AB0A0319AC0AB101B10A9A
:100E8800AE1F472F482F512FAD09AE09AD0A0319E0
:100E9800AE0A0130AF002F08B106B201B3012B082A
:100EA8002C040319582F592F902FB001B00A672F1F
:100EB80001300310AB0DAC0DFF3E031D5D2F01305B
:100EC800AF002F08B007AC1F6A2F6B2F5C2F0130C3
:100ED8000310B20DB30DFF3E031D6C2F2C082E021C
:100EE800031D782F2B082D02031C7B2F7C2F832FAB
:100EF8002B08AD022C08031CAE03AE0232140130DD
:100F08000310AC0CAB0CFF3E031D842F0130B00264
:100F1800031D8F2F902F6B2F31080319942F952FB6
:100F28009A2FB209B309B20A0319B30A3308AC00FD
:100F38003208AB00080083120313AA01A71FA52FCC
:100F4800A62FAD2FA609A709A60A0319A70AAA0161
:100F5800AA0AA51FB02FB12FB62FA409A509A40A64
:100F68000319A50A240825040319BB2FBC2FEB2F4E
:100F7800A901A90ACA2F01300310A40DA50DFF3E2F
:100F8800031DC02F0130A8002808A907A51FCD2FD1
:100F9800CE2FBF2F25082702031DD42F2408260291
:100FA800031CD72FD82FDE2F2408A6022508031CE0
:100FB800A703A70201300310A50CA40CFF3E031DD4
:100FC800DF2F0130A902031DEA2FEB2FCE2F2A08AD
:100FD8000319EF2FF02FF52FA609A709A60A031961
:0C0FE800A70A2708A5002608A40008009E
:1010000008308A000408840A820700343F3406341A
:101010005B344F3466346D347D3407347F346F3441
:0210200000349A
:1019200064008001840A0406031900340406912C23
:10193000831203138C1E9D2C9E2C982C8C121A083B
:10194000080083120313A4000C1EA72CA82CA42C9F
:101950000C12240899000800E33083160313850055
:10196000831203139F018030831603139F001930E5
:1019700083120313A400A40BBB2CBE2C08007E080A
:101980008A007F0882000A128A15BF240A128A156B
:101990008000840A04087D0603190034FF0A031935
:1019A000FE0AC32C83120313A700270C031C051186
:1019B00003180515240C031C851103188515250C27
:1019C000031C051203180516260888000800831258
:1019D0000313A700A601271CEE2CEF2CF32C2408E0
:1019E000A5002508A6070310A40D0310A70C2708BF
:1019F000031DFB2CFC2CEB2C26080800E3340034E0
:101A0000DD340034D7340034D1340034CB340034E6
:101A1000C5340034BF340034B9340034B334003436
:101A2000AD340034A7340034B7340134B134013458
:101A3000AB340134A53401349F34013483120313D1
:101A4000A7002708A60002300310A60DFF3E031DC5
:101A5000242D0310260D01389F0004308312031338
:101A6000A600A60B312D0000831203131F151F19AA
:101A70003A2D3B2D372D1E08A500831603131E0893
:101A800083120313A400080083120313A801A90101
:101A9000241C4B2D4C2D522D2608A8070318A90AEB
:101AA0002708A90701300310A60DA70DFF3E031D4F
:101AB000532D01300310A50CA40CFF3E031D5A2D1D
:101AC00024082504031D652D662D482D2908A50031
:101AD0002808A400080083120313BD003808BA00C8
:101AE0003A08A4003908BB003B08A5003D080A12CB
:101AF0008A1193240A128A1583120313BC003C082E
:101B0000BE00BF013E088400831300080A128A1534
:101B1000A1240A128A15013083120313BA003A086D
:101B2000BE070130BA003A08BF0705303F02031C68
:101B30009A2D9B2D822D080083120313360838023C
:101B4000AB003708031C370A3902AC0036083402F0
:101B5000A4003708031C370A3502A5003A083C02E6
:101B6000A6003B08031C3B0A3D02A7000A128A1587
:101B700044250A128A15831203132508AE0024088F
:101B8000AD000A128A1136270A128A15831203132E
:101B90003A082B07B4003B0803183B0A2C07B50092
:101BA000080083160313071398168312031398175C
:101BB00018163308B5003408B6000030B61BFF30E5
:101BC000B700B80006300310B50DB60DB70DB80D4F
:101BD000FF3E031DE32D3808A7003708A60036088E
:101BE000A5003508A4000130AB00E830AA00483059
:101BF000A9000030A8000A128A1109260A128A15C3
:101C0000831203132408FF3E8316031399008B17D6
:101C10000B178C16080083120313A800280824074A
:101C2000A6002608033E84007F3083170005A70026
:101C30002908270680392706A90029087F39A60028
:101C4000A7012608AA002708AB002B08A7002A082E
:101C5000A6000730FF000310A60DA70DFF0B2B2ECB
:101C600080302605AA0000302705AB00280824078D
:101C7000A6002608023E84007F300005A700290840
:101C8000270680392706A90029087F39A6002A08D7
:101C90002604AA002B08AB002B08A5002A08A400E4
:101CA000080001307102F43003197002031C592E30
:101CB0005A2E6A2E75087207F60076088400831380
:101CC0000008013EF70075087207F80078088400E4
:101CD0007708800005307102DC3003197002031CA4
:101CE000722E732E832E75087307F6007608840013
:101CF00083130008013EF70075087307F8007808A1
:101D00008400770880000B307102B830031970022C
:101D1000031C8B2E8C2E9C2E75087407F6007608FB
:101D2000840083130008013EF70075087407F8006B
:101D30007808840077088000080083120313B0003D
:101D4000B1012408063E8400831300083106031DF8
:101D5000AA2EAB2EE32EB2013208A50025072407D8
:101D6000A6002608840083130008A700840A000840
:101D7000A8003108A90029073007AA002A08840012
:101D800083170008AB00840A0008AC003208AD00DD
:101D90002D072B07AE002C080318013EAF002E08BC
:101DA000840083172F1C831327088000840A2808C7
:101DB00080000130A5002508B20703303202031C61
:101DC000E22EE32EAC2E0130A5002508B10710301D
:101DD0003102031CEC2EED2EA12E080083120313FA
:101DE000B2002B08840083130008013EAC002B08CE
:101DF00084002C0880002B0884000008AC002C070D
:101E00003207AD002D08840083170008AE00840A55
:101E10000008AF002E08840083172F1C83130008CE
:101E2000B000840A0008B10030083104031D192FE6
:101E30001A2F232F2B0884000A3083130002031C5F
:101E4000222F232FF12E0A30A4000030A5002B08EA
:101E5000840083130008AC00AD012C08A6002D08F7
:101E6000A7000A128A119F270A128A1583120313E8
:101E70002408AE002B0884002E088313800008007D
:101E80008C1E432F442F4D2F5418472F482F4D2F72
:101E900054145510D510CD01CC018C1E502F512F4C
:101EA000682F541C542F552F682F0A128A15982416
:101EB0000A128A1583120313A0004D08903E840075
:101EC0002008831780000130A0002008CD07CC0136
:101ED0000B1D6B2F6C2F762F0B110A128A115B25AD
:101EE0000A128A1506308312031381000C1C792F05
:101EF0007A2F8F2F0C100130A0002008FD0714301E
:101F00007D02031C842F852F8B2F5314FD0101307C
:101F1000A0002008CC073C308F00B0308E00230892
:101F20008A0022088400210E8300FE0E7E0E090026
:101F300083120313BB006430AB000030AC003708E1
:101F4000AE003608AD000A128A1136270A128A1529
:101F5000831203132B08B8003B088400380883134E
:101F600080000A30AB000030AC003708A70036080C
:101F7000A6006430A4000030A5000A128A119F2731
:101F80000A128A15831203132508AE002408AD0037
:101F90000A128A1136270A128A15831203132B0894
:101FA000B800340884003808831380003708A7007D
:101FB0003608A6006430A4000030A5000A128A1179
:101FC0009F270A128A15831203132508BA002408D2
:101FD000B9000A30A4000030A5003A08A70039086B
:101FE000A6000A128A119F270A128A158312031368
:101FF0002408B800350884003808831380000800DE
:02400E00F23F7F
:00000001FF
