:020000040000FA
:100000000A128A110E280F34FE00030EF7000408AE
:10001000F8000A08F9000A128A15882C0A128A11B7
:1000200011288313E730FD000B30FE000A30FF007B
:10003000C73084000A128A11F1270A128A110A12A3
:100040008A1103200A128A11E40083179030840079
:10005000F0300A128A15AF220A128A111030840079
:1000600058300A128A15AF220A128A118313A0305F
:100070008400C7300A128A15AF220A128A114C3046
:10008000840064300A128A15AF220A128A11F00124
:10009000F101F201F301F40183010A128A115028DF
:1000A0001F308316031386008030870088010130DB
:1000B0008900E0308B000430810006308312031386
:1000C0008100313090000A128A15CB220A128A115F
:1000D000803083120313AF002530B0000A128A1556
:1000E0000E240A128A11023083120313A00000307A
:1000F000A1000230A2000030A3000230A4000030B2
:10010000A5000A128A1511260A128A113C308312A0
:1001100003138F00B0308E0083120317DF018312A8
:100120000313DB01831203175D140313621C992868
:100130009A28312B1C2B6314621083120317EA01D7
:10014000EB01BE2983120313B401B40A831203170F
:100150006A08543E84008313000883120313BC0012
:100160003C08B50003300A128A15A8230A128A1126
:10017000103083120313BC003C08B4008312031731
:100180006A08503E84008313000883120313BD00E5
:100190003D08B50003300A128A15A8230A128A11F5
:1001A000113083120313BC003C08B4008312031700
:1001B0006A084C3E84008313000883120313BD00B9
:1001C0003D08B50003300A128A15A8230A128A11C5
:1001D000D32983120313B401B40A831203176A08E4
:1001E000543E84008313000883120313BC003C08B0
:1001F000B50005300A128A15A8230A128A11103098
:1002000083120313BC003C08B400831203176A086E
:10021000503E84008313000883120313BD003D0881
:10022000B50005300A128A15A8230A128A11113066
:1002300083120313BC003C08B400831203176A083E
:100240004C3E84008313000883120313BD003D0855
:10025000B50005300A128A15A8230A128A11D3297B
:1002600083120313B401B40A831203176A08543EBD
:1002700084008313000883120313BC003C08B500FC
:1002800007300A128A15A8230A128A111030831225
:100290000313BC003C08B400831203176A08503EE5
:1002A00084008313000883120313BD003D08B500CA
:1002B00007300A128A15A8230A128A1111308312F4
:1002C0000313BC003C08B400831203176A084C3EB9
:1002D00084008313000883120313BD003D08B5009A
:1002E00007300A128A15A8230A128A11D329831209
:1002F0000313B401B40A831203176A08543E84003E
:100300008313000883120313BC003C08B5000930B6
:100310000A128A15A8230A128A11103083120313B5
:10032000BC003C08B400831203176A08503E8400E6
:100330008313000883120313BD003D08B500093084
:100340000A128A15A8230A128A1111308312031384
:10035000BC003C08B400831203176A084C3E8400BA
:100360008313000883120313BD003D08B500093054
:100370000A128A15A8230A128A11D3298312031795
:100380006B08003A0319C529D3296A08003A0319F2
:10039000A228013A0319E928033A03193029013A3E
:1003A00003197729D329013083120317EA070318A9
:1003B000EB0A0030EB076B08803AFF0080307F02C9
:1003C000031DE42904306A02031CE729E829BE2939
:1003D00083120317E601E7016708803AFF008030C7
:1003E0007F02031DF52904306602031CF829F92950
:1003F000FA29102A831203176608543E84008313D7
:1004000080016608503E8400800166084C3E8400EE
:1004100080010130E6070318E70A0030E707EC29FE
:1004200083120317E30105306302031C182A192AFB
:100430001A2A312B6308A03E840083138001013007
:1004400083120313BC003C0883120317E307132A2B
:100450006314621000300A128A152A230A128A11C4
:10046000831203132008BC002108BD003D0DBD0C04
:10047000BC0C3D0DBD0CBC0C3C08B0003D08B100EF
:100480000030B200B300FF30B4000030B500EC30F3
:10049000B600FF30B7003C30B8000030B9000A1297
:1004A0008A15D9230A128A11831203133008BE0059
:1004B0003E0883120317DA0001300A128A152A2334
:1004C0000A128A11831203132008BC002108BD0000
:1004D0003D0DBD0CBC0C3D0DBD0CBC0C3C08B00072
:1004E0003D08B1000030B200B300FF30B40000306E
:1004F000B5000030B600B7006430B8000030B90075
:100500000A128A15D9230A128A118312031330089A
:10051000BE003E0883120317DB0005300A128A155D
:100520002A230A128A11831203132008BC0021080F
:10053000BD003D0DBD0CBC0C3D0DBD0CBC0C3C0804
:10054000B0003D08B1000030B200B300FF30B4008D
:100550000030B5000030B600B7006430B80000309D
:10056000B9000A128A15D9230A128A1183120313B9
:100570003008BE003E0883120317DC008312031309
:10058000B401831203175A0883120313BC003C08FA
:10059000B50002300A128A15A8230A128A118312A2
:1005A0000313B401831203175B0883120313BC0007
:1005B0003C08B50004300A128A15A8230A128A11D1
:1005C00083120313B401831203175C08831203130D
:1005D000BC003C08B50006300A128A15A8230A128E
:1005E0008A1183120317E40105306402031CF92AFF
:1005F000FA2AFB2A312B6408A03E84008313800171
:10060000013083120313BC003C0883120317E40774
:10061000F42A04305802031C0E2B0F2B122B6314E8
:10062000E31462100F305902031C172B182B312BC7
:100630006314E3106210312B8316031320087F39F3
:1006400083120313BC00BD013D08003A0319292B96
:10065000092B3C08083A03199B28023A0319282A57
:10066000092B0313631C352B362BCD2B6210D901BC
:100670006310D801E31C3D2B3E2B402BE310CD2B08
:10068000A0300A128A1124270A128A118312031732
:10069000E50103306502031C4E2B4F2B502BCD2B55
:1006A000053083120313BC003C08A000831203171B
:1006B00065080A128A15F3220A128A11831203139B
:1006C000BD003D0883120317E0006008A03E8400CF
:1006D0008313000883120313BC003C088312031722
:1006E000DE005E0883120313BC0003103C0C0F39BC
:1006F000BD003D0883120317D8006008A03E8400A7
:10070000000883120313BC003C0883120317DE00A9
:100710005E0883120313BC0005300310BC0CFF3EBF
:10072000031D8D2B3C080339FF3EBD003D0883129D
:100730000317D90060080A128A1548240A128A1180
:1007400083120317580883120313BC003C07C73EEB
:10075000840083130008BD00840A0008BE008312D1
:100760000317590883120313BF003F073D07C0005A
:100770003E080318013EC100400884008317411C55
:10078000831320088000840A210880000130BC0007
:100790003C0883120317E507492B831203175D1CDE
:1007A000D22BD32BC42CE80110306802031CD92BA8
:1007B000DA2BDB2B952CE90103306902031CE12BBA
:1007C000E22BE32B8C2C680883120313BC003C073C
:1007D000C73E840083130008BD00840A0008BE00E1
:1007E00083120317690883120313BF003F073D07F5
:1007F000C0003E080318013EC10040088400831772
:10080000411C83130008C200840A0008C30083123D
:100810000317680883120313C4004407C73E84000B
:1008200083130008C500840A0008C600831203175A
:10083000690883120313C7004707063E4507C8002F
:1008400046080318013EC900480884008317491C64
:1008500083130008CA00840A0008CB0043084B0633
:10086000031D342C42084A060319372C382C852CDA
:1008700083120317680883120313BC003C07C73EAA
:10088000840083130008BD00840A0008BE008312A0
:100890000317690883120313BF003F073D07C00019
:1008A0003E080318013EC100400884008317411C24
:1008B00083130008C200840A0008C30083120317D0
:1008C000680883120313C4004407C73E84008313DF
:1008D0000008C500840A0008C600831203176908CF
:1008E00083120313C7004707063E4507C8004608A2
:1008F0000318013EC900480884008317491C83136C
:1009000042088000840A430880000130BC003C0893
:1009100083120317E907DC2B013083120313BC0099
:100920003C0883120317E807D42B03136408013E25
:100930000F39BC003C08E4006408BC003C07C73E1B
:10094000840083130008BD00840A0008BE003D082F
:10095000063EBF003E080318013E003EC0003F08AF
:1009600084008317401C83130008C100840A000818
:10097000C20041084204031DBE2CBF2CC42C6408D5
:10098000031DC32CC42C952C0313611CC82CC92C2B
:100990008E2D601CCC2CCD2C8E2D01308312031794
:1009A000E1070318E20A0030E2075D108312031327
:1009B0006408BC003C07C73E840083130008BD00E8
:1009C000840A0008BE00831203175F088312031312
:1009D000BF003F07063E3D07C0003E080318013E2A
:1009E000C100400884008317411C83130008C20023
:1009F000840A0008C30083120317610883120313DB
:100A00004202C400831203176208031C620A8312A5
:100A100003134302C500C51F0E2D0F2D162D831283
:100A200003175D140130E1000030E2000230831250
:100A300003175F06031D1D2D1E2D542D8312031356
:100A40006408BC003C07C73E840083130008BD0057
:100A5000840A0008BE003D080A3EBF003E08031895
:100A6000013E003EC0003F0884008317401C8313F2
:100A70000008C100840A0008C2008312031762083C
:100A8000803A83120313C3004208803A4302031DD5
:100A90004D2D4108831203176102031C502D512D67
:100AA000542D831203175D14831203136408BC00D2
:100AB0003C07C73E840083130008BD00840A000879
:100AC000BE00831203175F0883120313BF003F07A2
:100AD000063E3D07C0003E080318013EC100400825
:100AE00084008317411C83130008C200840A000895
:100AF000C300831203176108831203134202B0007C
:100B0000831203176208031C620A83120313430251
:100B1000B1000A128A15A6250A128A11831203133C
:100B20005B085C060319952D962D122E5B08BC0000
:100B30003C08DC00FC2D5D0803199F2DA02D122E12
:100B4000A001A1015D08013E84000A128A1500205F
:100B50000A128A11BC003C08A20001300A128A1550
:100B6000DE220A128A11122E5E08031DB82DB92D3D
:100B7000BE2D5D080319BD2DBE2D122EA001A00AA9
:100B8000A1015E08013E84000A128A1500200A12A3
:100B90008A11BC003C08A20000300A128A15DE222D
:100BA0000A128A11122EA001A101A10A5F08013EBA
:100BB00084000A128A1500200A128A11BC003C081F
:100BC000A20000300A128A15DE220A128A11122EA1
:100BD000A001A1016408013E84000A128A150020C8
:100BE0000A128A11BC003C08A20001300A128A15C0
:100BF000DE220A128A11122E5B08BC00BD013D08DC
:100C0000003A0319042E122E3C08003A03199B2DBA
:100C1000013A0319B42D033A0319D32D013A0319EC
:100C2000E82D122E033083120313A0000030A10020
:100C30005B08013EA200003003180130A3000A1235
:100C40008A15E2240A128A11831203132008BC00B9
:100C50003C08DB00611C2D2E2E2E342E601C312E04
:100C6000322E342E61106010611C372E382E9528DC
:100C700060183B2E3C2E9528601495280A128A1184
:100C80000E28831203138619462E472E4E2E01304E
:100C9000F0070318F10A0030F1077B2E861D512E54
:100CA000522E7B2E01307102F43003197002031CA6
:100CB0005A2E5B2E5F2E0130F5007508D4070530E3
:100CC0007102DC3003197002031C672E682E6C2E33
:100CD0000130F5007508D0070B307102B8300319E8
:100CE0007002031C742E752E792E0130F5007508E4
:100CF000CC07F001F101061A7E2E7F2E862E0130E0
:100D0000F0070318F10A0030F107B32E061E892EF2
:100D10008A2EB32E01307102F43003197002031CC5
:100D2000922E932E972E0130F5007508D5070530C9
:100D30007102DC3003197002031C9F2EA02EA42E1A
:100D40000130F5007508D1070B307102B830031976
:100D50007002031CAC2EAD2EB12E0130F5007508CB
:100D6000CD07F001F101861AB62EB72EBE2E013046
:100D7000F0070318F10A0030F107EB2E861EC12E92
:100D8000C22EEB2E01307102F43003197002031CE5
:100D9000CA2ECB2ECF2E0130F5007508D6070530B0
:100DA0007102DC3003197002031CD72ED82EDC2E02
:100DB0000130F5007508D2070B307102B830031905
:100DC0007002031CE42EE52EE92E0130F5007508B3
:100DD000CE07F001F101851AEE2EEF2EF62E01302E
:100DE000F0070318F10A0030F107232F851EF92EB2
:100DF000FA2E232F01307102F43003197002031C04
:100E0000022F032F072F0130F5007508D707053093
:100E10007102DC3003197002031C0F2F102F142FE6
:100E20000130F5007508D3070B307102B830031993
:100E30007002031C1C2F1D2F212F0130F500750897
:100E4000CF07F001F101080083120313B100AB01D9
:100E5000A801AC01A901AA01B201B30183120313D5
:100E6000AD01AE018312031332083107A400240838
:100E7000840083130008A5002D0A402F0310A50C41
:100E8000FF3E031D3E2F25080139A6002608A807AE
:100E90000130AD070318AE0A0030AE072E08803AC5
:100EA000FF0080307F02031D572F08302D02031CE6
:100EB0005A2F5B2F322F83120313281C602F612FB0
:100EC000672FAB01AB0A3208A4002408AC00013044
:100ED000B2070318B30A0030B3073308803AFF00A3
:100EE00080307F02031D762F05303202031C792FDC
:100EF0007A2F2E2F83120313B401B501831203132B
:100F0000AF01B001831203132F083107A400240896
:100F1000840083130008A500340A902F0310A50C49
:100F2000FF3E031D8E2F25080139A6002608A907BC
:100F30000130AF070318B00A0030B0073008803A1C
:100F4000FF0080307F02031DA72F04302F02031CF7
:100F5000AA2FAB2F822F83120313291CB02FB12F7E
:100F6000B72FAB01AB0A3408A4002408AA00013053
:100F7000B4070318B50A0030B5073508803AFF00FA
:100F800080307F02031DC62F08303402031CC92F96
:100F9000CA2F7E2F831203132B080319D02FD12FB2
:100FA000EC2F2A08A4002408A0002C083107A50073
:100FB00025088400831300080A128A1577230A1271
:100FC0008A1183120313A6002C083107A7002708F3
:100FD000840026088313800008007E088A007F08AA
:100FE00082000A128A11ED270A128A118000840AEF
:100FF00004087D0603190034FF0A0319FE0AF12FC5
:1010000008308A000408840A820700343F3406341A
:101010005B344F3466346D347D3407347F346F3441
:0210200000349A
:10155E0064008001840A0406031900340406B02ACC
:10156E00831203138C1EBC2ABD2AB72A8C121A08AA
:10157E00080083120313A0000C1EC62AC72AC32A12
:10158E000C12200899000800E3308316031385001F
:10159E00831203139F018030831603139F001930AB
:1015AE0083120313A000A00BDA2ADD2A080083128F
:1015BE000313A300230C031C051103180515200C9F
:1015CE00031C851103188515210C031C0512031825
:1015DE00051622088800080083120313A300A20137
:1015EE00231CFA2AFB2AFF2A2008A1002108A207A1
:1015FE000310A00D0310A30C2308031D072B082BAB
:10160E00F72A22080800BB340034AF340034E43427
:10161E000134D8340134CC340134C0340134B43400
:10162E000134A83401349C340134903401344C34E8
:10163E0001344034013434340134283401341C3440
:10164E0001341034013483120313A3002308A200C3
:10165E0002300310A20DFF3E031D302B0310220D8E
:10166E0001389F00043083120313A200A20B3D2BFE
:10167E000000831203131F151F19462B472B432BF4
:10168E001E08A100831603131E0883120313A00065
:10169E00080083120313A401A501201C572B582BFD
:1016AE005E2B2208A4070318A50A2308A5070130FC
:1016BE000310A20DA30DFF3E031D5F2B013003107F
:1016CE00A10CA00CFF3E031D662B20082104031D58
:1016DE00712B722B542B2508A1002408A0000800A2
:1016EE0083120313A3000130A100200A802B0310E4
:1016FE00A10DFF3E031D7E2B210823050319882B08
:10170E00892B982B0130A100200A8F2B0310A10DDD
:10171E00FF3E031D8D2B2108A2002208A3042308DF
:10172E00A72B0130A100200A9E2B0310A10DFF3E16
:10173E00031D9C2B2108FF3AA2002208A3052308B3
:10174E00080083120313B9003408B6003608A0004F
:10175E003508B7003708A10039080A128A1538274C
:10176E000A128A1583120313B8003808BA00BB0197
:10177E003A088400831300080A128A15C0220A123E
:10178E008A15013083120313B6003608BA070130EA
:10179E00B6003608BB0705303B02031CD72BD82BEF
:1017AE00BF2B08008312031332083402A70033083C
:1017BE00031C330A3502A80032083002A000330899
:1017CE00031C330A3102A10036083802A200370882
:1017DE00031C370A3902A3000A128A1550230A1273
:1017EE008A15831203132108AA002008A9000A12E1
:1017FE008A153D250A128A15831203133608270708
:10180E00B00037080318370A2807B10008008316FE
:10181E0003130713981683120313981718162F081D
:10182E00B1003008B2000030B21BFF30B300B4007C
:10183E0006300310B10DB20DB30DB40DFF3E031DF6
:10184E00202C3408A3003308A2003208A10031086E
:10185E00A0000130A700E830A6004830A5000030F7
:10186E00A4000A128A159B260A128A1583120313E4
:10187E002008FF3E8316031399008B170B178C1647
:10188E00080083120313A4002408A33E84007F30B3
:10189E0083130005A2002508220680392206A50022
:1018AE0025087F39A200A3012208A6002308A7005D
:1018BE002708A3002608A2000730FF000310A20D80
:1018CE00A30DFF0B652C80302205A60000302305EA
:1018DE00A7002408A23E84007F300005A200250840
:1018EE00220680392206A50025087F39A200260887
:1018FE002204A6002708A7002708A1002608A0009A
:10190E000800831203138C1E8D2C8E2C972C6218BC
:10191E00912C922C972C62146310E310D901D801EC
:10192E008C1E9A2C9B2CB22C621C9E2C9F2CB22CA3
:10193E000A128A15B7220A128A15F60083120313A9
:10194E005908A03E84007608831380000130F6000B
:10195E007608D907D8010B1DB52CB62CC02C0B114F
:10196E000A128A1141260A128A15063083120313AF
:10197E0081000C1CC32CC42CD92C0C100130F60089
:10198E007608F40714307402031CCE2CCF2CD52C01
:10199E006114F4010130F6007608D8073C308F0050
:1019AE00B0308E0079088A0078088400770E8300A4
:1019BE00FE0E7E0E090083120313A601A31FE82C50
:1019CE00E92CF02CA209A309A20A0319A30AA60165
:1019DE00A60AA11FF32CF42CF92CA009A109A00A28
:1019EE000319A10A200821040319FE2CFF2C2E2D09
:1019FE00A501A50A0D2D01300310A00DA10DFF3E6E
:101A0E00031D032D0130A4002408A507A11F102DCE
:101A1E00112D022D21082302031D172D200822024D
:101A2E00031C1A2D1B2D212D2008A2022108031C98
:101A3E00A303A30201300310A10CA00CFF3E031D53
:101A4E00222D0130A502031D2D2D2E2D112D260820
:101A5E000319322D332D382DA209A309A20A031919
:101A6E00A30A2308A1002208A00008008312031372
:101A7E00AD01A81F432D442D4B2DA709A809A70A78
:101A8E000319A80AAD01AD0AAA1F4E2D4F2D582DD0
:101A9E00A909AA09A90A0319AA0A0130AB002B0841
:101AAE00AD06AE01AF012708280403195F2D602D86
:101ABE00972DAC01AC0A6E2D01300310A70DA80DA9
:101ACE00FF3E031D642D0130AB002B08AC07A81F91
:101ADE00712D722D632D01300310AE0DAF0DFF3E33
:101AEE00031D732D28082A02031D7F2D27082902A6
:101AFE00031C822D832D8A2D2708A9022808031C7A
:101B0E00AA03AA022E1401300310A80CA70CFF3E44
:101B1E00031D8B2D0130AC02031D962D972D722DBA
:101B2E002D0803199B2D9C2DA12DAE09AF09AE0AD0
:101B3E000319AF0A2F08A8002E08A7000800831269
:101B4E0003133008B2003208DA006430A700003008
:101B5E00A8005A08B200B3013208A9003308AA003F
:101B6E000A128A153D250A128A15831203132708B5
:101B7E00B4003408DD000A30A7000030A8005A086F
:101B8E00B200B3013208A2003308A3006430A000F3
:101B9E000030A1000A128A15E2240A128A15831255
:101BAE0003132108AA002008A9000A128A153D2550
:101BBE000A128A15831203132708B4003408DE00B4
:101BCE005A08B200B3013208A2003308A3006430F1
:101BDE00A0000030A1000A128A15E2240A128A150A
:101BEE00831203132108B6002008B5000A30A000A6
:101BFE000030A1003608A3003508A2000A128A158B
:101C0E00E2240A128A15831203132008B200320846
:101C1E00DF00080083120313AC01AD01732E2C08F4
:101C2E00A6002607C73E840083130008A700840A77
:101C3E000008A8002D08A90029072707AA002808D0
:101C4E000318013EAB002A08840083172B1C831354
:101C5E0020088000840A21088000862E2C08A60009
:101C6E002607C73E840083130008A700840A0008D5
:101C7E00A8002D08A90029072707AA00280803187D
:101C8E00013EAB002A08840083172B1C8313220805
:101C9E008000840A23088000862E2C08A6002607C2
:101CAE00C73E840083130008A700840A0008A8001A
:101CBE002D08A90029072707AA0028080318013EA6
:101CCE00AB002A08840083172B1C83132408800082
:101CDE00840A25088000862E2D08A600A701270855
:101CEE00003A03197B2E862E2608003A0319162E6B
:101CFE00013A0319352E033A0319542E862E01305C
:101D0E00A6002608AD0703302D02031C8F2E902E41
:101D1E00732E0130A6002608AC0710302C02031CCF
:101D2E00992E9A2E142E080083120313AA01A31FB4
:101D3E00A12EA22EAF2EA009A109A209A309A00AC5
:101D4E000319A10A0319A20A0319A30AAA01AA0ACE
:101D5E00A71FB22EB32EC22EA409A509A609A70944
:101D6E00A40A0319A50A0319A60A0319A70A013022
:101D7E00A8002808AA060030AE000030AD000030E2
:101D8E00AC000030AB002308220421042004031908
:101D9E00D12ED22E1F2FA901A90AE22E0130A800A2
:101DAE000310A00DA10DA20DA30DA80BD72E01306F
:101DBE00A8002808A907A31FE52EE62ED52E013070
:101DCE00A8000310AB0DAC0DAD0DAE0DA80BE82E9B
:101DDE0023082702031DFD2E22082602031DFD2EB9
:101DEE0021082502031DFD2E20082402031C002FAE
:101DFE00012F102F2008A4022108031C210FA50279
:101E0E002208031C220FA6022308031C230FA7027D
:101E1E002B1401300310A30CA20CA10CA00CFF3E3E
:101E2E00031D112F0130A902031D1E2F1F2FE62E99
:101E3E002A080319232F242F2F2FAB09AC09AD0924
:101E4E00AE09AB0A0319AC0A0319AD0A0319AE0A9F
:101E5E002E08A3002D08A2002C08A1002B08A0001C
:101E6E00080083120313A40024087F39A20022085D
:101E7E00A50020087F39A2002208A60021087F397C
:101E8E00A2002208A7002108A20007300310A20C0E
:101E9E00FF3E031D4D2F22087F39A3002308A80003
:101EAE00AA01AB01B001B10183120313AC01AD0164
:101EBE00831203133008253E840083130008A2000A
:101ECE002C0A6B2F0310A20CFF3E031D692F220854
:101EDE000139A3002308AA070130AC070318AD0A85
:101EEE000030AD072D08803AFF0080307F02031DC1
:101EFE00822F08302C02031C852F862F5F2F831212
:101F0E0003132A1C8B2F8C2F942F8030A2003008A5
:101F1E00253E8400220883138007AA010130B007F2
:101F2E000318B10A0030B1073108803AFF00803043
:101F3E007F02031DA42F04303002031CA72FA82FED
:101F4E005B2F83120313B201B30183120313AE018D
:101F5E00AF01831203132E08253E8400831300085D
:101F6E00A200320ABC2F0310A20CFF3E031DBA2F93
:101F7E0022080139A3002308AB070130AE0703186E
:101F8E00AF0A0030AF072F08803AFF0080307F0283
:101F9E00031DD32F04302E02031CD62FD72FB02FA4
:101FAE00831203132B1CDC2FDD2FEA2F0130A2002E
:101FBE00320AE32F0310A20DFF3E031DE12F22086C
:101FCE00A3002308A907AB010130B2070318B30A17
:101FDE000030B3073308803AFF0080307F02031DC4
:101FEE00FA2F08303202031CFD2FFE2FAC2F2530A6
:021FFE000800D9
:02400E00F23F7F
:00000001FF
