:020000040000FA
:060000000A128A1110280B
:10000800FE00030E83120313A1000408A2000A08CD
:10001800A3000A128A15102C0A128A1113288313B6
:100028006830FD000930FE00D030FF0060308400E9
:100038000A128A1503220A128A1183179030840043
:100048009E300A128A15C8210A128A118313A03019
:100058008400E9300A128A15C8210A128A11483028
:10006800840060300A128A15C8210A128A11830195
:100078000A128A113F28383083160313860080300D
:100088008700880101308900E0308B00043081004E
:100098000630831203138100313090003C308F000A
:1000A800B0308E000A128A15EC210A128A118030AB
:1000B80083120313B3002530B4000A128A15F12203
:1000C8000A128A11063083120313A4000030A50017
:1000D8000430A6000030A7000230A8000030A900B4
:1000E8006030831603179E001E0883120313AA00AC
:1000F8000A128A1109250A128A118312031307109A
:1001080086138711061387108610531C8C288D2898
:10011800552B402B8312031354145310C601C701E7
:10012800B929B801B80A4608593E84008313000863
:10013800831603179E001E0883120313B9000330A9
:100148000A128A158B220A128A11023083160317A3
:100158009E001E0883120313B8004608553E84000B
:1001680083130008831603179F001F0883120313C5
:10017800B90003300A128A158B220A128A11033039
:10018800831603179E001E0883120313B80046083F
:10019800E53E840083130008831603179F001F0899
:1001A80083120313B90003300A128A158B220A122C
:1001B8008A11CE29B801B80A4608593E840083132B
:1001C8000008831603179E001E0883120313B90044
:1001D80005300A128A158B220A128A1102308316F8
:1001E80003179E001E0883120313B8004608553EE5
:1001F800840083130008831603179F001F088312C7
:100208000313B90005300A128A158B220A128A11C3
:100218000330831603179E001E0883120313B800C9
:100228004608E53E840083130008831603179F00E1
:100238001F0883120313B90005300A128A158B228E
:100248000A128A11CE29B801B80A4608593E840014
:1002580083130008831603179E001E0883120313D6
:10026800B90007300A128A158B220A128A11023045
:10027800831603179E001E0883120313B80046084E
:10028800553E840083130008831603179F001F0838
:1002980083120313B90007300A128A158B220A1237
:1002A8008A110330831603179E001E088312031356
:1002B800B8004608E53E8400831300088316031738
:1002C8009F001F0883120313B90007300A128A150A
:1002D8008B220A128A11CE29B801B80A4608593E5B
:1002E800840083130008831603179E001E088312D8
:1002F8000313B90009300A128A158B220A128A11CF
:100308000230831603179E001E0883120313B800D9
:100318004608553E840083130008831603179F0080
:100328001F0883120313B90009300A128A158B2299
:100338000A128A110330831603179E001E088312BF
:100348000313B8004608E53E8400831300088316AB
:1003580003179F001F0883120313B90009300A12FC
:100368008A158B220A128A11CE2983120313470891
:10037800003A0319C029CE294608003A03199528DE
:10038800013A0319DE28033A03192729013A031908
:100398007029CE29013083120313C6070318C70A30
:1003A8000030C7074708803AFF0080307F02031DEE
:1003B800DF2904304602031CE229E329B929831204
:1003C8000313C201C301831203134208593E840078
:1003D800831380014208553E840080014208E53EAF
:1003E800840080010130C2070318C30A0030C30724
:1003F8004308803AFF0080307F02031D052A04303D
:100408004202031C082A092AE72983120313C001A0
:100418004008AC3E84008313800101308316031723
:100428009E001E0883120313C00705304002031CF8
:100438001E2A1F2A0C2A552B8312031354145310F7
:1004480000300A128A153E220A128A1183120313F7
:100458002408831603179E008312031325088316A6
:1004680003179F001F0D9F0C9E0C1F0D9F0C9E0CC9
:100478001E0883120313B400831603171F08831280
:100488000313B5000030B600B700FF30B8000030E5
:10049800B900EC30BA00FF30BB003C30BC00003083
:1004A800BD000A128A15BC220A128A11831203138C
:1004B800340883160317A000200883120313CC0006
:1004C80001300A128A153E220A128A118312031376
:1004D8002408831603179E00831203132508831626
:1004E80003179F001F0D9F0C9E0C1F0D9F0C9E0C49
:1004F8001E0883120313B400831603171F08831200
:100508000313B5000030B600B700FF30B800003064
:10051800B9000030BA00BB006430BC000030BD0038
:100528000A128A15BC220A128A118312031334088C
:1005380083160317A000200883120313CB0005308D
:100548000A128A153E220A128A11831203132408FA
:10055800831603179E0083120313250883160317B7
:100568009F001F0D9F0C9E0C1F0D9F0C9E0C1E08BC
:1005780083120313B400831603171F08831203138F
:10058800B5000030B600B700FF30B8000030B90041
:100598000030BA00BB006430BC000030BD000A1255
:1005A8008A15BC220A128A1183120313340883168F
:1005B8000317A000200883120313CA00B8014C08CF
:1005C800831603179E001E0883120313B900023016
:1005D8000A128A158B220A128A1183120313B80190
:1005E8004B08831603179E001E0883120313B900D5
:1005F80004300A128A158B220A128A1183120313F5
:10060800B8014A08831603179E001E0883120313B5
:10061800B90006300A128A158B220A128A1183122F
:100628000313C10105304102031C1B2B1C2B1D2B7E
:10063800552B4108AC3E840083138001013083169A
:1006480003179E001E0883120313C107162B0430DC
:10065800831203134D02031C322B332B362B5414F5
:10066800D41453100F304E02031C3B2B3C2B552B3C
:100678005414D4105310552B831603132C087F39A8
:10068800831603179E009F011F08003A03194D2B7C
:100698002B2B1E08083A03198E28023A0319202A20
:1006A8002B2B541C582B592B712B5310CE01541043
:1006B800CD01D41C602B612B632BD410712B6030BF
:1006C800831603179E001E0883120313AC00AC3078
:1006D8000A128A1591250A128A1183120313521CD1
:1006E800762B772BF02C511C7A2B7B2BF02CC50109
:1006F8008D2C4508831603179E001E07603E840054
:10070800831300089F00840A0008A0001F088400C3
:100718008317201C83130008A100840A0008A20084
:10072800210822040319992B9A2B852C8312031371
:100738004508831603179E001E07A03E840001305B
:1007480083138007840A0318800A83120313450859
:10075800831603179E001E07603E840000089F0052
:10076800840A0008A0001F080C3EA10020080318F6
:10077800013E003EA200210884008317221C831337
:100788000008A300230883120313C4004508831636
:1007980003179E001E07A03E8400831300089F00D5
:1007A800840A0008A0008312031345088316031760
:1007B800A1002107603E84000008A200840A000806
:1007C800A30083120313440883160317A400240705
:1007D8002207A50023080318013EA6002508840067
:1007E8008317261C83130008A700840A0008A800A2
:1007F8001F082702A9002008031C200A2802AA00B3
:10080800AA1F072C082C2F2C01309E001E088312CB
:100818000313C4074508831603179E001E07A03E4E
:100828008400013083138000840A00308000033084
:10083800831203134402031C222C232C2F2CC401E3
:100848004508031D282C292C2F2C60300A128A11E8
:1008580058260A128A1183120313450883160317B0
:100868009E001E07603E8400831300089F00840AD0
:100878000008A0001F080C3EA10020080318013E34
:10088800003EA200210884008317221C831300085D
:100898008312031344060319522C532C852C440845
:1008A800831603179E001E0883120313A40045082D
:1008B8000A128A15BD230A128A11831203134408E7
:1008C800831603179E008312031345088316031724
:1008D8009F001F07603E840083130008A000840A5D
:1008E8000008A10020080C3EA20021080318013EC0
:1008F800003EA300220884008317231C83131E08CC
:1009080080000130831603179E001E08831203130C
:10091800C50702304502031C922C932C7D2B5E30B8
:10092800831603179E001E0883120313B4005F305A
:10093800831603179F001F0883120313B50060086E
:100948000C3E83160317A0008312031361080318D3
:10095800013E003E83160317A10020088400831778
:10096800211C83130008A2002207831203136007C7
:1009780083160317A3008312031361080318013EAB
:1009880083160317A400230884008317241C8313E9
:100998000008A500840A0008A6008316031320088F
:1009A80083160317250283120313B6008316031355
:1009B8002108031C210A8316031726028312031336
:1009C800B7005D300A128A15FF250A128A110A1229
:1009D8008A1172270A128A1183120313521CF52CEA
:1009E800F62CFC2C511CF92CFA2CFC2C5210511012
:1009F800521CFF2C002D89285118032D042D8928FD
:100A0800511489280A128A11102883120313B2017B
:100A1800B301D42D3208AB002B072A07AC002C08F1
:100A2800840083130008AD00840A0008AE00330870
:100A3800AF002F072D07B0002E080318013EB100A4
:100A4800300884008317311C831324088000840A2B
:100A5800250880003208AB002B072A07AC002C08B9
:100A6800840083130008AD00840A0008AE00330830
:100A7800AF002F07063E2D07B0002E080318013ED1
:100A8800B100300884008317311C831324088000C8
:100A9800840A25088000E72D3208AB002B072A07B7
:100AA800AC002C08840083130008AD00840A0008F9
:100AB800AE003308AF002F072D07B0002E0803182B
:100AC800013EB100300884008317311C83132608C7
:100AD8008000840A270880003208AB002B072A0709
:100AE800AC002C08840083130008AD00840A0008B9
:100AF800AE003308AF002F07063E2D07B0002E08C2
:100B08000318013EB100300884008317311C831399
:100B180026088000840A27088000E72D3208AB00E9
:100B28002B072A07AC002C08840083130008AD00AB
:100B3800840A0008AE003308AF002F072D07B00065
:100B48002E080318013EB100300884008317311CB9
:100B5800831328088000840A290880003208AB0023
:100B68002B072A07AC002C08840083130008AD006B
:100B7800840A0008AE003308AF002F07063E2D0791
:100B8800B0002E080318013EB10030088400831716
:100B9800311C831328088000840A29088000E72D67
:100BA8003308AB00AC012C08003A0319DC2DE72D03
:100BB8002B08003A03190E2D013A0319502D033A58
:100BC8000319922DE72D0130AB002B08B307033032
:100BD8003302031CF02DF12DD42D0130AB002B086E
:100BE800B20702303202031CFA2DFB2D0C2D2A0805
:100BF800840083130008AB00840A0008AC002B08AB
:100C08000C3EAD002C080318013E003EAE002D0836
:100C1800840083172E1C831380012A088400831301
:100C28000008AB00840A0008AC002B080D3EAD009C
:100C38002C080318013E003EAE002D0884008317DF
:100C48002E1C831380012A08023E840083130008A7
:100C5800AB00840A0008AC002B080C3EAD002C0841
:100C68000318013E003EAE002D08840083172E1C99
:100C780083138001800A2A08023E84008313000837
:100C8800AB00840A0008AC002B080D3EAD002C0810
:100C98000318013E003EAE002D08840083172E1C69
:100CA80083138001800A080083120313B700B80178
:100CB800B6013808A40024073707A50025088400D2
:100CC80083130008A600840A0008A7003608A800B5
:100CD8002807063E2607A90027080318013EAA0090
:100CE8002908840083172A1C83130008AB00840A90
:100CF8000008AC003808AD002D073707AE002E08F5
:100D0800840083130008AF00840A0008B000360886
:100D1800B10031072F07B20030080318013EB300B5
:100D2800320884008317331C83130008B400840A34
:100D38000008B5002C083506031DA42E2B08340620
:100D48000319A72EA82EE92E3808A4002407370770
:100D5800A5002508840083130008A600840A00085B
:100D6800A7003608A8002807063E2607A900270876
:100D78000318013EAA002908840083172A1C83133C
:100D88000008AB00840A0008AC003808AD002D0745
:100D98003707AE002E08840083130008AF00840ACA
:100DA8000008B0003608B10031072F07B20030083C
:100DB8000318013EB300320884008317331C8313E1
:100DC8002B088000840A2C0880000130A400240825
:100DD800B60703303602031CF22EF32E5D2E3808B8
:100DE800A40024073707A5002508840083130008FA
:100DF800A600840A0008A70026080D3EA8002708B8
:100E08000318013E003EA900280884008317291C06
:100E180083130008AA003808AB002B073707AC007B
:100E28002C08840083130008AD00840A0008AE0073
:100E38002D080C3EAF002E080318013E003EB000FE
:100E48002F0884008317301C831300082A0603190F
:100E58002E2F2F2F672F3808A40024073707A50047
:100E68002508840083130008A600840A0008A70048
:100E780026080D3EA80027080318013E003EA900D9
:100E8800280884008317291C83130008AA0038083F
:100E9800AB002B073707AC002C088400831300082D
:100EA800AD00840A0008AE002D080C3EAF002E08E5
:100EB8000318013E003EB0002F0884008317301C41
:100EC80083132A0880000130A4002408B8070230E0
:100ED8003802031C702F712F5C2E0800C02F5D088C
:100EE8000319772F782FD52FA401A5015D08013E9E
:100EF80084000A128A11EE270A128A11AB002B0805
:100F0800A60001300A128A1512220A128A11D52F58
:100F18005E08031D902F912F962F5D080319952FBA
:100F2800962FD52FA401A40AA5015E08013E8400CE
:100F38000A128A11EE270A128A11AB002B08A600A2
:100F480000300A128A1512220A128A11D52FA4011A
:100F5800A501A50A5F08013E84000A128A11EE273E
:100F68000A128A11AB002B08A60000300A128A1553
:100F780012220A128A11D52F831203135008AB00CC
:100F8800AC012C08003A0319CA2FD52F2B08003AB8
:100F98000319732F013A03198C2F033A0319AB2F46
:100FA800D52F033083120313A4000030A500500886
:100FB800013EA600003003180130A7000A128A1566
:100FC80068240A128A11831203132408AB002B0821
:100FD800D000080007308A000408840A8207003419
:100FE8003F3406345B344F3466346D347D34073413
:080FF8007F346F340034023431
:1013900064008001840A0406031900340406C92984
:1013A000D7340034C9340034BB34003490340134B1
:1013B000831203138C1EDD29DE29D8298C121A080A
:1013C000080083120313A4000C1EE729E829E4296E
:1013D0000C12240899000800E330831603138500DB
:1013E000831203139F018030831603139F0019306B
:1013F00083120313A400A40BFB29FE2908007E0816
:101400008A007F0882000A128A15FF210A128A15B3
:101410008000840A04087D0603190034FF0A0319BA
:10142000FE0A032A83120313A700270C031C0511CD
:1014300003180515240C031C851103188515250CAC
:10144000031C0512031805162608880008008312DD
:101450000313A700A601271C2E2A2F2A332A2408AB
:10146000A5002508A6070310A40D0310A70C270844
:10147000031D3B2A3C2A2B2A26080800831203134B
:10148000A7002708A60002300310A60DFF3E031D8B
:10149000442A0310260D01389F00043083120313E1
:1014A000A600A60B512A0000831203131F151F1953
:1014B0005A2A5B2A572A1E08A500831603131E0802
:1014C00083120313A400080083120313A801A901C7
:1014D000241C6B2A6C2A722A2608A8070318A90A5A
:1014E0002708A90701300310A60DA70DFF3E031D15
:1014F000732A01300310A50CA40CFF3E031D7A2AA9
:1015000024082504031D852A862A682A2908A5009F
:101510002808A400080083120313BD003808BA008D
:101520003A08A4003908BB003B08A5003D080A1290
:101530008A1538270A128A1583120313BC003C0847
:10154000BE00BF013E088400831300080A128A15FA
:10155000E1210A128A15013083120313BA003A08F6
:10156000BE070130BA003A08BF0705303F02031C2E
:10157000BA2ABB2AA22A08008312031336083802AB
:10158000AB003708031C370A3902AC0036083402B6
:10159000A4003708031C370A3502A5003A083C02AC
:1015A000A6003B08031C3B0A3D02A7000A128A154D
:1015B00064220A128A15831203132508AE00240838
:1015C000AD000A128A1528250A128A158312031300
:1015D0003A082B07B4003B0803183B0A2C07B50058
:1015E0000800831603130713981683120313981722
:1015F00018163308B5003408B6000030B61BFF30AB
:10160000B700B80006300310B50DB60DB70DB80D14
:10161000FF3E031D032B3808A7003708A600360835
:10162000A5003508A4000130AB00E830AA0048301E
:10163000A9000030A8000A128A159B260A128A15F2
:10164000831203132408FF3E8316031399008B179C
:101650000B178C16080083120313A8002808240710
:10166000A6002608033E84007F3083130005A700F0
:101670002908270680392706A90029087F39A600EE
:10168000A7012608AA002708AB002B08A7002A08F4
:10169000A6000730FF000310A60DA70DFF0B4B2B74
:1016A00080302605AA0000302705AB002808240753
:1016B000A6002608023E84007F300005A700290806
:1016C000270680392706A90029087F39A6002A089D
:1016D0002604AA002B08AB002B08A5002A08A400AA
:1016E000080001307102F43003197002031C792BD9
:1016F0007A2B8A2B75087207F6007608840083130C
:101700000008013EF70075087207F80078088400A9
:101710007708800005307102DC3003197002031C69
:10172000922B932BA32B75087307F6007608840081
:1017300083130008013EF70075087307F800780866
:101740008400770880000B307102B83003197002F2
:10175000031CAB2BAC2BBC2B75087407F60076086A
:10176000840083130008013EF70075087407F80031
:101770007808840077088000080083120313A7000C
:10178000FF2B8710871107140F2C07108711871460
:101790000F2C0710871087150F2C2408A500A60111
:1017A0002608003A0319D52B0F2C2508003A0319F7
:1017B000C12B013A0319C52B033A0319C92B0F2C6E
:1017C0008610061386170F2C8613061386140F2C0B
:1017D0008613861006170F2C2408A500A6012608DC
:1017E000003A0319F42B0F2C2508003A0319E02BBB
:1017F000013A0319E42B033A0319E82B0F2C2708AD
:10180000A500A6012608003A0319072C0F2C25086D
:10181000003A0319CD2B013A0319EC2B0F2C0800C9
:101820008C1E132C142C1D2C5318172C182C1D2C0B
:1018300053145410D410CE01CD018C1E202C212C19
:10184000382C531C242C252C382C0A128A15D8210C
:101850000A128A1583120313A0004E08AC3E8400BE
:101860002008831380000130A0002008CE07CD019E
:101870000B1D3B2C3C2C462C0B110A128A15C32441
:101880000A128A1506308312031381000C1C492C9E
:101890004A2C5F2C0C100130A0002008CF07143018
:1018A0004F02031C542C552C5B2C5214CF010130D9
:1018B000A0002008CD073C308F00B0308E002308F8
:1018C0008A0022088400210E8300FE0E7E0E09008D
:1018D00083120313AA01A71F6E2C6F2C762CA60966
:1018E000A709A60A0319A70AAA01AA0AA51F792C03
:1018F0007A2C7F2CA409A509A40A0319A50A240897
:1019000025040319842C852CB42CA901A90A932C35
:1019100001300310A40DA50DFF3E031D892C0130DD
:10192000A8002808A907A51F962C972C882C250805
:101930002702031D9D2C24082602031CA02CA12C89
:10194000A72C2408A6022508031CA703A702013020
:101950000310A50CA40CFF3E031DA82C0130A90206
:10196000031DB32CB42C972C2A080319B82CB92CBE
:10197000BE2CA609A709A60A0319A70A2708A500CD
:101980002608A400080000308312031386190130D2
:1019900083160313A800003083120313061A0130C4
:1019A00083160313A900003083120313861A013033
:1019B00083160313AA00003083120313851A013023
:1019C00083160313AB00FD017D08A83E840083133A
:1019D0000008031DEC2CED2CF62C013083120313B0
:1019E000C8070318C90A0030C9071D2D7D08A83E85
:1019F000840000080319FD2CFE2C1D2D83120313F7
:101A00004908F1004808F0005930F9007908F2005F
:101A10005530FA007A08F300E530FB007B08F4004B
:101A20007D08FC007C08F5000A128A1571230A1251
:101A30008A1583120313C801C9010130F90079081E
:101A4000FD0704307D02031C262D272DE42C080001
:101A500083120313B101AC1F2E2D2F2D362DAB0990
:101A6000AC09AB0A0319AC0AB101B10AAE1F392D9A
:101A70003A2D432DAD09AE09AD0A0319AE0A013066
:101A8000AF002F08B106B201B3012B082C040319D3
:101A90004A2D4B2D822DB001B00A592D0130031073
:101AA000AB0DAC0DFF3E031D4F2D0130AF002F08D5
:101AB000B007AC1F5C2D5D2D4E2D01300310B20D13
:101AC000B30DFF3E031D5E2D2C082E02031D6A2D53
:101AD0002B082D02031C6D2D6E2D752D2B08AD02CC
:101AE0002C08031CAE03AE02321401300310AC0C00
:101AF000AB0CFF3E031D762D0130B002031D812D7E
:101B0000822D5D2D31080319862D872D8C2DB2096C
:101B1000B309B20A0319B30A3308AC003208AB00A8
:101B2000080083120313B700B90103303902031C04
:101B30009A2D9B2D9C2DFE2D0530AD002D08A40067
:101B400039080A128A1527220A128A1583120313EA
:101B5000AE002E08B80038083707AD002D08840005
:101B600083130008AE0003102E0C0F39AF002F08AE
:101B7000B50038083707AD002D0884000008AE0016
:101B800005300310AE0CFF3E031DC12D2E08033996
:101B9000FF3EAF002F08B6003708AD002D08A400A7
:101BA00038080A128A152B230A128A158312031386
:101BB0003508AE002E072C07AF002F0884008313D2
:101BC0000008B000840A0008B1003608B2003207ED
:101BD000063E3007B30031080318013EB400330855
:101BE00084008317341C831324088000840A25088A
:101BF00080000130AD002D08B907952D0800831233
:101C00000313BB00182E0A3083120313AB000030FD
:101C1000AC003708AE003608AD000A128A15282538
:101C20000A128A15831203132C08B7002B08B6007A
:101C3000E830AB000330AC003708AE003608AD002A
:101C40000A128A1528250A128A15831203132C08F2
:101C5000803AFF0080307F02031D302E01302B02BE
:101C60000318332E342E032E643083120313AB007B
:101C70000030AC003708AE003608AD000A128A15F5
:101C800028250A128A15831203132B08B8003B0873
:101C900084003808831380000A30AB000030AC00A9
:101CA0003708A7003608A6006430A4000030A5005D
:101CB0000A128A1568240A128A158312031325084A
:101CC000AE002408AD000A128A1528250A128A15CA
:101CD000831203132B08B8003408840038088313D8
:101CE00080003708A7003608A6006430A400003042
:101CF000A5000A128A1568240A128A158312031392
:101D00002508BA002408B9000A30A4000030A50054
:101D10003A08A7003908A6000A128A1568240A1290
:101D20008A15831203132408B80035088400380884
:101D300083138000080083120313AE01A71FA12E96
:101D4000A22EAF2EA409A509A609A709A40A031962
:101D5000A50A0319A60A0319A70AAE01AE0AAB1F0A
:101D6000B22EB32EC22EA809A909AA09AB09A80A46
:101D70000319A90A0319AA0A0319AB0A0130AC0016
:101D80002C08AE060030B2000030B1000030B000C8
:101D90000030AF0027082604250424040319D12E9F
:101DA000D22E1F2FAD01AD0AE22E0130AC00031080
:101DB000A40DA50DA60DA70DAC0BD72E0130AC00C0
:101DC0002C08AD07A71FE52EE62ED52E0130AC005E
:101DD0000310AF0DB00DB10DB20DAC0BE82E2708FE
:101DE0002B02031DFD2E26082A02031DFD2E2508A9
:101DF0002902031DFD2E24082802031C002F012F99
:101E0000102F2408A8022508031C250FA902260864
:101E1000031C260FAA022708031C270FAB022F144E
:101E200001300310A70CA60CA50CA40CFF3E031D4B
:101E3000112F0130AD02031D1E2F1F2FE62E2E087D
:101E40000319232F242F2F2FAF09B009B109B2098D
:101E5000AF0A0319B00A0319B10A0319B20A32080A
:101E6000A7003108A6003008A5002F08A40008002C
:101E700083120313A80028087F39A6002608A900AA
:101E800024087F39A6002608AA0025087F39A60065
:101E90002608AB002508A60007300310A60CFF3E5D
:101EA000031D4D2F26087F39A7002708AC00AE017F
:101EB000AF01B401B50183120313B001B101831264
:101EC00003133408293E840083130008A600300A57
:101ED0006B2F0310A60CFF3E031D692F2608013946
:101EE000A7002708AE070130B0070318B10A003079
:101EF000B1073108803AFF0080307F02031D822F36
:101F000008303002031C852F862F5F2F83120313A6
:101F10002E1C8B2F8C2F942F8030A6003408293E46
:101F20008400260883138007AE010130B40703182C
:101F3000B50A0030B5073508803AFF0080307F02CF
:101F4000031DA42F04303402031CA72FA82F5B2FDE
:101F500083120313B601B70183120313B201B30155
:101F6000831203133208293E840083130008A6005D
:101F7000360ABC2F0310A60CFF3E031DBA2F2608FD
:101F80000139A7002708AF070130B2070318B30AC9
:101F90000030B3073308803AFF0080307F02031D12
:101FA000D32F04303202031CD62FD72FB02F831229
:101FB00003132F1CDC2FDD2FEA2F0130A600360A79
:101FC000E32F0310A60DFF3E031DE12F2608A700F7
:101FD0002708AD07AF010130B6070318B70A003074
:101FE000B7073708803AFF0080307F02031DFA2FC1
:101FF00008303602031CFD2FFE2FAC2F29300800BD
:02400E00F23F7F
:00000001FF
