:020000040000FA
:060000000A128A110E280D
:10000800FE00030EF1000408F2000A08F3000A12C9
:100018008A153F2E0A128A1111288313E730FD0032
:100028000C30FE008630FF00C73084000A128A15A3
:100038004B240A128A110A128A11FC270A128A1101
:10004800E400831790308400F0300A128A151A24CD
:100058000A128A111030840058300A128A151A249C
:100068000A128A118313A0308400C7300A128A1535
:100078001A240A128A114A30840064300A128A1536
:100088001A240A128A11F701F801F90183010A12E8
:100098008A114E281F30831603138600803087008C
:1000A80088018901E0308B0004308100063083121A
:1000B80003138100313090000A128A1536240A127F
:1000C8008A11803083120313AE002530AF000A1264
:1000D8008A11C2270A128A11023083120313A00060
:1000E8000030A1000230A2000030A3000230A400BA
:1000F8000030A5000A128A1576270A128A113C30A8
:10010800831203138F00B0308E0083120317E101AE
:1001180083120313DB01831203175D140313621C9C
:1001280096289728C328AE2863146210C328043081
:100138005802031CA028A128A4286314E314621001
:100148000F305902031CA928AA28C3286314E310F6
:100158006210C3288316031321087F3983120313FF
:10016800BA00BB013B08003A0319BB289B283A0890
:10017800083A03199828023A031998289B28631CFF
:10018800C628C7285E296210D9016310D801E31C6C
:10019800CE28CF28D128E3105E29A0300A128A1170
:1001A80094250A128A1183120317E30103306302AC
:1001B800031CDF28E028E1285E2905308312031399
:1001C800BA003A08F4008312031763080A128A1562
:1001D8006F240A128A1183120313BB003B0883128F
:1001E8000317E2006208A03E84008313000883120C
:1001F8000313BA003A0883120317DE005E0883125D
:100208000313BA0003103A0C0F39BB003B088312E2
:100218000317D8006208A03E840000088312031365
:10022800BA003A0883120317DE005E08831203132C
:10023800BA0005300310BA0CFF3E031D1E293A0808
:100248000339FF3EBB003B0883120317D90062083D
:100258000A128A15A4250A128A118312031758084C
:1002680083120313BA003A07C73E840083130008B9
:10027800BB00840A0008BC008312031759088312C4
:100288000313BD003D073B07BE003C080318013EB1
:10029800BF003E08840083173F1C83137408800046
:1002A800840A750880000130BA003A0883120317DF
:1002B800E307DA28831203175D1C63296429552A8A
:1002C800E80110306802031C6A296B296C29262A68
:1002D800E90103306902031C7229732974291D2A54
:1002E800680883120313BA003A07C73E84008313D1
:1002F8000008BB00840A0008BC00831203176908C1
:1003080083120313BD003D073B07BE003C080318DA
:10031800013EBF003E08840083173F1C831300087A
:10032800C000840A0008C1008312031768088312FA
:100338000313C2004207C73E840083130008C300AA
:10034800840A0008C4008312031769088312031380
:10035800C5004507063E4307C60044080318013E8A
:10036800C700460884008317471C83130008C80089
:10037800840A0008C90041084906031DC529400828
:1003880048060319C829C929162A831203176808B9
:1003980083120313BA003A07C73E84008313000888
:1003A800BB00840A0008BC00831203176908831283
:1003B8000313BD003D073B07BE003C080318013E80
:1003C800BF003E08840083173F1C83130008C00049
:1003D800840A0008C10083120317680883120313F4
:1003E800C2004207C73E840083130008C300840A82
:1003F8000008C40083120317690883120313C50099
:100408004507063E4307C60044080318013EC700D7
:10041800460884008317471C831340088000840A19
:10042800410880000130BA003A0883120317E9072F
:100438006D29013083120313BA003A088312031797
:10044800E807652903136408013E0F39BA003A0822
:10045800E4006408BA003A07C73E84008313000822
:10046800BB00840A0008BC003B08063EBD003C08EF
:100478000318013E003EBE003D08840083173E1C61
:1004880083130008BF00840A0008C0003F08400426
:10049800031D4F2A502A552A6408031D542A552A39
:1004A800262A0313611C592A5A2A1B2B601C5D2A11
:1004B8005E2A1B2B013083120317DF070318E00A9B
:1004C8000030E0075D10831203136408BA003A078E
:1004D800C73E840083130008BB00840A0008BC00E0
:1004E80083120317610883120313BD003D07063EFC
:1004F8003B07BE003C080318013EBF003E088400CD
:1005080083173F1C83130008C000840A0008C10039
:10051800831203175F08831203134002C200831279
:1005280003176008031C600A831203134102C30007
:10053800C31F9F2AA02AA32A831203175D1402301F
:10054800831203176106031DAA2AAB2AE12A831224
:1005580003136408BA003A07C73E840083130008EF
:10056800BB00840A0008BC003B080A3EBD003C08EA
:100578000318013E003EBE003D08840083173E1C60
:1005880083130008BF00840A0008C0008312031701
:100598006008803A83120313C1004008803A410280
:1005A800031DDA2A3F08831203175F02031CDD2AA2
:1005B800DE2AE12A831203175D14831203136408E9
:1005C800BA003A07C73E840083130008BB00840AB8
:1005D8000008BC0083120317610883120313BD00CF
:1005E8003D07063E3B07BE003C080318013EBF001E
:1005F8003E08840083173F1C83130008C000840A48
:100608000008C100831203175F0883120313400216
:10061800AD00831203176008031C600A83120313DA
:100628004102AE000A128A150B270A128A11831298
:1006380003135B085C060319222B232B9F2B5B08F3
:10064800BA003A08DC00892B5D0803192C2B2D2BE6
:100658009F2BF401F5015D08013E84000A128A15FA
:1006680000200A128A11BA003A08F60001300A126C
:100678008A155A240A128A119F2B5E08031D452BDE
:10068800462B4B2B5D0803194A2B4B2B9F2BF40150
:10069800F40AF5015E08013E84000A128A1500205A
:1006A8000A128A11BA003A08F60000300A128A15AE
:1006B8005A240A128A119F2BF401F501F50A5F08E2
:1006C800013E84000A128A1500200A128A11BA0013
:1006D8003A08F60000300A128A155A240A128A11BA
:1006E8009F2BF401F5016408013E84000A128A1563
:1006F80000200A128A11BA003A08F60001300A12DC
:100708008A155A240A128A119F2B5B08BA00BB016A
:100718003B08003A0319912B9F2B3A08003A03191A
:10072800282B013A0319412B033A0319602B013A8C
:100738000319752B9F2B033083120313A00000307D
:10074800A1005B08013EA200003003180130A3009D
:100758000A128A15E4250A128A1183120313200843
:10076800BA003A08DB00611CBA2BBB2BC12B601CFA
:10077800BE2BBF2BC12B61106010611CC42BC52B75
:10078800CA2B6018C82BC92BCA2B60147F3083165C
:100798000313210583120313BA0008303A06031D18
:1007A800D62BD72BA52C83120317EA01EB016B0874
:1007B800803AFF0080307F02031DE42B04306A0278
:1007C800031CE72BE82BE92B652C83120313B201DA
:1007D800B20A831203176A08523E84008313000882
:1007E80083120313BA003A08B3000130BB00831226
:1007F80003176A08013E013E83120313052C0310F8
:10080800BB0DFF3E031D032C3B080A128A15102559
:100818000A128A11103083120313BA003A08B20080
:10082800831203176A084E3E84008313000883125C
:100838000313BB003B08B3000130BC00831203174D
:100848006A08013E013E831203132C2C0310BC0DD1
:10085800FF3E031D2A2C3C080A128A1510250A128D
:100868008A11113083120313BA003A08B2008312B6
:1008780003176A084A3E840083130008831203138F
:10088800BB003B08B3000130BC00831203176A08A1
:10089800013E013E83120313532C0310BC0DFF3E8F
:1008A800031D512C3C080A128A1510250A128A11B8
:1008B800013083120317EA070318EB0A0030EB072D
:1008C800DB2B83120317E601E7016708803AFF0074
:1008D80080307F02031D722C04306602031C752CC5
:1008E800762C772C8D2C831203176608523E8400D1
:1008F8008313800166084E3E8400800166084A3EE4
:10090800840080010130E6070318E70A0030E70792
:10091800692C83120317E40105306402031C952C2B
:10092800962C972CA52C6408A03E84008313800184
:10093800013083120313BA003A0883120317E4073D
:10094800902C7F3083160313210583120313BA00FA
:100958000A303A06031DB12CB22C922800300A1234
:100968008A15A6240A128A11740883120313BA007E
:100978007508BB003B0DBB0CBA0C3B0DBB0CBA0C8D
:100988003A08AD003B08AE000030AF00B000FF30C1
:10099800B1000030B200EC30B300FF30B4003C309E
:1009A800B5000030B6000A128A156F250A128A119E
:1009B800831203132D08BC003C0883120317DA00C6
:1009C80001300A128A15A6240A128A1174088312A1
:1009D8000313BA007508BB003B0DBB0CBA0C3B0DEA
:1009E800BB0CBA0C3A08AD003B08AE000030AF00B3
:1009F800B000FF30B1000030B2000030B300B400E6
:100A08006430B5000030B6000A128A156F250A1244
:100A18008A11831203132D08BC003C0883120317A4
:100A2800DB0005300A128A15A6240A128A117408F6
:100A380083120313BA007508BB003B0DBB0CBA0C3C
:100A48003B0DBB0CBA0C3A08AD003B08AE000030B9
:100A5800AF00B000FF30B1000030B2000030B3008A
:100A6800B4006430B5000030B6000A128A156F254C
:100A78000A128A11831203132D08BC003C08831242
:100A88000317DC0083120313B201831203175A08F9
:100A980083120313BA003A08B30002300A128A1507
:100AA80010250A128A1183120313B2018312031745
:100AB8005B0883120313BA003A08B30004300A1221
:100AC8008A1510250A128A1183120313B2018312A0
:100AD80003175C0883120313BA003A08B300063000
:100AE8000A128A1510250A128A1183120317E501C2
:100AF80005306502031C812D822D832D92286508FF
:100B0800A03E840083138001013083120313BA00CE
:100B18003A0883120317E5077C2D0A128A110E285A
:100B280083120313AE00A801A501A901A601A7011C
:100B3800AF01B00183120313AA01AB01831203139F
:100B48002F082E07A1002108840083130008A200A3
:100B58002A0AB02D0310A20CFF3E031DAE2D220859
:100B68000139A3002308A5070130AA070318AB0A17
:100B78000030AB072B08803AFF0080307F02031D4E
:100B8800C72D08302A02031CCA2DCB2DA22D831293
:100B98000313251CD02DD12DD72DA801A80A2F0865
:100BA800A1002108A9000130AF070318B00A0030DE
:100BB800B0073008803AFF0080307F02031DE62D21
:100BC80005302F02031CE92DEA2D9E2D83120313F5
:100BD800B101B20183120313AC01AD0183120313F7
:100BE8002C082E07A1002108840083130008A20006
:100BF800310A002E0310A20CFF3E031DFE2D220811
:100C08000139A3002308A6070130AC070318AD0A71
:100C18000030AD072D08803AFF0080307F02031DA9
:100C2800172E04302C02031C1A2E1B2EF22D8312B1
:100C38000313261C202E212E272EA801A80A3108CE
:100C4800A1002108A7000130B1070318B20A00303B
:100C5800B2073208803AFF0080307F02031D362E2B
:100C680008303102031C392E3A2EEE2D831203135D
:100C780028080319402E412E5C2E2708A1002108C0
:100C8800F40029082E07A200220884008313000814
:100C98000A128A153E250A128A1183120313A30029
:100CA80029082E07A4002408840023088313800041
:100CB800080083120313A20022087F39A00020082D
:100CC800A30074087F39A0002008A40075087F39A4
:100CD800A0002008A5007508A00007300310A00C8C
:100CE800FF3E031D722E20087F39A1002108A600AF
:100CF800A801A901AE01AF0183120313AA01AB0138
:100D0800831203132E08233E840083130008A000D7
:100D18002A0A902E0310A00CFF3E031D8E2E2008D9
:100D28000139A1002108A8070130AA070318AB0A56
:100D38000030AB072B08803AFF0080307F02031D8C
:100D4800A72E08302A02031CAA2EAB2E842E83124B
:100D58000313281CB02EB12EB92E8030A0002E0807
:100D6800233E8400200883138007A8010130AE07C2
:100D78000318AF0A0030AF072F08803AFF00803011
:100D88007F02031DC92E04302E02031CCC2ECD2E4B
:100D9800802E83120313B001B10183120313AC0137
:100DA800AD01831203132C08233E8400831300082B
:100DB800A000300AE12E0310A00CFF3E031DDF2E19
:100DC80020080139A1002108A9070130AC07031840
:100DD800AD0A0030AD072D08803AFF0080307F0251
:100DE800031DF82E04302C02031CFB2EFC2ED52EDE
:100DF80083120313291C012F022F0F2F0130A0008B
:100E0800300A082F0310A00DFF3E031D062F2008EF
:100E1800A1002108A707A9010130B0070318B10AEA
:100E28000030B1073108803AFF0080307F02031D8F
:100E38001F2F08303002031C222F232FD12E2330DE
:100E4800080083120313A901A31F2B2F2C2F392F5E
:100E5800A009A109A209A309A00A0319A10A031953
:100E6800A20A0319A30AA901A90AA71F3C2F3D2F0B
:100E78004C2FA409A509A609A709A40A0319A50ABC
:100E88000319A60A0319A70A0130F4007408A90671
:100E98000030AD000030AC000030AB000030AA00DC
:100EA800230822042104200403195B2F5C2FA92F97
:100EB800A801A80A6C2F0130F4000310A00DA10DA1
:100EC800A20DA30DF40B612F0130F4007408A807DC
:100ED800A31F6F2F702F5F2F0130F4000310AA0D8E
:100EE800AB0DAC0DAD0DF40B722F23082702031DBB
:100EF800872F22082602031D872F21082502031D9C
:100F0800872F20082402031C8A2F8B2F9A2F200852
:100F1800A4022108031C210FA5022208031C220F8A
:100F2800A6022308031C230FA7022A14013003106A
:100F3800A30CA20CA10CA00CFF3E031D9B2F01309B
:100F4800A802031DA82FA92F702F29080319AD2F58
:100F5800AE2FB92FAA09AB09AC09AD09AA0A031922
:100F6800AB0A0319AC0A0319AD0A2D08A3002C0813
:100F7800A2002B08A1002A08A0000800831603136A
:100F88000713981683120313981718162E08B00023
:100F98002F08B1000030B11BFF30B200B30006309B
:100FA8000310B00DB10DB20DB30DFF3E031DD42FCC
:100FB8003308A3003208A2003108A1003008A000BD
:100FC8000130A700E830A6004830A5000030A40092
:100FD8000A128A1125270A128A118312031320087C
:100FE800FF3E8316031399008B170B178C16080006
:020FF8000F34B4
:1010000008308A000408840A820700343F3406341A
:101010005B344F3466346D347D3407347F346F3441
:0210200000349A
:1018340064008001840A04060319003404061B2C86
:10184400831203138C1E272C282C222C8C121A088A
:101854000800F400831203130C1E312C322C2C2CA0
:101864000C12740899000800C33083160313850012
:10187400831203139F018030831603139F001A30D1
:10188400F400F40B432C000008007E088A007F0853
:1018940082000A128A1547240A128A158000840AD3
:1018A40004087D0603190034FF0A0319FE0A4B2CB1
:1018B40083120313A000200C031C05110318051543
:1018C400740C031C851103188515750C031C051273
:1018D4000318051676088800080083120313A10074
:1018E400A001211C762C772C7B2C7408F50075083C
:1018F400A0070310F40D0310A10C2108031D832C71
:10190400842C732C20080800BB340034AF3400341A
:10191400E4340134D8340134CC340134C0340134D7
:10192400B4340134A83401349C3401349034013487
:101934004C34013440340134343401342834013417
:101944001C3401341034013483120313A000200822
:10195400F60002300310F60DFF3E031DAC2C0310FD
:10196400760D01389F000530F600F60BB72C831274
:1019740003131F151F19BF2CC02CBC2C1E08F50007
:10198400831603131E08F400080083120313A00037
:10199400A101DD2C21082007F5007508840000084A
:1019A4000A128A152B240A128A150130F5007508CB
:1019B40083120313A10721082007F500750884008A
:1019C40083130008031DE72CE82CCC2C0800F40139
:1019D400F50183120313201CF02CF12CF72C2208A0
:1019E400F4070318F50A2308F50701300310A20DC4
:1019F400A30DFF3E031DF82C01300310A10CA00C15
:101A0400FF3E031DFF2C20082104031D0A2D0B2D6E
:101A1400EB2C7508A1007408A000080083120313BE
:101A2400B7003208B4003408F4003308B5003508B0
:101A3400F50037080A128A115D260A128A158312E4
:101A44000313B6003608B800B90138080A128A151B
:101A5400C7240A128A15013083120313B400340810
:101A6400B8070130B4003408B90705303902031C43
:101A74003C2D3D2D272D080083120313A0000130B7
:101A8400F500740A472D0310F50DFF3E031D452D87
:101A94007508200503194F2D502D5F2D0130F500D9
:101AA400740A562D0310F50DFF3E031D542D7508C1
:101AB400F6007608A00420086E2D0130F500740AA3
:101AC400652D0310F50DFF3E031D632D7508FF3AC8
:101AD400F6007608A00520080800831203132F08D7
:101AE4003102A4003008031C300A3202A5002F087A
:101AF4002D02A0003008031C300A2E02A100330876
:101B04003502A2003408031C340A3602A3000A1268
:101B14008A15E9240A128A15831203132108A700DF
:101B24002008A6000A128A15A2260A128A15831210
:101B3400031333082407AD0034080318340A2507B7
:101B4400AE00080083120313A2002208A33E8400FF
:101B54007F3083130005A000230820068039200667
:101B6400A30023087F39A000A1012008A4002108B4
:101B7400A5002508A1002408A0000730FF000310D9
:101B8400A00DA10DFF0BC12D80302005A400003055
:101B94002105A5002208A23E84007F300005A00094
:101BA4002308200680392006A30023087F39A000DB
:101BB40024082004A4002508A5002508F50024080D
:101BC400F4000800F60183120313A31FEA2DEB2D82
:101BD400F22DA209A309A20A0319A30AF601F60A1F
:101BE400A11FF52DF62DFB2DA009A109A00A0319AB
:101BF400A10A200821040319002E012E302EF5011C
:101C0400F50A0F2E01300310A00DA10DFF3E031D98
:101C1400052E0130F4007408F507A11F122E132EAF
:101C2400042E21082302031D192E20082202031C5E
:101C34001C2E1D2E232E2008A2022108031CA30300
:101C4400A30201300310A10CA00CFF3E031D242E9F
:101C54000130F502031D2F2E302E132E76080319A2
:101C6400342E352E3A2EA209A309A20A0319A30A77
:101C74002308A1002208A0000800831203138C1E6D
:101C8400442E452E4E2E6218482E492E4E2E621496
:101C94006310E310D901D8018C1E512E522E692EE7
:101CA400621C552E562E692E0A128A1522240A12F7
:101CB4008A15F000831203135908A03E84007008AB
:101CC400831380000130F0007008D907D8010B1D80
:101CD4006C2E6D2E802E0B118619712E722E782E7D
:101CE4000130D6070318D70A0030D707861D7B2E8C
:101CF4007C2E7E2ED601D701063081000C1C832E4B
:101D0400842E992E0C100130F0007008F90714305D
:101D14007902031C8E2E8F2E952E6114F901013049
:101D2400F0007008D8073C308F00B0308E00730884
:101D34008A0072088400710E8300FE0E7E0E090074
:101D440083120313AA01A51FA82EA92EB02EA4093D
:101D5400A509A40A0319A50AAA01AA0AA71FB32E52
:101D6400B42EBD2EA609A709A60A0319A70A013095
:101D7400A8002808AA06AB01AC012408250403190D
:101D8400C42EC52EFC2EA901A90AD32E013003109E
:101D9400A40DA50DFF3E031DC92E0130A80028087F
:101DA400A907A51FD62ED72EC82E01300310AB0DC0
:101DB400AC0DFF3E031DD82E25082702031DE42E7B
:101DC40024082602031CE72EE82EEF2E2408A60280
:101DD4002508031CA703A7022B1401300310A50C2C
:101DE400A40CFF3E031DF02E0130A902031DFB2E9F
:101DF400FC2ED72E2A080319002F012F062FAB091A
:101E0400AC09AB0A0319AC0A2C08A5002B08A400E2
:101E14000800831203132D08AF002F08DA00643082
:101E2400A4000030A5005A08AF00B0012F08A60096
:101E34003008A7000A128A15A2260A128A158312EC
:101E440003132408B1003108DD000A30A400003077
:101E5400A5005A08AF00B0012F08A2003008A30063
:101E64006430A0000030A1000A128A15E4250A1289
:101E74008A15831203132108A7002008A6000A125A
:101E84008A15A2260A128A15831203132408B100A4
:101E94003108DE005A08AF00B0012F08A200300854
:101EA400A3006430A0000030A1000A128A15E425C2
:101EB4000A128A15831203132108B3002008B20002
:101EC4000A30A0000030A1003308A3003208A200A9
:101ED4000A128A15E4250A128A15831203132008AC
:101EE400AF002F08DF000800F401F501D62F7408B5
:101EF400A6002607C73E840083130008A700840AAF
:101F04000008A8007508A90029072707AA002808BF
:101F14000318013EAB002A08840083172B1C83138B
:101F240020088000840A21088000EB2F7408A60092
:101F34002607C73E840083130008A700840A00080C
:101F4400A8007508A90029072707AA00280803186C
:101F5400013EAB002A08840083172B1C831322083C
:101F64008000840A23088000EB2F7408A60026074B
:101F7400C73E840083130008A700840A0008A80051
:101F84007508A90029072707AA0028080318013E95
:101F9400AB002A08840083172B1C831324088000B9
:101FA400840A25088000EB2F750883120313A6000A
:101FB400A7012708003A0319E02FEB2F2608003A5F
:101FC4000319792F013A0319982F033A0319B72FEC
:101FD400EB2F0130A6002608F50703307502031C19
:101FE400F42FF52FD62F0130A6002608F407103061
:0C1FF4007402031CFE2FFF2F772F080043
:02400E00F23F7F
:00000001FF
