:020000040000FA
:060000000A128A1110280B
:10000800FE00030E83120313A1000408A2000A08CD
:10001800A3000A128A15C52D0A128A111328831300
:10002800ED30FD000B30FE00FB30FF00DD308400BA
:100038000A128A1522240A128A1183179030840022
:10004800D6300A128A15DF230A128A118313A030C8
:100058008400DD300A128A15DF230A128A114A3019
:10006800840065300A128A15DF230A128A11830177
:100078000A128A113F281F30831603138600803026
:100088008700880101308900E0308B00043081004E
:100098000630831203138100313090003C308F000A
:1000A800B0308E00D10183160317D701D8010A1288
:1000B8008A150B240A128A11803083120313B300A5
:1000C8002530B4000A128A15F9240A128A1101305F
:1000D80083120313A4000030A5000130A6000030ED
:1000E800A7000130A8000030A900DD30C00040089A
:1000F800AA000A128A15DD260A128A11831203132E
:10010800541C872888281C2B072B55145410831639
:100118000317E101E201AC2983120313B801B80AFD
:100128008316031761085E3E840083130008831258
:100138000313C0004008B90003300A128A1593243B
:100148000A128A11023083120313C0004008B80053
:100158008316031761085A3E84008313000883122C
:100168000313C1004108B90003300A128A15932409
:100178000A128A11033083120313C0004008B80022
:10018800831603176108563E840083130008831200
:100198000313C1004108B90003300A128A159324D9
:1001A8000A128A11C12983120313B801B80A8316E7
:1001B800031761085E3E840083130008831203134B
:1001C800C0004008B90005300A128A1593240A12A3
:1001D8008A11023083120313C0004008B800831646
:1001E800031761085A3E840083130008831203131F
:1001F800C1004108B90005300A128A1593240A1271
:100208008A11033083120313C0004008B800831614
:1002180003176108563E84008313000883120313F2
:10022800C1004108B90005300A128A1593240A1240
:100238008A11C12983120313B801B80A8316031758
:1002480061085E3E84008313000883120313C00014
:100258004008B90007300A128A1593240A128A1135
:10026800023083120313C0004008B8008316031736
:1002780061085A3E84008313000883120313C100E7
:100288004108B90007300A128A1593240A128A1104
:10029800033083120313C0004008B8008316031705
:1002A8006108563E84008313000883120313C100BB
:1002B8004108B90007300A128A1593240A128A11D4
:1002C800C12983120313B801B80A831603176108FA
:1002D8005E3E84008313000883120313C0004008A5
:1002E800B90009300A128A1593240A128A110230B9
:1002F80083120313C0004008B8008316031761086F
:100308005A3E84008313000883120313C100410876
:10031800B90009300A128A1593240A128A11033087
:1003280083120313C0004008B8008316031761083E
:10033800563E84008313000883120313C10041084A
:10034800B90009300A128A1593240A128A11C129A0
:10035800831603176208003A0319B329C1296108F3
:10036800003A03199028013A0319D728033A0319C8
:100378001E29013A03196529C1290130831603177B
:10038800E1070318E20A0030E2076208803AFF003A
:1003980080307F02031DD22904306102031CD52955
:1003A800D629AC2983160317DE01DF01831603174C
:1003B8005E085E3E8400831380015E085A3E840016
:1003C80080015E08563E840080010130DE07031874
:1003D800DF0A0030DF075F08803AFF0080307F02C5
:1003E800031DF82904305E02031CFB29FC29DA29C5
:1003F80083160317DB015B08A43E84008313800186
:10040800013083120313C000400883160317DB076B
:1004180005305B02031C112A122AFF291C2B5514D4
:10042800541000300A128A1546240A128A118312BF
:1004380003132408C0002508C100410DC10CC00CDD
:10044800410DC10CC00C4008B4004108B500003093
:10045800B600B700FF30B8000030B900EC30BA0081
:10046800FF30BB003C30BC000030BD000A128A15CA
:10047800C4240A128A11831203133408C2004208E2
:1004880083160317D60001300A128A1546240A1269
:100498008A11831203132408C0002508C100410DE6
:1004A800C10CC00C410DC10CC00C4008B40041087F
:1004B800B5000030B600B700FF30B8000030B90012
:1004C8000030BA00BB006430BC000030BD000A1226
:1004D8008A15C4240A128A11831203133408C2002D
:1004E800420883160317D70005300A128A154624D6
:1004F8000A128A11831203132408C0002508C100B8
:10050800410DC10CC00C410DC10CC00C4008B40019
:100518004108B5000030B600B700FF30B800003021
:10052800B9000030BA00BB006430BC000030BD0028
:100538000A128A15C4240A128A1183120313340872
:10054800C200420883160317D80083120313B801A8
:1005580083160317560883120313C0004008B90016
:1005680002300A128A1593240A128A11831203137D
:10057800B80183160317570883120313C0004008F5
:10058800B90004300A128A1593240A128A118312B8
:100598000313B80183160317580883120313C00006
:1005A8004008B90006300A128A1593240A128A11E3
:1005B80083160317DC0105305C02031CE42AE52AD4
:1005C800E62A1C2B5C08A43E8400831380010130BA
:1005D80083120313C000400883160317DC07DF2AC1
:1005E80004304C02031CF92AFA2AFD2A5514D514A2
:1005F80054100F304D02031C022B032B1C2B5514D7
:10060800D51054101C2B8316031324087F3983122A
:100618000313C000C1014108003A0319142BF42A3E
:100628004008083A03198928023A0319132AF42AB8
:1006380083120313551C212B222B362B5410CD016A
:100648005510CC01D51C292B2A2B2C2BD510362B39
:10065800DD30C0004008AC00A4300A128A11E92637
:100668000A128A1183120313531C3B2B3C2BA42C14
:10067800521C3F2B402BA42C013083160317D9079B
:100688000318DA0A0030DA07E001502C60088312F8
:100698000313C0004007DD3E840083130008C10037
:1006A800840A0008C200410884008317421C83138F
:1006B8000008C300840A0008C40043084404031D5A
:1006C800662B672B702B013083120313C000400880
:1006D80083160317E007502C83160317600883124C
:1006E8000313C0004007DD3E840083130008C100E7
:1006F800840A0008C20041080C3EC30042080318DF
:10070800013E003EC400430884008317441C831341
:100718000008C500450883160317DD00600883122A
:100728000313C0004007DD3E840083130008C100A6
:10073800840A0008C200831603175D088312031396
:10074800C30043074107C40042080318013EC5001F
:10075800440884008317451C83130008C600840AD4
:100768000008C700831603175908831203134602AB
:10077800C800831603175A08031C5A0A8312031366
:100788004702C900C91FC92BCA2BE72B0130C0007B
:10079800400883160317DD070130D9000030DA005E
:1007A80003305D02031CD92BDA2BE72BDD01073060
:1007B8006006031DE02BE12BE72BDD300A128A15BA
:1007C8006D270A128A11831603175D088312031313
:1007D800C00083160317600883120313C100410782
:1007E800DD3E840083130008C200840A0008C300A9
:1007F80042080C3EC40043080318013E003EC500F1
:10080800440884008317451C831340088000633024
:10081800C0004008B4006430C1004108B500831628
:100828000317600883120313C2004207DD3E8400E9
:1008380083130008C300840A0008C4008316031742
:100848005D0883120313C50045074307C600440823
:100858000318013EC700460884008317471C83130A
:100868000008C800840A0008C9008316031759083D
:10087800831203134802B600831603175A08031C91
:100888005A0A831203134902B70062300A128A1106
:100898004D260A128A11672B08306002031C552C5A
:1008A800562C4A2BA42C620803195B2C5C2CB92CFF
:1008B800A401A5016208013E84000A128A150020DD
:1008C8000A128A11C0004008A60001300A128A15CF
:1008D80031240A128A11B92C6308031D742C752C53
:1008E8007A2C62080319792C7A2CB92CA401A40A51
:1008F800A5016308013E84000A128A1500200A1225
:100908008A11C0004008A60000300A128A15312456
:100918000A128A11B92CA401A501A50A6408013E8E
:1009280084000A128A1500200A128A11C0004008A1
:10093800A60000300A128A1531240A128A11B92C2D
:10094800831203135108C000C1014108003A03197A
:10095800AE2CB92C4008003A0319572C013A031958
:10096800702C033A03198F2CB92C0330831203130C
:10097800A4000030A5005108013EA600003003186D
:100988000130A7000A128A151D260A128A1183123D
:1009980003132408C0004008D100531CD42CD52CC4
:1009A800DB2C521CD82CD92CDB2C53105210531C86
:1009B800DE2CDF2C82285218E22CE32C82285214D9
:1009C80082280A128A11102883120313A800280803
:1009D8007F39A6002608A90024087F39A600260822
:1009E800AA0025087F39A6002608AB002508A6001E
:1009F80007300310A60CFF3E031DFD2C26087F3987
:100A0800A7002708AC00AE01AF01B401B5018312FD
:100A18000313B001B101831203133408293E840083
:100A280083130008A600300A1B2D0310A60CFF3EF6
:100A3800031D192D26080139A7002708AE07013024
:100A4800B0070318B10A0030B1073108803AFF0037
:100A580080307F02031D322D08303002031C352DF3
:100A6800362D0F2D831203132E1C3B2D3C2D442DA8
:100A78008030A6003408293E8400260883138007A6
:100A8800AE010130B4070318B50A0030B5073508C0
:100A9800803AFF0080307F02031D542D0430340259
:100AA800031C572D582D0B2D83120313B601B701C4
:100AB80083120313B201B301831203133208293ED0
:100AC800840083130008A600360A6C2D0310A60CB8
:100AD800FF3E031D6A2D26080139A7002708AF0726
:100AE8000130B2070318B30A0030B3073308803A5D
:100AF800FF0080307F02031D832D04303202031C67
:100B0800862D872D602D831203132F1C8C2D8D2D80
:100B18009A2D0130A600360A932D0310A60DFF3E2C
:100B2800031D912D2608A7002708AD07AF01013046
:100B3800B6070318B70A0030B7073708803AFF002E
:100B480080307F02031DAA2D08303602031CAD2D0C
:100B5800AE2D5C2D2930080083120313AE01A71FA8
:100B6800B62DB72DC42DA409A509A609A709A40A5D
:100B78000319A50A0319A60A0319A70AAE01AE0AA2
:100B8800AB1FC72DC82DD72DA809A909AA09AB09DC
:100B9800A80A0319A90A0319AA0A0319AB0A0130FA
:100BA800AC002C08AE060030B2000030B1000030B6
:100BB800B0000030AF0027082604250424040319D8
:100BC800E62DE72D342EAD01AD0AF72D0130AC002E
:100BD8000310A40DA50DA60DA70DAC0BEC2D01302F
:100BE800AC002C08AD07A71FFA2DFB2DEA2D01300C
:100BF800AC000310AF0DB00DB10DB20DAC0BFD2D57
:100C080027082B02031D122E26082A02031D122E66
:100C180025082902031D122E24082802031C152E5C
:100C2800162E252E2408A8022508031C250FA90224
:100C38002608031C260FAA022708031C270FAB024D
:100C48002F1401300310A70CA60CA50CA40CFF3E12
:100C5800031D262E0130AD02031D332E342EFB2D2D
:100C68002E080319382E392E442EAF09B009B109C0
:100C7800B209AF0A0319B00A0319B10A0319B20A73
:100C88003208A7003108A6003008A5002F08A400E4
:100C9800080083120313BB00662E0A308312031365
:100CA800AB000030AC003708AE003608AD000A12C1
:100CB8008A117F270A128A11831203132C08B7009E
:100CC8002B08B600E830AB000330AC003708AE00A4
:100CD8003608AD000A128A117F270A128A11831278
:100CE80003132C08803AFF0080307F02031D7E2EFC
:100CF80001302B020318812E822E512E643083126C
:100D08000313AB000030AC003708AE003608AD0066
:100D18000A128A117F270A128A11831203132B08D9
:100D2800B8003B0884003808831380000A30AB0001
:100D38000030AC003708A7003608A6006430A400CD
:100D48000030A5000A128A151D260A128A1183127C
:100D580003132508AE002408AD000A128A117F2764
:100D68000A128A11831203132B08B800340884006E
:100D78003808831380003708A7003608A6006430B7
:100D8800A4000030A5000A128A151D260A128A112D
:100D9800831203132508BA002408B9000A30A400F6
:100DA8000030A5003A08A7003908A6000A128A15DB
:100DB8001D260A128A11831203132408B800350865
:100DC8008400380883138000080083120313B900D5
:100DD800B80103303802031CF22EF32EF42E7E2FB6
:100DE8000530AD002D08A40038080A128A11E8273A
:100DF8000A128A1183120313AE002E08BA003A08A9
:100E08003907AD002D08840083130008AE000310D5
:100E18002E0C0F39AF002F08B7003A083907AD007C
:100E28002D0884000008AE0005300310AE0CFF3E0C
:100E3800031D192F2E080339FF3EAF002F08B500F8
:100E48003A083907AD002D0A84000008FE39AE00C3
:100E58002E08B6003908AD002D08A4003A080A1279
:100E68008A1533250A128A11831203133708AE0034
:100E78002E072C07AF002F08840083130008B0004A
:100E8800840A0008B1003508B2003207063E300770
:100E9800B30031080318013EB400330884008317F7
:100EA800341C831324088000840A2508800036082F
:100EB800AD003708AE002E072C07AF002F088400BE
:100EC80083130008B000840A0008B10030080D3E02
:100ED800B20031080318013E003EB3003208840016
:100EE8008317331C83132D0880000130AD002D08B3
:100EF800B807ED2E080083120313B101AC1F852F2C
:100F0800862F8D2FAB09AC09AB0A0319AC0AB101C6
:100F1800B10AAE1F902F912F9A2FAD09AE09AD0AD5
:100F28000319AE0A0130AF002F08B106B201B301B0
:100F38002B082C040319A12FA22FD92FB001B00A16
:100F4800B02F01300310AB0DAC0DFF3E031DA62FD3
:100F58000130AF002F08B007AC1FB32FB42FA52F57
:100F680001300310B20DB30DFF3E031DB52F2C0841
:100F78002E02031DC12F2B082D02031CC42FC52FC1
:100F8800CC2F2B08AD022C08031CAE03AE02321482
:100F980001300310AC0CAB0CFF3E031DCD2F01300C
:100FA800B002031DD82FD92FB42F31080319DD2F14
:100FB800DE2FE32FB209B309B20A0319B30A3308C3
:100FC800AC003208AB00080083120313A700A60187
:100FD800271CEF2FF02FF42F2408A5002508A607BB
:100FE8000310A40D0310A70C2708031DFC2FFD2FC9
:060FF800EC2F26080800A2
:1010000008308A000408840A820700343F3406341A
:101010005B344F3466346D347D3407347F346F3441
:04102000003408345C
:1017BE0064008001840A0406031900340406E02B39
:1017CE00831203138C1EEC2BED2BE72B8C121A08B5
:1017DE00080083120313A4000C1EF62BF72BF32B19
:1017EE000C12240899000800CF340034C1340034A0
:1017FE00B3340034C8340134BA340134AC34013457
:10180E009E34013490340134E33083160313850083
:10181E00831203139F018030831603139F00193028
:10182E0083120313A400A40B1A2C1D2C08007E088F
:10183E008A007F0882000A128A151E240A128A154F
:10184E008000840A04087D0603190034FF0A031978
:10185E00FE0A222C83120313A700270C031C05116A
:10186E0003180515240C031C851103188515250C6A
:10187E00031C05120318051626088800080083129B
:10188E000313A7002708A60002300310A60DFF3E83
:10189E00031D4C2C0310260D01389F0004308312BB
:1018AE000313A600A60B592C0000831203131F1559
:1018BE001F19622C632C5F2C1E08A50083160313C0
:1018CE001E0883120313A400080083120313A80139
:1018DE00A901241C732C742C7A2C2608A807031833
:1018EE00A90A2708A90701300310A60DA70DFF3E70
:1018FE00031D7B2C01300310A50CA40CFF3E031D11
:10190E00822C24082504031D8D2C8E2C702C290866
:10191E00A5002808A400080083120313BD00380890
:10192E00BA003A08A4003908BB003B08A5003D08E0
:10193E000A128A11E8240A128A1583120313BC00B4
:10194E003C08BE00BF013E088400831300080A1243
:10195E008A15F0230A128A15013083120313BA0076
:10196E003A08BE070130BA003A08BF0705303F02F9
:10197E00031CC22CC32CAA2C080083120313360896
:10198E003802AB003708031C370A3902AC003608A0
:10199E003402A4003708031C370A3502A5003A08A2
:1019AE003C02A6003B08031C3B0A3D02A7000A129C
:1019BE008A156C240A128A15831203132508AE00A9
:1019CE002408AD000A128A117F270A128A15831283
:1019DE0003133A082B07B4003B0803183B0A2C07E5
:1019EE00B50008008316031307139816831203130A
:1019FE00981718163308B5003408B6000030B61B19
:101A0E00FF30B700B80006300310B50DB60DB70D98
:101A1E00B80DFF3E031D0B2D3808A7003708A60092
:101A2E003608A5003508A4000130AB00E830AA0046
:101A3E004830A9000030A8000A128A11B0250A12F7
:101A4E008A15831203132408FF3E8316031399008D
:101A5E008B170B178C16080083120313A800280887
:101A6E002407A6002608033E84007F30831300055A
:101A7E00A7002908270680392706A90029087F39DB
:101A8E00A600A7012608AA002708AB002B08A7006E
:101A9E002A08A6000730FF000310A60DA70DFF0BA6
:101AAE00532D80302605AA0000302705AB002808EC
:101ABE002407A6002608023E84007F300005A700FA
:101ACE002908270680392706A90029087F39A6008C
:101ADE002A082604AA002B08AB002B08A5002A080A
:101AEE00A400080001307102F43003197002031CC7
:101AFE00812D822D922D75087207F60076088400CE
:101B0E0083130008013EF70075087207F800780885
:101B1E0084007708800005307102DC3003197002F2
:101B2E00031C9A2D9B2DAB2D75087307F6007608B6
:101B3E00840083130008013EF70075087307F80050
:101B4E0078088400770880000B307102B8300319D2
:101B5E007002031CB32DB42DC42D75087407F60046
:101B6E007608840083130008013EF7007508740799
:101B7E00F800780884007708800008008C1EC82DB5
:101B8E00C92DD22D5418CC2DCD2DD22D5414551027
:101B9E00D510CD01CC018C1ED52DD62DED2D541C7E
:101BAE00D92DDA2DED2D0A128A15E7230A128A1580
:101BBE0083120313A0004D08A43E84002008831353
:101BCE0080000130A0002008CD07CC010B1DF02DA8
:101BDE00F12DFB2D0B110A128A1578260A128A1581
:101BEE0006308312031381000C1CFE2DFF2D142EC4
:101BFE000C100130A0002008D00714305002031C36
:101C0E00092E0A2E102E5314D0010130A0002008E8
:101C1E00CC073C308F00B0308E0023088A0022089B
:101C2E008400210E8300FE0E7E0E09008312031324
:101C3E00AA01A71F232E242E2B2EA609A709A60A1A
:101C4E000319A70AAA01AA0AA51F2E2E2F2E342E7B
:101C5E00A409A509A40A0319A50A24082504031931
:101C6E00392E3A2E692EA901A90A482E01300310E9
:101C7E00A40DA50DFF3E031D3E2E0130A800280821
:101C8E00A907A51F4B2E4C2E3D2E25082702031DFE
:101C9E00522E24082602031C552E562E5C2E240886
:101CAE00A6022508031CA703A70201300310A50CEA
:101CBE00A40CFF3E031D5D2E0130A902031D682EEC
:101CCE00692E4C2E2A0803196D2E6E2E732EA60920
:101CDE00A709A60A0319A70A2708A5002608A40023
:101CEE000800003083120313861901308316031384
:101CFE00A000003083120313061A0130831603135B
:101D0E00A100003083120313861A013083160313C9
:101D1E00A200003083120313851A013083160313B9
:101D2E00A300FD017D08A03E840083130008031D5F
:101D3E00A12EA22EAB2E013083120313CA07031855
:101D4E00CB0A0030CB07D22E7D08A03E84000008BF
:101D5E000319B22EB32ED22E831203134B08F100A9
:101D6E004A08F0005E30F9007908F2005A30FA00A5
:101D7E007A08F3005630FB007B08F4007D08FC0067
:101D8E007C08F5000A128A1579250A128A15831223
:101D9E000313CA01CB010130F9007908FD070430A5
:101DAE007D02031CDB2EDC2E992E080083120313FA
:101DBE00B201B301452F3208AB002B072A07AC0046
:101DCE002C08840083130008AD00840A0008AE00BE
:101DDE003308AF002F072D07B0002E080318013E61
:101DEE00B100300884008317311C8313240880004F
:101DFE00840A25088000582F3208AB002B072A07CB
:101E0E00AC002C08840083130008AD00840A00087F
:101E1E00AE003308AF002F072D07B0002E080318B1
:101E2E00013EB100300884008317311C831326084D
:101E3E008000840A27088000582F3208AB002B0739
:101E4E002A07AC002C08840083130008AD00840A16
:101E5E000008AE003308AF002F072D07B0002E0884
:101E6E000318013EB100300884008317311C831320
:101E7E0028088000840A29088000582F3308AB00F8
:101E8E00AC012C08003A03194D2F582F2B08003A9D
:101E9E000319E22E013A0319032F033A0319242FD3
:101EAE00582F0130AB002B08B30703303302031C4D
:101EBE00612F622F452F0130AB002B08B20708307F
:101ECE003202031C6B2F6C2FE02E080083120313BB
:101EDE00B400B601B5013608A40024073407A500E6
:101EEE002508840083130008A600840A0008A700B2
:101EFE003508A8002807063E2607A900270803185C
:101F0E00013EAA002908840083172A1C83130008A7
:101F1E00AB00840A0008AC003608AD002D0734076C
:101F2E00AE002E08840083130008AF00840A000858
:101F3E00B0003508B10031072F07B2003008031882
:101F4E00013EB300320884008317331C83132B0821
:101F5E008000840A2C0880000130A4002408B507F4
:101F6E0003303502031CBC2FBD2F722F3608A40080
:101F7E0024073407A5002508840083130008A60053
:101F8E00840A0008A70026080D3EA800270803189B
:101F9E00013E003EA900280884008317291C8313E4
:101FAE000008AA003608AB002B073407AC002C083B
:101FBE00840083130008AD00840A0008AE002D08CB
:101FCE000C3EAF002E080318013E003EB0002F0855
:101FDE0084008317301C83132A0880000130A4006C
:101FEE002408B60708303602031CFE2FFF2F712F70
:021FFE000800D9
:02400E00F23F7F
:00000001FF
