:020000040000FA
:060000000A128A1110280B
:10000800FE00030E83120313A1000408A2000A08CD
:10001800A3000A128A15B62D0A128A11132883130F
:10002800ED30FD000B30FE00B330FF00DD30840002
:100038000A128A15DA230A128A118317903084006B
:10004800D6300A128A1597230A128A118313A03010
:100058008400DD300A128A1597230A128A114A3061
:10006800840065300A128A1597230A128A118301BF
:100078000A128A113F28383083160313860080300D
:100088008700880101308900E0308B00043081004E
:100098000630831203138100313090003C308F000A
:1000A800B0308E00D10183160317D701D8010A1288
:1000B8008A15C3230A128A11803083120313B300EE
:1000C8002530B4000A128A1597240A128A110130C1
:1000D80083120313A4000030A5000130A6000030ED
:1000E800A7000130A8000030A900DD30C00040089A
:1000F800AA000A128A1151250A128A1183120313BF
:10010800541C872888281C2B072B55145410831639
:100118000317E101E201AC2983120313B801B80AFD
:100128008316031761085E3E840083130008831258
:100138000313C0004008B90003300A128A11CE2701
:100148000A128A11023083120313C0004008B80053
:100158008316031761085A3E84008313000883122C
:100168000313C1004108B90003300A128A11CE27CF
:100178000A128A11033083120313C0004008B80022
:10018800831603176108563E840083130008831200
:100198000313C1004108B90003300A128A11CE279F
:1001A8000A128A11C12983120313B801B80A8316E7
:1001B800031761085E3E840083130008831203134B
:1001C800C0004008B90005300A128A11CE270A1269
:1001D8008A11023083120313C0004008B800831646
:1001E800031761085A3E840083130008831203131F
:1001F800C1004108B90005300A128A11CE270A1237
:100208008A11033083120313C0004008B800831614
:1002180003176108563E84008313000883120313F2
:10022800C1004108B90005300A128A11CE270A1206
:100238008A11C12983120313B801B80A8316031758
:1002480061085E3E84008313000883120313C00014
:100258004008B90007300A128A11CE270A128A11FB
:10026800023083120313C0004008B8008316031736
:1002780061085A3E84008313000883120313C100E7
:100288004108B90007300A128A11CE270A128A11CA
:10029800033083120313C0004008B8008316031705
:1002A8006108563E84008313000883120313C100BB
:1002B8004108B90007300A128A11CE270A128A119A
:1002C800C12983120313B801B80A831603176108FA
:1002D8005E3E84008313000883120313C0004008A5
:1002E800B90009300A128A11CE270A128A1102307F
:1002F80083120313C0004008B8008316031761086F
:100308005A3E84008313000883120313C100410876
:10031800B90009300A128A11CE270A128A1103304D
:1003280083120313C0004008B8008316031761083E
:10033800563E84008313000883120313C10041084A
:10034800B90009300A128A11CE270A128A11C12966
:10035800831603176208003A0319B329C1296108F3
:10036800003A03199028013A0319D728033A0319C8
:100378001E29013A03196529C1290130831603177B
:10038800E1070318E20A0030E2076208803AFF003A
:1003980080307F02031DD22904306102031CD52955
:1003A800D629AC2983160317DD01DE01831603174E
:1003B8005D085E3E8400831380015D085A3E840018
:1003C80080015D08563E840080010130DD07031876
:1003D800DE0A0030DE075E08803AFF0080307F02C8
:1003E800031DF82904305D02031CFB29FC29DA29C6
:1003F80083160317DB015B08A43E84008313800186
:10040800013083120313C000400883160317DB076B
:1004180005305B02031C112A122AFF291C2B5514D4
:10042800541000300A128A1515240A128A118312F0
:1004380003132408C0002508C100410DC10CC00CDD
:10044800410DC10CC00C4008B4004108B500003093
:10045800B600B700FF30B8000030B900EC30BA0081
:10046800FF30BB003C30BC000030BD000A128A15CA
:1004780062240A128A11831203133408C200420844
:1004880083160317D60001300A128A1515240A129A
:100498008A11831203132408C0002508C100410DE6
:1004A800C10CC00C410DC10CC00C4008B40041087F
:1004B800B5000030B600B700FF30B8000030B90012
:1004C8000030BA00BB006430BC000030BD000A1226
:1004D8008A1562240A128A11831203133408C2008F
:1004E800420883160317D70005300A128A15152407
:1004F8000A128A11831203132408C0002508C100B8
:10050800410DC10CC00C410DC10CC00C4008B40019
:100518004108B5000030B600B700FF30B800003021
:10052800B9000030BA00BB006430BC000030BD0028
:100538000A128A1562240A128A11831203133408D4
:10054800C200420883160317D80083120313B801A8
:1005580083160317560883120313C0004008B90016
:1005680002300A128A11CE270A128A118312031343
:10057800B80183160317570883120313C0004008F5
:10058800B90004300A128A11CE270A128A1183127E
:100598000313B80183160317580883120313C00006
:1005A8004008B90006300A128A11CE270A128A11A9
:1005B80083160317DC0105305C02031CE42AE52AD4
:1005C800E62A1C2B5C08A43E8400831380010130BA
:1005D80083120313C000400883160317DC07DF2AC1
:1005E80004304C02031CF92AFA2AFD2A5514D514A2
:1005F80054100F304D02031C022B032B1C2B5514D7
:10060800D51054101C2B8316031324087F3983122A
:100618000313C000C1014108003A0319142BF42A3E
:100628004008083A03198928023A0319132AF42AB8
:1006380083120313551C212B222B362B5410CD016A
:100648005510CC01D51C292B2A2B2C2BD510362B39
:10065800DD30C0004008AC00A4300A128A15922789
:100668000A128A1183120313531C3B2B3C2B702C48
:10067800521C3F2B402B702C013083160317D907CF
:100688000318DA0A0030DA07E0016A2C60088312DE
:100698000313C0004007DD3E840083130008C10037
:1006A800840A0008C200410884008317421C83138F
:1006B8000008C300840A0008C4004308440403195E
:1006C800662B672B622C83160317600883120313AB
:1006D800C0004007DD3E840083130008C100840A7F
:1006E8000008C20041080C3EC30042080318013E3E
:1006F800003EC400430884008317441C8313000889
:10070800C500450883160317DF006008831203132A
:10071800C0004007DD3E840083130008C100840A3E
:100728000008C200831603175F0883120313C3006F
:1007380043074107C40042080318013EC5004408A6
:1007480084008317451C83130008C600840A000828
:10075800C700831603175908831203134602C800FB
:10076800831603175A08031C5A0A831203134702F5
:10077800C900C91FC02BC12BDD2B0130C0004008A8
:1007880083160317DF070130D9000030DA00033081
:100798005F02031CD02BD12BDD2BDF016003031D6F
:1007A800D62BD72BDD2BDD300A128A1569260A12C3
:1007B8008A11633083120313C0004008B400643008
:1007C800C1004108B500831603176008831203139C
:1007D800C2004207DD3E840083130008C300840A78
:1007E8000008C400831603175F0883120313C500AB
:1007F80045074307C60044080318013EC7004608DA
:1008080084008317471C83130008C800840A000863
:10081800C900831603175908831203134802B60048
:10082800831603175A08031C5A0A83120313490232
:10083800B70062300A128A11A2260A128A110A1215
:100848008A113E270A128A11831603175F0883123A
:100858000313C0004008A4008316031760080A1297
:100868008A1563250A128A11831603175F088312F3
:100878000313C00083160317600883120313C10013
:100888004107DD3E840083130008C200840A000883
:10089800C30042080C3EC40043080318013E003E52
:1008A800C500440884008317451C83134008800052
:1008B8000130C000400883160317E0070130831297
:1008C8000313C000400883160317E00702306002D4
:1008D800031C6F2C702C4A2B83120313531C752C8A
:1008E800762C7C2C521C792C7A2C7C2C5310521090
:1008F800531C7F2C802C82285218832C842C82280D
:10090800521482280A128A11102883120313A8008D
:1009180028087F39A6002608A90024087F39A600E0
:100928002608AA0025087F39A6002608AB00250856
:10093800A60007300310A60CFF3E031D9E2C2608B8
:100948007F39A7002708AC00AE01AF01B401B5019B
:1009580083120313B001B101831203133408293E33
:10096800840083130008A600300ABC2C0310A60CD0
:10097800FF3E031DBA2C26080139A7002708AE0739
:100988000130B0070318B10A0030B1073108803AC6
:10099800FF0080307F02031DD32C08303002031C77
:1009A800D62CD72CB02C831203132E1CDC2CDD2C58
:1009B800E52C8030A6003408293E840026088313DD
:1009C8008007AE010130B4070318B50A0030B50737
:1009D8003508803AFF0080307F02031DF52C043073
:1009E8003402031CF82CF92CAC2C83120313B60127
:1009F800B70183120313B201B30183120313320840
:100A0800293E840083130008A600360A0D2D031022
:100A1800A60CFF3E031D0B2D26080139A700270849
:100A2800AF070130B2070318B30A0030B307330821
:100A3800803AFF0080307F02031D242D04303202EB
:100A4800031C272D282D012D831203132F1C2D2D58
:100A58002E2D3B2D0130A600360A342D0310A60D8D
:100A6800FF3E031D322D2608A7002708AD07AF015A
:100A78000130B6070318B70A0030B7073708803ABD
:100A8800FF0080307F02031D4B2D08303602031C07
:100A98004E2D4F2DFD2C2930080083120313B3016E
:100AA800023033020318592D5A2D782D3308AB0024
:100AB8003308AC002C072A07AD002D0884008313E7
:100AC8000008AE00840A0008AF002E080C3EB000F3
:100AD8002F080318013E003EB10030088400831738
:100AE800311C83132B088000B201DD2D3308AB00C5
:100AF8002B072A07AC002C08840083130008AD00DC
:100B0800840A0008AE003208AF002F072D07B00096
:100B18002E080318013EB100300884008317311CE9
:100B2800831324088000840A25088000F02D3308E8
:100B3800AB002B072A07AC002C088400831300089D
:100B4800AD00840A0008AE003208AF002F072D0759
:100B5800B0002E080318013EB10030088400831746
:100B6800311C831326088000840A27088000F02D92
:100B78003308AB002B072A07AC002C08840083132A
:100B88000008AD00840A0008AE003208AF002F0745
:100B98002D07B0002E080318013EB100300884006C
:100BA8008317311C831328088000840A29088000D1
:100BB800F02D3208AB00AC012C08003A0319E52DE2
:100BC800F02D2B08003A03197A2D013A03199B2DB1
:100BD800033A0319BC2DF02D0130AB002B08B207E6
:100BE80003303202031CF92DFA2DDD2D0130AB0044
:100BF8002B08B30710303302031C032E042E542D88
:100C0800080083120313AE01A71F0B2E0C2E192EFA
:100C1800A409A509A609A709A40A0319A50A03197D
:100C2800A60A0319A70AAE01AE0AAB1F1C2E1D2E79
:100C38002C2EA809A909AA09AB09A80A0319A90A07
:100C48000319AA0A0319AB0A0130AC002C08AE0636
:100C58000030B2000030B1000030B0000030AF000A
:100C6800270826042504240403193B2E3C2E892E2C
:100C7800AD01AD0A4C2E0130AC000310A40DA50D3A
:100C8800A60DA70DAC0B412E0130AC002C08AD070A
:100C9800A71F4F2E502E3F2E0130AC000310AF0D72
:100CA800B00DB10DB20DAC0B522E27082B02031D4F
:100CB800672E26082A02031D672E25082902031D10
:100CC800672E24082802031C6A2E6B2E7A2E24080D
:100CD800A8022508031C250FA9022608031C260FB5
:100CE800AA022708031C270FAB022F140130031098
:100CF800A70CA60CA50CA40CFF3E031D7B2E0130EF
:100D0800AD02031D882E892E502E2E0803198D2E14
:100D18008E2E992EAF09B009B109B209AF0A03198D
:100D2800B00A0319B10A0319B20A3208A700310838
:100D3800A6003008A5002F08A4000800831203139A
:100D4800BB00BB2E0A3083120313AB000030AC008B
:100D58003708AE003608AD000A128A1529270A128C
:100D68008A11831203132C08B7002B08B600E83049
:100D7800AB000330AC003708AE003608AD000A12ED
:100D88008A1529270A128A11831203132C08803A1C
:100D9800FF0080307F02031DD32E01302B02031881
:100DA800D62ED72EA62E643083120313AB00003044
:100DB800AC003708AE003608AD000A128A1529279C
:100DC8000A128A11831203132B08B8003B08840007
:100DD8003808831380000A30AB000030AC003708B5
:100DE800A7003608A6006430A4000030A5000A1247
:100DF8008A150E260A128A11831203132508AE00DB
:100E08002408AD000A128A1529270A128A118312AA
:100E180003132B08B80034088400380883138000B3
:100E28003708A7003608A6006430A4000030A500E3
:100E38000A128A150E260A128A118312031325082C
:100E4800BA002408B9000A30A4000030A5003A0806
:100E5800A7003908A6000A128A150E260A128A1156
:100E6800831203132408B800350884003808831354
:100E780080000800A02F62080319432F442F572F22
:100E8800A401A5016208013E84000A128A15002007
:100E98000A128A11AB002B08A60001300A128A1523
:100EA800E9230A128A1183120313A401A50103304E
:100EB80084000A128A1500200A128A11AB002B0836
:100EC800A60001300A128A15E9230A128A11B52FE1
:100ED8006308031D702F712F762F62080319752F71
:100EE800762FB52FA401A40AA5016308013E84004A
:100EF8000A128A1500200A128A11AB002B08A600D4
:100F080000300A128A15E9230A128A11B52FA401A2
:100F1800A501A50A6408013E84000A128A1500206A
:100F28000A128A11AB002B08A60000300A128A1593
:100F3800E9230A128A11B52F831203135108AB0053
:100F4800AC012C08003A0319AA2FB52F2B08003A38
:100F580003193F2F013A03196C2F033A03198B2FFA
:100F6800B52F033083120313A4000030A5005108E5
:100F7800013EA600003003180130A7000A128A15A6
:100F88000E260A128A11831203132408AB002B08B9
:100F9800D100080083120313BD003808BA003A08CC
:100FA800A4003908BB003B08A5003D080A128A11B5
:100FB80089240A128A1183120313BC003C08BE005C
:100FC800BF013E088400831300080A128A15A8236B
:100FD8000A128A11013083120313BA003A08BE07B5
:100FE8000130BA003A08BF0705303F02031CFD2F45
:060FF800FE2FE52F0800AA
:1010000008308A000408840A820700343F3406341A
:101010005B344F3466346D347D3407347F346F3441
:041020000034023462
:10172E0064008001840A0406031900340406982B11
:10173E00831203138C1EA42BA52B9F2B8C121A081D
:10174E00080083120313A4000C1EAE2BAF2BAB2B81
:10175E000C12240899000800CF340034C134003430
:10176E00B3340034C8340134BA340134AC340134E7
:10177E009E34013490340134E33083160313850014
:10178E00831203139F018030831603139F001930B9
:10179E0083120313A400A40BD22BD52B08007E08B2
:1017AE008A007F0882000A128A15D6230A128A1529
:1017BE008000840A04087D0603190034FF0A031909
:1017CE00FE0ADA2B83120313A700270C031C051144
:1017DE0003180515240C031C851103188515250CFB
:1017EE00031C05120318051626088800080083122C
:1017FE000313A700A601271C052C062C0A2C24086F
:10180E00A5002508A6070310A40D0310A70C270892
:10181E00031D122C132C022C26080800831203130E
:10182E00A7002708A60002300310A60DFF3E031DD9
:10183E001B2C0310260D01389F0004308312031356
:10184E00A600A60B282C0000831203131F151F19C8
:10185E00312C322C2E2C1E08A500831603131E08C5
:10186E0083120313A400080083120313A801A90115
:10187E00241C422C432C492C2608A8070318A90A1D
:10188E002708A90701300310A60DA70DFF3E031D63
:10189E004A2C01300310A50CA40CFF3E031D512C45
:1018AE0024082504031D5C2C5D2C3F2C2908A50063
:1018BE002808A40008008312031336083802AB0070
:1018CE003708031C370A3902AC0036083402A4006C
:1018DE003708031C370A3502A5003A083C02A60059
:1018EE003B08031C3B0A3D02A7000A128A153B2443
:1018FE000A128A15831203132508AE002408AD00C0
:10190E000A128A1529270A128A15831203133A0816
:10191E002B07B4003B0803183B0A2C07B500080040
:10192E0083160313071398168312031398171816AA
:10193E003308B5003408B6000030B61BFF30B700D0
:10194E00B80006300310B50DB60DB70DB80DFF3E3D
:10195E00031DA92C3808A7003708A6003608A500D5
:10196E003508A4000130AB00E830AA004830A900C9
:10197E000030A8000A128A1105260A128A1583124F
:10198E0003132408FF3E8316031399008B170B17BE
:10199E008C16080083120313A80028082407A6003B
:1019AE002608033E84007F3083130005A700290814
:1019BE00270680392706A90029087F39A600A70126
:1019CE002608AA002708AB002B08A7002A08A600A5
:1019DE000730FF000310A60DA70DFF0BF12C803072
:1019EE002605AA0000302705AB0028082407A6000C
:1019FE002608023E84007F300005A700290827062E
:101A0E0080392706A90029087F39A6002A0826044E
:101A1E00AA002B08AB002B08A5002A08A40008007A
:101A2E0001307102F43003197002031C1F2D202D9A
:101A3E00302D75087207F6007608840083130008AF
:101A4E00013EF70075087207F800780884007708E1
:101A5E00800005307102DC3003197002031C382D32
:101A6E00392D492D75087307F60076088400831307
:101A7E000008013EF70075087307F8007808840027
:101A8E00770880000B307102B83003197002031C06
:101A9E00512D522D622D75087407F60076088400BC
:101AAE0083130008013EF70075087407F8007808E4
:101ABE00840077088000080083120313A700A52D69
:101ACE00871087110714B52D071087118714B52DB0
:101ADE00071087108715B52D2408A500A601260826
:101AEE00003A03197B2DB52D2508003A0319672DF1
:101AFE00013A03196B2D033A03196F2DB52D86107C
:101B0E0006138617B52D861306138614B52D861368
:101B1E0086100617B52D2408A500A6012608003A42
:101B2E0003199A2DB52D2508003A0319862D013A71
:101B3E0003198A2D033A03198E2DB52D2708A500FA
:101B4E00A6012608003A0319AD2DB52D2508003A39
:101B5E000319732D013A0319922DB52D08008C1E11
:101B6E00B92DBA2DC32D5418BD2DBE2DC32D541411
:101B7E005510D510CD01CC018C1EC62DC72DDE2DD6
:101B8E00541CCA2DCB2DDE2D0A128A159F230A1244
:101B9E008A1583120313A0004D08A43E840020086A
:101BAE00831380000130A0002008CD07CC010B1D4F
:101BBE00E12DE22DEC2D0B110A128A15C4260A1204
:101BCE008A1506308312031381000C1CEF2DF02DA5
:101BDE00052E0C100130A0002008D0071430500242
:101BEE00031CFA2DFB2D012E5314D0010130A00041
:101BFE002008CC073C308F00B0308E0023088A00BE
:101C0E0022088400210E8300FE0E7E0E0900831230
:101C1E000313AA01A71F142E152E1C2EA609A70901
:101C2E00A60A0319A70AAA01AA0AA51F1F2E202E6B
:101C3E00252EA409A509A40A0319A50A240825041A
:101C4E0003192A2E2B2E5A2EA901A90A392E01303C
:101C5E000310A40DA50DFF3E031D2F2E0130A8006D
:101C6E002808A907A51F3C2E3D2E2E2E250827023B
:101C7E00031D432E24082602031C462E472E4D2EEE
:101C8E002408A6022508031CA703A702013003108F
:101C9E00A50CA40CFF3E031D4E2E0130A902031D00
:101CAE00592E5A2E3D2E2A0803195E2E5F2E642EB3
:101CBE00A609A709A60A0319A70A2708A500260838
:101CCE00A400080083120313B400B501B601350851
:101CDE00A40024073407A5002508840083130008F8
:101CEE00A600840A0008A7003608A8002807063EAA
:101CFE002607A90027080318013EAA002908840018
:101D0E0083172A1C83130008AB00840A0008AC005A
:101D1E003508AD002D073407AE002E08840083135E
:101D2E000008AF00840A0008B0003608B100310781
:101D3E002F07B20030080318013EB30032088400AA
:101D4E008317331C83132B088000840A2C08800011
:101D5E000130A4002408B60703303602031CB82E47
:101D6E00B92E6E2E0130A4002408B50710303502AE
:101D7E00031CC22EC32E6D2E0800003083120313D7
:101D8E008619013083160313A0000030831203134B
:101D9E00061A013083160313A100003083120313B9
:101DAE00861A013083160313A20000308312031328
:101DBE00851A013083160313A300FD017D08A03E92
:101DCE00840083130008031DED2EEE2EF72E013036
:101DDE0083120313CA070318CB0A0030CB071E2F3A
:101DEE007D08A03E840000080319FE2EFF2E1E2F34
:101DFE00831203134B08F1004A08F0005E30F9001D
:101E0E007908F2005A30FA007A08F3005630FB00D7
:101E1E007B08F4007D08FC007C08F5000A128A1588
:101E2E0017250A128A1583120313CA01CB0101303A
:101E3E00F9007908FD0704307D02031C272F282F97
:101E4E00E52E080083120313B101AC1F2F2F302F84
:101E5E00372FAB09AC09AB0A0319AC0AB101B10AB1
:101E6E00AE1F3A2F3B2F442FAD09AE09AD0A031911
:101E7E00AE0A0130AF002F08B106B201B3012B0834
:101E8E002C0403194B2F4C2F832FB001B00A5A2F5D
:101E9E0001300310AB0DAC0DFF3E031D502F013072
:101EAE00AF002F08B007AC1F5D2F5E2F4F2F0130F4
:101EBE000310B20DB30DFF3E031D5F2F2C082E0233
:101ECE00031D6B2F2B082D02031C6E2F6F2F762FE9
:101EDE002B08AD022C08031CAE03AE0232140130E7
:101EEE000310AC0CAB0CFF3E031D772F0130B0027C
:101EFE00031D822F832F5E2F31080319872F882F02
:101F0E008D2FB209B309B20A0319B30A3308AC0014
:101F1E003208AB00080083120313B700B901033077
:101F2E003902031C9B2F9C2F9D2FFF2F0530AD00D8
:101F3E002D08A40039080A128A15FE230A128A15E2
:101F4E0083120313AE002E08B80038083707AD0011
:101F5E002D08840083130008AE0003102E0C0F39D9
:101F6E00AF002F08B50038083707AD002D088400E4
:101F7E000008AE0005300310AE0CFF3E031DC22F4D
:101F8E002E080339FF3EAF002F08B6003708AD000C
:101F9E002D08A40038080A128A15D1240A128A15AF
:101FAE00831203133508AE002E072C07AF002F083F
:101FBE00840083130008B000840A0008B1003608BC
:101FCE00B2003207063E3007B30031080318013E57
:101FDE00B400330884008317341C83132408800054
:101FEE00840A250880000130AD002D08B907962F10
:021FFE000800D9
:02400E00F23F7F
:00000001FF
