:020000040000FA
:060000000A128A110E280D
:10000800FE00030EF7000408F8000A08F9000A12B7
:100018008A15DA2D0A128A1111288313EF30FD0090
:100028000730FE00DD30FF00CF3084000A128A1549
:1000380045240A128A11831790308400F0300A127E
:100048008A1512240A128A111030840058300A12B4
:100058008A1512240A128A118313A0308400CF3023
:100068000A128A1512240A128A114D30840064304B
:100078000A128A1512240A128A11F001F101F201FA
:10008800F301F40183010A128A114A281F308316EA
:100098000313860080308700880101308900E03032
:1000A8008B00043081000630831203138100313045
:1000B80090000A128A152E240A128A11803083129F
:1000C8000313AF002530B0000A128A1527250A123B
:1000D8008A11003083120313A000A1000030A2008F
:1000E800A3000030A400A5000A128A113C270A12B6
:1000F8008A113C30831203138F00B0308E008312B4
:100108000317E40183120313DB018312031761143D
:1001180083120313621C91289228BE28A92863140D
:100128006210BE2804305802031C9B289C289F2874
:100138006314E31462100F305902031CA428A52885
:10014800BE286314E3106210BE2883160313210827
:100158007F3983120313BD00BE013E08003A03191C
:10016800B62896283D08083A03199328023A031935
:1001780093289628631CC128C22875296210D901C2
:100188006310D801E31CC928CA28CC28E3107529B4
:1001980083120317E501E601831203176608831229
:1001A8000313A10083120317650883120313A00029
:1001B8000530A2000030A3000A128A15CB240A12C7
:1001C8008A1183120313210883120317D90083129B
:1001D8000313200883120317D80005308312031372
:1001E800BD003D08A0008312031765080A128A158E
:1001F80069240A128A11A03E84008313000883121E
:100208000313BE0005300310BE0CFF3E031D072973
:100218003E080339FF3E83120317DA00FF30031844
:100228000030DB0083160313200883120313BD007C
:1002380003103D0C0739BE00BF013E0883120317A7
:10024800DC00831203133F0883120317DD005908EB
:1002580083120313A1008312031758088312031390
:10026800A0000A128A159B250A128A118312031705
:100278005C0883120313BD003D07CF3E840083133F
:100288000008BE00840A0008BF00831203175A083A
:1002980083120313C00040073E07C1003F0803183C
:1002A800013EC200410884008317421C83132008C2
:1002B8008000840A21088000013083120317E507B3
:1002C8000318E60A0030E6076608803AFF00803027
:1002D8007F02031D712903306502031C74297529E7
:1002E800D02883120317611C7A297B298F2A83124D
:1002F80003135508013EBD0056080318013E003E91
:10030800BE000F303D05D50000303E05D6009229CD
:100318000130D5070318D60A0030D6075508BD00A6
:100328003D07CF3E840083130008BE00840A0008FE
:10033800BF003E08063EC0003F080318013E003ECD
:10034800C100400884008317411C83130008C200C1
:10035800840A0008C300420843040319B429B529D4
:100368008C2983120317E901EA016A08803AFF0021
:1003780080307F02031DC22910306902031CC52981
:10038800C629C7298F2A83120317EB01EC016C08D1
:10039800803AFF0080307F02031DD42903306B02AE
:1003A800031CD729D829D929862A83120317690853
:1003B80083120313BD003D07CF3E8400831300085A
:1003C800BE00840A0008BF00831203176B0883125B
:1003D8000313C00040073E07C1003F080318013E51
:1003E800C200410884008317421C83130008C3001D
:1003F800840A0008C40083120317690883120313D0
:10040800C5004507CF3E840083130008C600840A50
:100418000008C700831203176B0883120313C80070
:100428004807063E4607C90047080318013ECA00A8
:100438004908840083174A1C83130008CB00840AE8
:100448000008CC0044084C06031D2C2A43084B0620
:1004580003192F2A302A7D2A831203176908831269
:100468000313BD003D07CF3E840083130008BE0080
:10047800840A0008BF00831203176B088312031352
:10048800C00040073E07C1003F080318013EC200F4
:10049800410884008317421C83130008C300840AA0
:1004A8000008C40083120317690883120313C500E8
:1004B8004507CF3E840083130008C600840A00085D
:1004C800C700831203176B0883120313C800480779
:1004D800063E4607C90047080318013ECA004908F6
:1004E800840083174A1C831343088000840A440845
:1004F8008000013083120317EB070318EC0A003061
:10050800EC07CB29013083120317E9070318EA0A1D
:100518000030EA07B92983120313611C942A952A2B
:10052800532B601C982A992A532B013083120317E6
:10053800E2070318E30A0030E3076110831203138C
:100548005508BD003D07CF3E840083130008BE0058
:10055800840A0008BF008312031764088312031378
:10056800C0004007063E3E07C1003F080318013E91
:10057800C200410884008317421C83130008C3008B
:10058800840A0008C4008312031762088312031345
:100598004302C500831203176308031C630A83120E
:1005A80003134402C600C61FDA2ADB2ADE2A831296
:1005B800031761140230831203176406031DE52A2A
:1005C800E62A1A2B831203135508BD003D07CF3EB8
:1005D800840083130008BE00840A0008BF003E0898
:1005E8000A3EC0003F080318013E003EC100400813
:1005F80084008317411C83130008C200840A000882
:10060800C300831203176308831203134306031DF1
:10061800132B831203176208831203134206031D68
:10062800162B172B1A2B8312031761140313550863
:10063800BD003D07CF3E840083130008BE00840A36
:100648000008BF0083120317640883120313C00055
:100658004007063E3E07C1003F080318013EC2009E
:10066800410884008317421C83130008C300840ACE
:100678000008C4008312031762088312031343029D
:10068800B000831203176308031C630A8312031361
:100698004402B1000A128A15F8260A128A11831236
:1006A80003135B085C0603195A2B5B2BC02B5B08F2
:1006B800BD003D08DC00AD2B5D080319642B652BDC
:1006C800C02BA001A1015D08013E84000A128A1511
:1006D80000200A128A11BD003D08A20001300A124A
:1006E8008A1554240A128A11C02B5E08031D7D2B1B
:1006F8007E2B832B5D080319822B832BC02BA00133
:10070800A00AA1015E08013E84000A128A15002091
:100718000A128A11BD003D08A20000300A128A158B
:1007280054240A128A11C02BA001A101A10A5F0852
:10073800013E84000A128A1500200A128A11BD009F
:100748003D08A20000300A128A1554240A128A11A0
:10075800C02B5B08BD00BE013E08003A0319B52B4B
:10076800C02B3D08003A0319602B013A0319792B75
:10077800033A0319982BC02B033083120313A000EC
:100788000030A1005B08013EA200003003180130D0
:10079800A3000A128A1534260A128A118312031337
:1007A8002008BD003D08DB00611CDB2BDC2BE22BA5
:1007B800601CDF2BE02BE22B61106010611CE52B25
:1007C800E62BEB2B6018E92BEA2BEB2B60147F3020
:1007D80083160313210583120313BD0008303D0659
:1007E800031DF72BF82BAE2C83120317ED01EE0136
:1007F8006E08803AFF0080307F02031D052C04300C
:100808006D02031C082C092C0A2C862C8312031356
:10081800B401B40A831203176D08513E8400831390
:10082800000883120313BD003D08B5000130BE0067
:10083800831203176D08013E013E83120313262C11
:100848000310BE0DFF3E031D242C3E080A128A1514
:1008580061250A128A11103083120313BD003D0866
:10086800B400831203176D084D3E840083130008FB
:1008780083120313BE003E08B5000130BF00831287
:1008880003176D08013E013E831203134D2C03101C
:10089800BF0DFF3E031D4B2C3F080A128A15612528
:1008A8000A128A11113083120313BD003D08B400E7
:1008B800831203176D08AF3E840083130008831268
:1008C8000313BE003E08B5000130BF0083120317B2
:1008D8006D08013E013E83120313742C0310BF0DF3
:1008E800FF3E031D722C3F080A128A1561250A1261
:1008F8008A11013083120317ED070318EE0A00303E
:10090800EE07FC2B83120317E701E8016808803A19
:10091800FF0080307F02031D932C04306702031C04
:10092800962C972C982CAE2C831203176708513EEF
:1009380084008313800167084D3E840080016708A6
:10094800AF3E840080010130E7070318E80A003051
:10095800E8078A2C7F3083160313210583120313BB
:10096800BD000A303D06031DBA2CBB2C8C28003074
:100978000A128A15A5240A128A1183120313200861
:10098800BD002108BE003E0DBE0CBD0C3E0DBE0CC8
:10099800BD0C3D08B0003E08B1000030B200B30005
:1009A800FF30B4000030B500EC30B600FF30B700BF
:1009B8003C30B8000030B9000A128A15F2240A1235
:1009C8008A11831203133008BF003F0883120317EC
:1009D800DE0001300A128A15A5240A128A11831230
:1009E80003132008BD002108BE003E0DBE0CBD0C3F
:1009F8003E0DBE0CBD0C3D08B0003E08B1000030F5
:100A0800B200B300FF30B4000030B5000030B600CB
:100A1800B7006430B8000030B9000A128A15F22411
:100A28000A128A11831203133008BF003F08831289
:100A38000317DF0005300A128A15A5240A128A1145
:100A4800831203132008BD002108BE003E0DBE0C12
:100A5800BD0C3E0DBE0CBD0C3D08B0003E08B100FB
:100A68000030B200B300FF30B4000030B5000030F1
:100A7800B600B7006430B8000030B9000A128A1511
:100A8800F2240A128A11831203133008BF003F08A8
:100A980083120317E00083120313B40183120317B0
:100AA8005E0883120313BD003D08B50002300A1228
:100AB8008A1561250A128A1183120313B40183125D
:100AC80003175F0883120313BD003D08B500043007
:100AD8000A128A1561250A128A1183120313B401B6
:100AE80083120317600883120313BD003D08B50085
:100AF80006300A128A1561250A128A118C280A12F0
:100B08008A110E288312031386198B2D8C2D932D91
:100B18000130F0070318F10A0030F107C22D861DD5
:100B2800962D972DC22D01307102F43003197002F1
:100B3800031C9F2DA02DA42D0130F5007508D107A9
:100B480005307102DC3003197002031CAC2DAD2D89
:100B5800B12D0130F5007508CD070B307102B830A2
:100B680003197002031CB92DBA2DC02D0130F500F0
:100B7800750883160313AF07F001F1018312061AF3
:100B8800C62DC72DCE2D0130F0070318F10A00300D
:100B9800F107FD2D061ED12DD22DFD2D013071023C
:100BA800F43003197002031CDA2DDB2DDF2D013020
:100BB800F5007508D20705307102DC3003197002A0
:100BC800031CE72DE82DEC2D0130F5007508CE0744
:100BD8000B307102B83003197002031CF42DF52D87
:100BE800FB2D0130F500750883160313B007F001DB
:100BF800F1018312861A012E022E092E0130F00708
:100C08000318F10A0030F107382E861E0C2E0D2E1F
:100C1800382E01307102F43003197002031C152EAE
:100C2800162E1A2E0130F5007508D307053071020B
:100C3800DC3003197002031C222E232E272E0130CC
:100C4800F5007508CF070B307102B8300319700230
:100C5800031C2F2E302E362E0130F5007508831612
:100C68000313B107F001F1018312851A3C2E3D2EC2
:100C7800442E0130F0070318F10A0030F107732EF3
:100C8800851E472E482E732E01307102F430031949
:100C98007002031C502E512E552E0130F500750898
:100CA800D40705307102DC3003197002031C5D2E75
:100CB8005E2E622E0130F5007508D0070B307102E8
:100CC800B83003197002031C6A2E6B2E712E013086
:100CD800F500750883160313B207F001F101080047
:100CE80083120313A40024087F39A2002208A50058
:100CF80020087F39A2002208A60021087F39A20017
:100D08002208A7002108A20007300310A20CFF3E0A
:100D1800031D892E22087F39A3002308A800AA01F1
:100D2800AB01B001B10183120313AC01AD01831211
:100D380003133008253E840083130008A2002C0A00
:100D4800A72E0310A20CFF3E031DA52E2208013971
:100D5800A3002308AA070130AC070318AD0A003026
:100D6800AD072D08803AFF0080307F02031DBE2E9C
:100D780008302C02031CC12EC22E9B2E8312031393
:100D88002A1CC72EC82ED02E8030A2003008253E3F
:100D98008400220883138007AA010130B0070318D2
:100DA800B10A0030B1073108803AFF0080307F0275
:100DB800031DE02E04303002031CE32EE42E972E90
:100DC80083120313B201B30183120313AE01AF01FF
:100DD800831203132E08253E840083130008A20003
:100DE800320AF82E0310A20CFF3E031DF62E22082D
:100DF8000139A3002308AB070130AE070318AF0A77
:100E08000030AF072F08803AFF0080307F02031DB3
:100E18000F2F04302E02031C122F132FEC2E8312D7
:100E280003132B1C182F192F262F0130A200320A6A
:100E38001F2F0310A20DFF3E031D1D2F2208A30024
:100E48002308A907AB010130B2070318B30A003021
:100E5800B3073308803AFF0080307F02031D362F26
:100E680008303202031C392F3A2FE82E25300800AB
:100E780083120313AC01AD0183120313AE01AF015A
:100E8800A22F2C08A6002607CF3E84008313000853
:100E9800A700840A0008A8002E08A9002907270728
:100EA800AA0028080318013EAB002A08840083170B
:100EB8002B1C831320088000840A21088000B42F8B
:100EC8002C08A6002607CF3E840083130008A7003D
:100ED800840A0008A8002E08A90029072707AA00E5
:100EE80028080318013EAB002A08840083172B1C2E
:100EF800831322088000840A23088000B42F2C085A
:100F0800A6002607CF3E840083130008A700840AA2
:100F18000008A8002E08A90029072707AA00280802
:100F28000318013EAB002A08840083172B1C831387
:100F380024088000840A25088000B42F8312031334
:100F48002F08003A0319A92FB42F2E08003A0319C5
:100F5800452F013A0319642F033A0319832FB42F3D
:100F68000130AE070318AF0A0030AF072F08803AE8
:100F7800FF0080307F02031DC32F03302E02031CA5
:100F8800C62FC72FA22F013083120313AC070318F3
:100F9800AD0A0030AD072D08803AFF0080307F028F
:100FA800031DD82F10302C02031CDB2FDC2F402F01
:100FB8000800C3340034B7340034E4340134D8347E
:100FC8000134CC340134C0340134B4340134A8348D
:100FD80001349C340134903401344C3401344034AD
:100FE800013434340134283401341C3401341034CD
:020FF8000134C2
:1010000008308A000408840A820700343F3406341A
:101010005B344F3466346D347D3407347F346F3441
:0210200000349A
:1018240064008001840A0406031900340406132C9E
:10183400831203138C1E1F2C202C1A2C8C121A08B2
:10184400080083120313A0000C1E292C2A2C262C1A
:101854000C12200899000800E33083160313850056
:10186400831203139F018030831603139F001930E2
:1018740083120313A000A00B3D2C402C08007E080B
:101884008A007F0882000A128A1541240A128A15E6
:101894008000840A04087D0603190034FF0A031932
:1018A400FE0A452C83120313A300230C031C051109
:1018B40003180515200C031C851103188515210C2C
:1018C400031C051203180516220888000800831259
:1018D4000313A300A201231C702C712C752C200867
:1018E400A1002108A2070310A00D0310A30C2308D4
:1018F400031D7D2C7E2C6D2C2208080083120313FB
:10190400A200A301A401992C23082207A100210805
:10191400840000080A128A1523240A128A15013049
:1019240083120313A3070318A40A0030A40723088F
:101934002207A1002108840083130008031DA32C9F
:10194400A42C862C080083120313A3002308A200EE
:1019540002300310A20DFF3E031DAB2C0310220D19
:1019640001389F00043083120313A200A20BB82C89
:101974000000831203131F151F19C12CC22CBE2C87
:101984001E08A100831603131E0883120313A0006C
:10199400080083120313A401A501201CD22CD32C0C
:1019A400D92C2208A4070318A50A2308A507013087
:1019B4000310A20DA30DFF3E031DDA2C013003100A
:1019C400A10CA00CFF3E031DE12C20082104031DE3
:1019D400EC2CED2CCF2C2508A1002408A000080035
:1019E4008312031332083402A7003308031C330A9A
:1019F4003502A80032083002A0003308031C330A61
:101A04003102A10036083802A2003708031C370A45
:101A14003902A3000A128A15CB240A128A158312EA
:101A240003132108AA002008A9000A128A158F2688
:101A34000A128A158312031336082707B0003708E1
:101A44000318370A2807B100080083160313071385
:101A5400981683120313981718162F08B10030082C
:101A6400B2000030B21BFF30B300B40006300310E4
:101A7400B10DB20DB30DB40DFF3E031D392D340865
:101A8400A3003308A2003208A1003108A0000130ED
:101A9400A700E830A6004830A5000030A4000A12D0
:101AA4008A1563270A128A15831203132008FF3E3E
:101AB4008316031399008B170B178C1608008312D7
:101AC4000313B9003408B6003608A0003508B7007F
:101AD4003708A10039080A128A1174260A128A15D5
:101AE40083120313B8003808BA00BB01BC01831287
:101AF40003133A080A128A1580240A128A1501303F
:101B040083120313B6003608BA070130BB07031863
:101B1400BC0A0030BC073C08803AFF0080307F02DA
:101B2400031D962D05303B02031C992D9A2D792D0A
:101B34000800831203132008A33E84007F3083131C
:101B44000005A2002408220680392206A4002408E5
:101B54007F39A200A3012208A5002308A6002608B5
:101B6400A3002508A2000730FF000310A20DA30D57
:101B7400FF0BB72D80302205A50000302305A600F9
:101B84002008A23E84007F300005A200240822061B
:101B940080392206A40024087F39A20025082204E3
:101BA400A5002608A6002608A1002508A000080014
:101BB400831203138C1EDF2DE02DE92D6218E32D13
:101BC400E42DE92D62146310E310D901D8018C1EB1
:101BD400EC2DED2D042E621CF02DF12D042E0A1295
:101BE4008A151A240A128A15F60083120313590857
:101BF400A03E84007608831380000130F600760846
:101C0400D907D8010B1D072E082E122E0B110A120C
:101C14008A1186250A128A1506308312031381005D
:101C24000C1C152E162E2B2E0C100130F6007608E7
:101C3400F40714307402031C202E212E272E611465
:101C4400F4010130F6007608D8073C308F00B0303C
:101C54008E0079088A0078088400770E8300FE0ECF
:101C64007E0E090083120313A601A31F3A2E3B2EF6
:101C7400422EA209A309A20A0319A30AA601A60ACD
:101C8400A11F452E462E4B2EA009A109A00A031917
:101C9400A10A200821040319502E512E802EA501DB
:101CA400A50A5F2E01300310A00DA10DFF3E031DF8
:101CB400552E0130A4002408A507A11F622E632E0F
:101CC400542E21082302031D692E20082202031C1E
:101CD4006C2E6D2E732E2008A2022108031CA30370
:101CE400A30201300310A10CA00CFF3E031D742EAF
:101CF4000130A502031D7F2E802E632E26080319B2
:101D0400842E852E8A2EA209A309A20A0319A30AE6
:101D14002308A1002208A000080083120313AD01C8
:101D2400A81F952E962E9D2EA709A809A70A031968
:101D3400A80AAD01AD0AAA1FA02EA12EAA2EA90998
:101D4400AA09A90A0319AA0A0130AB002B08AD0697
:101D5400AE01AF01270828040319B12EB22EE92ED3
:101D6400AC01AC0AC02E01300310A70DA80DFF3E34
:101D7400031DB62E0130AB002B08AC07A81FC32EE1
:101D8400C42EB52E01300310AE0DAF0DFF3E031D62
:101D9400C52E28082A02031DD12E27082902031C58
:101DA400D42ED52EDC2E2708A9022808031CAA034A
:101DB400AA022E1401300310A80CA70CFF3E031D29
:101DC400DD2E0130AC02031DE82EE92EC42E2D08B1
:101DD4000319ED2EEE2EF32EAE09AF09AE0A031948
:101DE400AF0A2F08A8002E08A700080083120313C7
:101DF4003008B2003208DA006430A7000030A800CE
:101E04005A08B200B3013208A9003308AA000A1222
:101E14008A158F260A128A15831203132708B40021
:101E24003408DD000A30A7000030A8005A08B200C8
:101E3400B3013208A2003308A3006430A0000030CC
:101E4400A1000A128A1534260A128A158312031372
:101E54002108AA002008A9000A128A158F260A124E
:101E64008A15831203132708B4003408DE005A08C5
:101E7400B200B3013208A2003308A3006430A0000A
:101E84000030A1000A128A1534260A128A15831218
:101E940003132108B6002008B5000A30A000003062
:101EA400A1003608A3003508A2000A128A153426B8
:101EB4000A128A15831203132008B2003208DF00C5
:101EC400080083120313AA01A31F692F6A2F772F17
:101ED400A009A109A209A309A00A0319A10A0319C7
:101EE400A20A0319A30AAA01AA0AA71F7A2F7B2F01
:101EF4008A2FA409A509A609A709A40A0319A50AF2
:101F04000319A60A0319A70A0130A8002808AA067B
:101F14000030AE000030AD000030AC000030AB004B
:101F240023082204210420040319992F9A2FE72F50
:101F3400A901A90AAA2F0130A8000310A00DA10D20
:101F4400A20DA30DA80B9F2F0130A8002808A907F4
:101F5400A31FAD2FAE2F9D2F0130A8000310AB0D92
:101F6400AC0DAD0DAE0DA80BB02F23082702031D39
:101F7400C52F22082602031DC52F21082502031D93
:101F8400C52F20082402031CC82FC92FD82F2008CE
:101F9400A4022108031C210FA5022208031C220FFE
:101FA400A6022308031C230FA7022B1401300310DD
:101FB400A30CA20CA10CA00CFF3E031DD92F0130D1
:101FC400A902031DE62FE72FAE2F2A080319EB2FD2
:101FD400EC2FF72FAB09AC09AD09AE09AB0A031915
:101FE400AC0A0319AD0A0319AE0A2E08A3002D0882
:0C1FF400A2002C08A1002B08A00008008F
:02400E00F23F7F
:00000001FF
