:020000040000FA
:060000000A128A110E280D
:10000800FE00030EF7000408F8000A08F9000A12B7
:100018008A15502D0A128A1111288313E730FD0022
:100028000730FE00DD30FF00C73084000A128A1551
:10003800BA230A128A110A128A11FD270A128A1192
:10004800E400831790308400F0300A128A15872361
:100058000A128A111030840058300A128A15872330
:100068000A128A118313A0308400C7300A128A1535
:1000780087230A128A114C30840064300A128A15C8
:1000880087230A128A11F001F101F201F301F40148
:1000980083010A128A1150281F3083160313860021
:1000A80080308700880101308900E0308B000430FF
:1000B80081000630831203138100313090000A1248
:1000C8008A15A3230A128A11803083120313AF0002
:1000D8002530B0000A128A15D6240A128A11023075
:1000E80083120313A0000030A1000230A2000030E8
:1000F800A3000230A4000030A5000A128A15D926F0
:100108000A128A113C30831203138F00B0308E001C
:1001180083120317E10183120313DB018312031710
:100128005D1483120313621C9A289B28C728B228DF
:1001380063146210C72804305802031CA428A52899
:10014800A8286314E31462100F305902031CAD2869
:10015800AE28C7286314E3106210C7288316031358
:1001680020087F3983120313BC00BD013D08003A03
:100178000319BF289F283C08083A03199C28023A0B
:1001880003199C289F28631CCA28CB28622962105F
:10019800D9016310D801E31CD228D328D528E3104D
:1001A8006229A0300A128A114C260A128A11831277
:1001B8000317E30103306302031CE328E428E5285E
:1001C8006229053083120313BC003C08A000831287
:1001D800031763080A128A15DE230A128A1183128A
:1001E8000313BD003D0883120317E2006208A03E16
:1001F80084008313000883120313BC003C08831295
:100208000317DE005E0883120313BC0003103C0CC6
:100218000F39BD003D0883120317D8006208A03EBD
:100228008400000883120313BC003C0883120317E0
:10023800DE005E0883120313BC0005300310BC0CFB
:10024800FF3E031D22293C080339FF3EBD003D083F
:1002580083120317D90062080A128A1510250A1298
:100268008A1183120317580883120313BC003C0732
:10027800C73E840083130008BD00840A0008BE003E
:1002880083120317590883120313BF003F073D0762
:10029800C0003E080318013EC100400884008317CF
:1002A800411C831320088000840A21088000013043
:1002B800BC003C0883120317E307DE2883120317E8
:1002C8005D1C67296829592AE60110306602031C5B
:1002D8006E296F2970292A2AE70103306702031C57
:1002E800762977297829212A660883120313BC0006
:1002F8003C07C73E840083130008BD00840A000839
:10030800BE0083120317670883120313BF003F0759
:100318003D07C0003E080318013EC10040088400A4
:100328008317411C83130008C200840A0008C30015
:1003380083120317660883120313C4004407C73ED9
:10034800840083130008C500840A0008C6008312CD
:100358000317670883120313C7004707063E4507BC
:10036800C80046080318013EC900480884008317DE
:10037800491C83130008CA00840A0008CB004308FC
:100388004B06031DC92942084A060319CC29CD2961
:100398001A2A83120317660883120313BC003C074A
:1003A800C73E840083130008BD00840A0008BE000D
:1003B80083120317670883120313BF003F073D0723
:1003C800C0003E080318013EC1004008840083179E
:1003D800411C83130008C200840A0008C30083126A
:1003E8000317660883120313C4004407C73E84003A
:1003F80083130008C500840A0008C6008312031787
:10040800670883120313C7004707063E4507C8005D
:1004180046080318013EC900480884008317491C90
:10042800831342088000840A430880000130BC001E
:100438003C0883120317E70771290130831203135D
:10044800BC003C0883120317E607692903136408F4
:10045800013E0F39BC003C08E4006408BC003C07BE
:10046800C73E840083130008BD00840A0008BE004C
:100478003D08063EBF003E080318013E003EC0008E
:100488003F0884008317401C83130008C100840AB6
:100498000008C20041084204031D532A542A592A5D
:1004A8006408031D582A592A2A2A0313611C5D2A45
:1004B8005E2A1F2B601C612A622A1F2B01308312BF
:1004C8000317DF070318E00A0030E0075D10831206
:1004D80003136408BC003C07C73E8400831300086C
:1004E800BD00840A0008BE00831203176108831246
:1004F8000313BF003F07063E3D07C0003E08031830
:10050800013EC100400884008317411C8313000882
:10051800C200840A0008C300831203175F0883120D
:1005280003134202C400831203176008031C600A05
:10053800831203134302C500C51FA32AA42AA72AAE
:10054800831203175D140230831203176106031D1B
:10055800AE2AAF2AE52A831203136408BC003C07BD
:10056800C73E840083130008BD00840A0008BE004B
:100578003D080A3EBF003E080318013E003EC00089
:100588003F0884008317401C83130008C100840AB5
:100598000008C200831203176008803A831203130D
:1005A800C3004208803A4302031DDE2A4108831231
:1005B80003175F02031CE12AE22AE52A83120317C4
:1005C8005D14831203136408BC003C07C73E840013
:1005D80083130008BD00840A0008BE0083120317B5
:1005E800610883120313BF003F07063E3D07C000A2
:1005F8003E080318013EC100400884008317411CCF
:1006080083130008C200840A0008C300831203177A
:100618005F08831203134202B000831203176008B5
:10062800031C600A831203134302B1000A128A15DD
:100638006E260A128A11831203135B085C060319DB
:10064800262B272BA32B5B08BC003C08DC008D2B3A
:100658005D080319302B312BA32BA001A1015D08E4
:10066800013E84000A128A1500200A128A11BC0071
:100678003C08A20001300A128A15C9230A128A11FD
:10068800A32B5E08031D492B4A2B4F2B5D0803192A
:100698004E2B4F2BA32BA001A00AA1015E08013EFF
:1006A80084000A128A1500200A128A11BC003C082C
:1006B800A20000300A128A15C9230A128A11A32B34
:1006C800A001A101A10A5F08013E84000A128A154F
:1006D80000200A128A11BC003C08A20000300A124D
:1006E8008A15C9230A128A11A32BA001A101640843
:1006F800013E84000A128A1500200A128A11BC00E1
:100708003C08A20001300A128A15C9230A128A116C
:10071800A32B5B08BC00BD013D08003A0319952BCB
:10072800A32B3C08003A03192C2B013A0319452B3B
:10073800033A0319642B013A0319792BA32B0330CD
:1007480083120313A0000030A1005B08013EA20041
:10075800003003180130A3000A128A15AA250A12CC
:100768008A11831203132008BC003C08DB00611CBB
:10077800BE2BBF2BC52B601CC22BC32BC52B6110F6
:100788006010611CC82BC92BCE2B6018CC2BCD2B2D
:10079800CE2B60147F3083160313200583120313B6
:1007A800BC0008303C06031DDA2BDB2B912C83128E
:1007B8000317E801E9016908803AFF0080307F02E9
:1007C800031DE82B04306802031CEB2BEC2BED2BEC
:1007D800692C83120313B401B40A8312031768083F
:1007E800543E84008313000883120313BC003C08A2
:1007F800B5000130BD00831203176808013E013EB1
:1008080083120313092C0310BD0DFF3E031D072C93
:100818003D080A128A1542240A128A1110308312DE
:100828000313BC003C08B400831203176808503E49
:1008380084008313000883120313BD003D08B5002C
:100848000130BE00831203176808013E013E83127F
:100858000313302C0310BE0DFF3E031D2E2C3E0843
:100868000A128A1542240A128A11113083120313BC
:10087800BC003C08B4008312031768084C3E84008F
:100888008313000883120313BD003D08B50001302F
:10089800BE00831203176808013E013E831203134A
:1008A800572C0310BE0DFF3E031D552C3E080A129F
:1008B8008A1542240A128A11013083120317E807A5
:1008C8000318E90A0030E907DF2B83120317E40154
:1008D800E5016508803AFF0080307F02031D762C11
:1008E80004306402031C792C7A2C7B2C912C831203
:1008F80003176408543E8400831380016408503E43
:100908008400800164084C3E840080010130E407C3
:100918000318E50A0030E5076D2C7F3083160313B2
:10092800200583120313BC000A303C06031D9D2CCE
:100938009E2C952800300A128A15F5230A128A116E
:10094800831203132008BC002108BD003D0DBD0C17
:10095800BC0C3D0DBD0CBC0C3C08B0003D08B10002
:100968000030B200B300FF30B4000030B500EC3006
:10097800B600FF30B7003C30B8000030B9000A12AA
:100988008A15A1240A128A11831203133008BE00A3
:100998003E0883120317DA0001300A128A15F5237C
:1009A8000A128A11831203132008BC002108BD0013
:1009B8003D0DBD0CBC0C3D0DBD0CBC0C3C08B00085
:1009C8003D08B1000030B200B300FF30B400003081
:1009D800B5000030B600B7006430B8000030B90088
:1009E8000A128A15A1240A128A11831203133008E5
:1009F800BE003E0883120317DB0005300A128A1571
:100A0800F5230A128A11831203132008BC00210857
:100A1800BD003D0DBD0CBC0C3D0DBD0CBC0C3C0817
:100A2800B0003D08B1000030B200B300FF30B400A0
:100A38000030B5000030B600B7006430B8000030B0
:100A4800B9000A128A15A1240A128A118312031303
:100A58003008BE003E0883120317DC00831203131C
:100A6800B401831203175A0883120313BC003C080D
:100A7800B50002300A128A1542240A128A1183121A
:100A88000313B401831203175B0883120313BC001A
:100A98003C08B50004300A128A1542240A128A1149
:100AA80083120313B401831203175C088312031320
:100AB800BC003C08B50006300A128A1542240A1206
:100AC8008A1195280A128A110E288312031386198F
:100AD8006E2D6F2D762D0130F0070318F10A0030C6
:100AE800F107A32D861D792D7A2DA32D01307102D2
:100AF800F43003197002031C822D832D872D0130D9
:100B0800F5007508D40705307102DC30031970024E
:100B1800031C8F2D902D942D0130F5007508D007FA
:100B28000B307102B83003197002031C9C2D9D2DE7
:100B3800A12D0130F5007508CC07F001F101061A66
:100B4800A62DA72DAE2D0130F0070318F10A0030AD
:100B5800F107DB2D061EB12DB22DDB2D0130710200
:100B6800F43003197002031CBA2DBB2DBF2D0130C0
:100B7800F5007508D50705307102DC3003197002DD
:100B8800031CC72DC82DCC2D0130F5007508D107E1
:100B98000B307102B83003197002031CD42DD52D07
:100BA800D92D0130F5007508CD07F001F101861A3D
:100BB800DE2DDF2DE62D0130F0070318F10A003095
:100BC800F107132E861EE92DEA2D132E013071022E
:100BD800F43003197002031CF22DF32DF72D0130A8
:100BE800F5007508D60705307102DC30031970026C
:100BF800031CFF2D002E042E0130F5007508D207C6
:100C08000B307102B83003197002031C0C2E0D2E24
:100C1800112E0130F5007508CE07F001F101851A93
:100C2800162E172E1E2E0130F0070318F10A003079
:100C3800F1074B2E851E212E222E4B2E01307102DC
:100C4800F43003197002031C2A2E2B2E2F2E01308C
:100C5800F5007508D70705307102DC3003197002FA
:100C6800031C372E382E3C2E0130F5007508D307AB
:100C78000B307102B83003197002031C442E452E44
:100C8800492E0130F5007508CF07F001F101080081
:100C980083120313B100AB01A801AC01A901AA0199
:100CA800B201B30183120313AD01AE018312031322
:100CB80032083107A4002408840083130008A50023
:100CC8002D0A682E0310A50CFF3E031D662E25086D
:100CD8000139A6002608A8070130AD070318AE0A97
:100CE8000030AE072E08803AFF0080307F02031DD7
:100CF8007F2E08302D02031C822E832E5A2E83123B
:100D08000313281C882E892E8F2EAB01AB0A3208BC
:100D1800A4002408AC000130B2070318B30A00305D
:100D2800B3073308803AFF0080307F02031D9E2EF0
:100D380005303202031CA12EA22E562E8312031355
:100D4800B401B50183120313AF01B0018312031379
:100D58002F083107A4002408840083130008A50085
:100D6800340AB82E0310A50CFF3E031DB62E250825
:100D78000139A6002608A9070130AF070318B00AF1
:100D88000030B0073008803AFF0080307F02031D32
:100D9800CF2E04302F02031CD22ED32EAA2E83125C
:100DA8000313291CD82ED92EDF2EAB01AB0A340829
:100DB800A4002408AA000130B4070318B50A0030BB
:100DC800B5073508803AFF0080307F02031DEE2EFC
:100DD80008303402031CF12EF22EA62E83120313C0
:100DE8002B080319F82EF92E142F2A08A40024081A
:100DF800A0002C083107A5002508840083130008EB
:100E08000A128A1570240A128A1183120313A60083
:100E18002C083107A70027088400260883138000C0
:100E2800080083120313A40024087F39A2002208B3
:100E3800A50020087F39A2002208A60021087F39D2
:100E4800A2002208A7002108A20007300310A20C64
:100E5800FF3E031D2A2F22087F39A3002308A8007C
:100E6800AA01AB01B001B10183120313AC01AD01BA
:100E7800831203133008253E840083130008A20060
:100E88002C0A482F0310A20CFF3E031D462F2208F0
:100E98000139A3002308AA070130AC070318AD0ADB
:100EA8000030AD072D08803AFF0080307F02031D17
:100EB8005F2F08302C02031C622F632F3C2F8312F4
:100EC80003132A1C682F692F712F8030A200300865
:100ED800253E8400220883138007AA010130B00749
:100EE8000318B10A0030B1073108803AFF0080309A
:100EF8007F02031D812F04303002031C842F852FAD
:100F0800382F83120313B201B30183120313AE0106
:100F1800AF01831203132E08253E840083130008B3
:100F2800A200320A992F0310A20CFF3E031D972F2F
:100F380022080139A3002308AB070130AE070318C4
:100F4800AF0A0030AF072F08803AFF0080307F02D9
:100F5800031DB02F04302E02031CB32FB42F8D2F86
:100F6800831203132B1CB92FBA2FC72F0130A200ED
:100F7800320AC02F0310A20DFF3E031DBE2F220808
:100F8800A3002308A907AB010130B2070318B30A6D
:100F98000030B3073308803AFF0080307F02031D1A
:100FA800D72F08303202031CDA2FDB2F892F253088
:100FB8000800BB340034AF340034E4340134D8348E
:100FC8000134CC340134C0340134B4340134A8348D
:100FD80001349C340134903401344C3401344034AD
:100FE800013434340134283401341C3401341034CD
:040FF80001340F347D
:1010000008308A000408840A820700343F3406341A
:101010005B344F3466346D347D3407347F346F3441
:0210200000349A
:10170E0064008001840A0406031900340406882B41
:10171E00831203138C1E942B952B8F2B8C121A086D
:10172E00080083120313A0000C1E9E2B9F2B9B2BD5
:10173E000C12200899000800E3308316031385006D
:10174E00831203139F018030831603139F001930F9
:10175E0083120313A000A00BB22BB52B08007E083A
:10176E008A007F0882000A128A15B6230A128A1589
:10177E008000840A04087D0603190034FF0A031949
:10178E00FE0ABA2B83120313A300230C031C0511AC
:10179E0003180515200C031C851103188515210C43
:1017AE00031C051203180516220888000800831270
:1017BE000313A300A201231CE52BE62BEA2B200822
:1017CE00A1002108A2070310A00D0310A30C2308EB
:1017DE00031DF22BF32BE22B2208080083120313B6
:1017EE00A3002308A20002300310A20DFF3E031D2A
:1017FE00FB2B0310220D01389F00043083120313BC
:10180E00A200A20B082C0000831203131F151F1930
:10181E00112C122C0E2C1E08A100831603131E0869
:10182E0083120313A000080083120313A401A50161
:10183E00201C222C232C292C2208A4070318A50ACD
:10184E002308A50701300310A20DA30DFF3E031DB3
:10185E002A2C01300310A10CA00CFF3E031D312CCD
:10186E0020082104031D3C2C3D2C1F2C2508A10013
:10187E002408A000080083120313B9003408B60030
:10188E003608A0003508B7003708A10039080A123B
:10189E008A1115270A128A1583120313B800380805
:1018AE00BA00BB013A080A128A1598230A128A1541
:1018BE00013083120313B6003608BA070130B600A2
:1018CE003608BB0705303B02031C6E2C6F2C592CBF
:1018DE00080083120313A3000130A100200A792C03
:1018EE000310A10DFF3E031D772C210823050319BC
:1018FE00812C822C912C0130A100200A882C0310FF
:10190E00A10DFF3E031D862C2108A2002208A30470
:10191E002308A02C0130A100200A972C0310A10D42
:10192E00FF3E031D952C2108FF3AA2002208A305B5
:10193E00230808008312031332083402A700330869
:10194E00031C330A3502A80032083002A000330807
:10195E00031C330A3102A10036083802A2003708F0
:10196E00031C370A3902A3000A128A151B240A1215
:10197E008A15831203132108AA002008A9000A124F
:10198E008A1505260A128A158312031336082707AD
:10199E00B00037080318370A2807B100080083166D
:1019AE0003130713981683120313981718162F088C
:1019BE00B1003008B2000030B21BFF30B300B400EB
:1019CE0006300310B10DB20DB30DB40DFF3E031D65
:1019DE00E82C3408A3003308A2003208A100310815
:1019EE00A0000130A700E830A6004830A500003066
:1019FE00A4000A128A1563270A128A15831203138A
:101A0E002008FF3E8316031399008B170B178C16B5
:101A1E00080083120313A4002408A33E84007F3021
:101A2E0083130005A2002508220680392206A50090
:101A3E0025087F39A200A3012208A6002308A700CB
:101A4E002708A3002608A2000730FF000310A20DEE
:101A5E00A30DFF0B2D2D80302205A600003023058F
:101A6E00A7002408A23E84007F300005A2002508AE
:101A7E00220680392206A50025087F39A2002608F5
:101A8E002204A6002708A7002708A1002608A00008
:101A9E000800831203138C1E552D562D5F2D6218D0
:101AAE00592D5A2D5F2D62146310E310D901D80100
:101ABE008C1E622D632D7A2D621C662D672D7A2D5C
:101ACE000A128A158F230A128A15F600831203133F
:101ADE005908A03E84007608831380000130F6007A
:101AEE007608D907D8010B1D7D2D7E2D882D0B1163
:101AFE000A128A1169250A128A15063083120313F7
:101B0E0081000C1C8B2D8C2DA12D0C100130F6009C
:101B1E007608F40714307402031C962D972D9D2D14
:101B2E006114F4010130F6007608D8073C308F00BE
:101B3E00B0308E0079088A0078088400770E830012
:101B4E00FE0E7E0E090083120313A601A31FB02DF5
:101B5E00B12DB82DA209A309A20A0319A30AA60141
:101B6E00A60AA11FBB2DBC2DC12DA009A109A00A3B
:101B7E000319A10A200821040319C62DC72DF62D1D
:101B8E00A501A50AD52D01300310A00DA10DFF3E14
:101B9E00031DCB2D0130A4002408A507A11FD82DAD
:101BAE00D92DCA2D21082302031DDF2D2008220264
:101BBE00031CE22DE32DE92D2008A2022108031CAF
:101BCE00A303A30201300310A10CA00CFF3E031DC2
:101BDE00EA2D0130A502031DF52DF62DD92D26086F
:101BEE000319FA2DFB2D002EA209A309A20A03192F
:101BFE00A30A2308A1002208A000080083120313E1
:101C0E00AD01A81F0B2E0C2E132EA709A809A70A8B
:101C1E000319A80AAD01AD0AAA1F162E172E202EE3
:101C2E00A909AA09A90A0319AA0A0130AB002B08AF
:101C3E00AD06AE01AF01270828040319272E282E62
:101C4E005F2EAC01AC0A362E01300310A70DA80D85
:101C5E00FF3E031D2C2E0130AB002B08AC07A81F36
:101C6E00392E3A2E2B2E01300310AE0DAF0DFF3E46
:101C7E00031D3B2E28082A02031D472E2708290282
:101C8E00031C4A2E4B2E522E2708A9022808031C8D
:101C9E00AA03AA022E1401300310A80CA70CFF3EB3
:101CAE00031D532E0130AC02031D5E2E5F2E3A2E05
:101CBE002D080319632E642E692EAE09AF09AE0AE4
:101CCE000319AF0A2F08A8002E08A70008008312D8
:101CDE0003133008B2003208DA006430A700003077
:101CEE00A8005A08B200B3013208A9003308AA00AE
:101CFE000A128A1505260A128A158312031327085B
:101D0E00B4003408DD000A30A7000030A8005A08DD
:101D1E00B200B3013208A2003308A3006430A00061
:101D2E000030A1000A128A15AA250A128A158312FA
:101D3E0003132108AA002008A9000A128A150526F5
:101D4E000A128A15831203132708B4003408DE0022
:101D5E005A08B200B3013208A2003308A30064305F
:101D6E00A0000030A1000A128A15AA250A128A15AF
:101D7E00831203132108B6002008B5000A30A00014
:101D8E000030A1003608A3003508A2000A128A15F9
:101D9E00AA250A128A15831203132008B2003208EC
:101DAE00DF00080083120313AC01AD013B2F2C089A
:101DBE00A6002607C73E840083130008A700840AE6
:101DCE000008A8002D08A90029072707AA0028083F
:101DDE000318013EAB002A08840083172B1C8313C3
:101DEE0020088000840A210880004E2F2C08A600AF
:101DFE002607C73E840083130008A700840A000844
:101E0E00A8002D08A90029072707AA0028080318EB
:101E1E00013EAB002A08840083172B1C8313220873
:101E2E008000840A230880004E2F2C08A600260767
:101E3E00C73E840083130008A700840A0008A80088
:101E4E002D08A90029072707AA0028080318013E14
:101E5E00AB002A08840083172B1C831324088000F0
:101E6E00840A250880004E2F2D08A600A7012708FA
:101E7E00003A0319432F4E2F2608003A0319DE2E7F
:101E8E00013A0319FD2E033A03191C2F4E2F013070
:101E9E00A6002608AD0703302D02031C572F582F1E
:101EAE003B2F0130A6002608AC0710302C02031C75
:101EBE00612F622FDC2E080083120313AA01A31FC9
:101ECE00692F6A2F772FA009A109A209A309A00AD9
:101EDE000319A10A0319A20A0319A30AAA01AA0A3D
:101EEE00A71F7A2F7B2F8A2FA409A509A609A70958
:101EFE00A40A0319A50A0319A60A0319A70A013091
:101F0E00A8002808AA060030AE000030AD00003050
:101F1E00AC000030AB002308220421042004031976
:101F2E00992F9A2FE72FA901A90AAA2F0130A800ED
:101F3E000310A00DA10DA20DA30DA80B9F2F013014
:101F4E00A8002808A907A31FAD2FAE2F9D2F013083
:101F5E00A8000310AB0DAC0DAD0DAE0DA80BB02F40
:101F6E0023082702031DC52F22082602031DC52F95
:101F7E0021082502031DC52F20082402031CC82F8B
:101F8E00C92FD82F2008A4022108031C210FA50257
:101F9E002208031C220FA6022308031C230FA702EC
:101FAE002B1401300310A30CA20CA10CA00CFF3EAD
:101FBE00031DD92F0130A902031DE62FE72FAE2FE7
:101FCE002A080319EB2FEC2FF72FAB09AC09AD093B
:101FDE00AE09AB0A0319AC0A0319AD0A0319AE0A0E
:101FEE002E08A3002D08A2002C08A1002B08A0008B
:021FFE000800D9
:02400E00F23F7F
:00000001FF
