:020000040000FA
:100000000A128A110E280F34FE00030EF7000408AE
:10001000F8000A08F9000A128A15252D0A128A1119
:1000200011288313E730FD000730FE00E030FF00A9
:10003000C73084000A128A158F230A128A110A1205
:100040008A1103200A128A11E40083179030840079
:10005000F0300A128A155C230A128A1110308400CB
:1000600058300A128A155C230A128A118313A030B1
:100070008400C7300A128A155C230A128A114C3098
:10008000840064300A128A155C230A128A11F00176
:10009000F101F201F301F40183010A128A115028DF
:1000A0001F308316031386008030870088010130DB
:1000B0008900E0308B000430810006308312031386
:1000C0008100313090000A128A1578230A128A11B1
:1000D000803083120313AF002530B0000A128A1556
:1000E000AB240A128A11023083120313A0000030DD
:1000F000A1000230A2000030A3000230A4000030B2
:10010000A5000A128A15AE260A128A113C30831203
:1001100003138F00B0308E0083120317E1018312A6
:100120000313DB01831203175D140313621C992868
:100130009A28C628B12863146210C62804305802D1
:10014000031CA328A428A7286314E31462100F300B
:100150005902031CAC28AD28C6286314E3106210B2
:10016000C6288316031320087F3983120313BC00AB
:10017000BD013D08003A0319BE289E283C08083AF4
:1001800003199B28023A03199B289E28631CC9283F
:10019000CA2861296210D9016310D801E31CD12853
:1001A000D228D428E3106129A0300A128A117A26B5
:1001B0000A128A1183120317E30103306302031C3E
:1001C000E228E328E4286129053083120313BC00E8
:1001D0003C08A0008312031763080A128A15B32390
:1001E0000A128A1183120313BD003D0883120317FC
:1001F000E2006208A03E8400831300088312031308
:10020000BC003C0883120317DE005E088312031350
:10021000BC0003103C0C0F39BD003D0883120317CE
:10022000D8006208A03E8400000883120313BC00BB
:100230003C0883120317DE005E0883120313BC0020
:1002400005300310BC0CFF3E031D21293C08033977
:10025000FF3EBD003D0883120317D90062080A1251
:100260008A15E5240A128A1183120317580883128B
:100270000313BC003C07C73E840083130008BD0085
:10028000840A0008BE00831203175908831203135F
:10029000BF003F073D07C0003E080318013EC100F4
:1002A000400884008317411C831320088000840ABF
:1002B000210880000130BC003C0883120317E307CB
:1002C000DD28831203175D1C66296729582AE80177
:1002D00010306802031C6D296E296F29292AE90153
:1002E00003306902031C752976297729202A6808BA
:1002F00083120313BC003C07C73E8400831300082D
:10030000BD00840A0008BE00831203176908831227
:100310000313BF003F073D07C0003E080318013E1E
:10032000C100400884008317411C83130008C200E9
:10033000840A0008C300831203176808831203139A
:10034000C4004407C73E840083130008C500840A24
:100350000008C60083120317690883120313C7003D
:100360004707063E4507C80046080318013EC90076
:10037000480884008317491C83130008CA00840AB4
:100380000008CB0043084B06031DC82942084A0653
:100390000319CB29CC29192A831203176808831261
:1003A0000313BC003C07C73E840083130008BD0054
:1003B000840A0008BE00831203176908831203131E
:1003C000BF003F073D07C0003E080318013EC100C3
:1003D000400884008317411C83130008C200840A6C
:1003E0000008C30083120317680883120313C400B4
:1003F0004407C73E840083130008C500840A000830
:10040000C60083120317690883120313C700470746
:10041000063E4507C80046080318013EC9004808C3
:1004200084008317491C831342088000840A430810
:1004300080000130BC003C0883120317E9077029D3
:10044000013083120313BC003C0883120317E80732
:10045000682903136408013E0F39BC003C08E4001E
:100460006408BC003C07C73E840083130008BD003D
:10047000840A0008BE003D08063EBF003E0803187F
:10048000013E003EC0003F0884008317401C8313D8
:100490000008C100840A0008C20041084204031D8C
:1004A000522A532A582A6408031D572A582A292AEF
:1004B0000313611C5C2A5D2A1E2B601C602A612AC2
:1004C0001E2B013083120317DF070318E00A0030E8
:1004D000E0075D10831203136408BC003C07C73EAD
:1004E000840083130008BD00840A0008BE00831244
:1004F0000317610883120313BF003F07063E3D0741
:10050000C0003E080318013EC10040088400831764
:10051000411C83130008C200840A0008C300831230
:1005200003175F08831203134202C40083120317E8
:100530006008031C600A831203134302C500C51F31
:10054000A22AA32AA62A831203175D14023083125B
:1005500003176106031DAD2AAE2AE42A8312031392
:100560006408BC003C07C73E840083130008BD003C
:10057000840A0008BE003D080A3EBF003E0803187A
:10058000013E003EC0003F0884008317401C8313D7
:100590000008C100840A0008C20083120317600823
:1005A000803A83120313C3004208803A4302031DBA
:1005B000DD2A4108831203175F02031CE02AE12AA7
:1005C000E42A831203175D14831203136408BC002A
:1005D0003C07C73E840083130008BD00840A00085E
:1005E000BE0083120317610883120313BF003F0785
:1005F000063E3D07C0003E080318013EC10040080A
:1006000084008317411C83130008C200840A000879
:10061000C300831203175F08831203134202B00062
:10062000831203176008031C600A8312031343023A
:10063000B1000A128A1543260A128A118312031383
:100640005B085C060319252B262BA22B5B08BC003C
:100650003C08DC008C2B5D0803192F2B302BA22BC0
:10066000A001A1015D08013E84000A128A15002044
:100670000A128A11BC003C08A20001300A128A1535
:100680009E230A128A11A22B5E08031D482B492BB8
:100690004E2B5D0803194D2B4E2BA22BA001A00A57
:1006A000A1015E08013E84000A128A1500200A1288
:1006B0008A11BC003C08A20000300A128A159E2351
:1006C0000A128A11A22BA001A101A10A5F08013E12
:1006D00084000A128A1500200A128A11BC003C0804
:1006E000A20000300A128A159E230A128A11A22B38
:1006F000A001A1016408013E84000A128A150020AD
:100700000A128A11BC003C08A20001300A128A15A4
:100710009E230A128A11A22B5B08BC00BD013D0872
:10072000003A0319942BA22B3C08003A03192B2BF7
:10073000013A0319442B033A0319632B013A0319B5
:10074000782BA22B033083120313A0000030A100EA
:100750005B08013EA200003003180130A3000A121A
:100760008A157F250A128A11831203132008BC0000
:100770003C08DB00611CBD2BBE2BC42B601CC12BB5
:10078000C22BC42B61106010611CC72BC82BCD2B52
:100790006018CB2BCC2BCD2B60147F30831603132A
:1007A000200583120313BC0008303C06031DD92B1F
:1007B000DA2BA82C83120317EA01EB016B08803AAD
:1007C000FF0080307F02031DE72B04306A02031C08
:1007D000EA2BEB2BEC2B682C83120313B401B40A25
:1007E000831203176A08543E84008313000883129F
:1007F0000313BC003C08B5000130BD008312031791
:100800006A08013E013E83120313082C0310BD0D3C
:10081000FF3E031D062C3D080A128A1517240A12F2
:100820008A11103083120313BC003C08B4008312F9
:1008300003176A08503E84008313000883120313D1
:10084000BD003D08B5000130BE00831203176A08E1
:10085000013E013E831203132F2C0310BE0DFF3EF9
:10086000031D2D2C3E080A128A1517240A128A111C
:10087000113083120313BC003C08B4008312031729
:100880006A084C3E84008313000883120313BD00E2
:100890003D08B5000130BE00831203176A08013E0F
:1008A000013E83120313562C0310BE0DFF3E031DA1
:1008B000542C3E080A128A1517240A128A11013094
:1008C00083120317EA070318EB0A0030EB07DE2B4D
:1008D00083120317E601E7016708803AFF008030C2
:1008E0007F02031D752C04306602031C782C792CC2
:1008F0007A2C902C831203176608543E84008313CD
:1009000080016608503E8400800166084C3E8400E9
:1009100080010130E6070318E70A0030E7076C2C76
:1009200083120317E40105306402031C982C992CF0
:100930009A2CA82C6408A03E840083138001013007
:1009400083120313BC003C0883120317E407932CA3
:100950007F3083160313200583120313BC000A3073
:100960003C06031DB42CB52C952800300A128A15BC
:10097000CA230A128A11831203132008BC0021081B
:10098000BD003D0DBD0CBC0C3D0DBD0CBC0C3C08B0
:10099000B0003D08B1000030B200B300FF30B40039
:1009A0000030B500EC30B600FF30B7003C30B80086
:1009B0000030B9000A128A1576240A128A118312AD
:1009C00003133008BE003E0883120317DA0001301B
:1009D0000A128A15CA230A128A11831203132008E5
:1009E000BC002108BD003D0DBD0CBC0C3D0DBD0C77
:1009F000BC0C3C08B0003D08B1000030B200B300B0
:100A0000FF30B4000030B5000030B600B7006430ED
:100A1000B8000030B9000A128A1576240A128A1129
:100A2000831203133008BE003E0883120317DB0055
:100A300005300A128A15CA230A128A118312031377
:100A40002008BC002108BD003D0DBD0CBC0C3D0DB7
:100A5000BD0CBC0C3C08B0003D08B1000030B20039
:100A6000B300FF30B4000030B5000030B600B7006E
:100A70006430B8000030B9000A128A1576240A12D0
:100A80008A11831203133008BE003E088312031735
:100A9000DC0083120313B401831203175A08831274
:100AA0000313BC003C08B50002300A128A15172453
:100AB0000A128A1183120313B401831203175B080D
:100AC00083120313BC003C08B50004300A128A15D7
:100AD00017240A128A1183120313B4018312031715
:100AE0005C0883120313BC003C08B50006300A12F0
:100AF0008A1517240A128A1183120317E50105309B
:100B00006502031C842D852D862D95286508A03E41
:100B1000840083138001013083120313BC003C085E
:100B200083120317E5077F2D0A128A110E288312FC
:100B3000031386199C2D9D2DA42D0130F007031859
:100B4000F10A0030F107D12D861DA72DA82DD12D3A
:100B500001307102F43003197002031CB02DB12D65
:100B6000B52D0130F5007508D40705307102DC3071
:100B700003197002031CBD2DBE2DC22D0130F500DE
:100B80007508D0070B307102B83003197002031CCE
:100B9000CA2DCB2DCF2D0130F5007508CC07F00103
:100BA000F101061AD42DD52DDC2D0130F0070318E4
:100BB000F10A0030F107092E061EDF2DE02D092E67
:100BC00001307102F43003197002031CE82DE92D85
:100BD000ED2D0130F5007508D50705307102DC30C8
:100BE00003197002031CF52DF62DFA2D0130F500C6
:100BF0007508D1070B307102B83003197002031C5D
:100C0000022E032E072E0130F5007508CD07F001E6
:100C1000F101861A0C2E0D2E142E0130F007031848
:100C2000F10A0030F107412E861E172E182E412E94
:100C300001307102F43003197002031C202E212EA2
:100C4000252E0130F5007508D60705307102DC301D
:100C500003197002031C2D2E2E2E322E0130F500AA
:100C60007508D2070B307102B83003197002031CEB
:100C70003A2E3B2E3F2E0130F5007508CE07F001CD
:100C8000F101851A442E452E4C2E0130F007031831
:100C9000F10A0030F107792E851E4F2E502E792E45
:100CA00001307102F43003197002031C582E592EC2
:100CB0005D2E0130F5007508D70705307102DC3074
:100CC00003197002031C652E662E6A2E0130F50092
:100CD0007508D3070B307102B83003197002031C7A
:100CE000722E732E772E0130F5007508CF07F001B4
:100CF000F101080083120313B100AB01A801AC019C
:100D0000A901AA01B201B30183120313AD01AE011F
:100D10008312031332083107A400240884008313CC
:100D20000008A5002D0A962E0310A50CFF3E031DFA
:100D3000942E25080139A6002608A8070130AD0722
:100D40000318AE0A0030AE072E08803AFF0080304C
:100D50007F02031DAD2E08302D02031CB02EB12ED4
:100D6000882E83120313281CB62EB72EBD2EAB017E
:100D7000AB0A3208A4002408AC000130B207031803
:100D8000B30A0030B3073308803AFF0080307F0297
:100D9000031DCC2E05303202031CCF2ED02E842E04
:100DA00083120313B401B50183120313AF01B00121
:100DB000831203132F083107A4002408840083132F
:100DC0000008A500340AE62E0310A50CFF3E031D03
:100DD000E42E25080139A6002608A9070130AF072F
:100DE0000318B00A0030B0073008803AFF008030A6
:100DF0007F02031DFD2E04302F02031C002F012F44
:100E0000D82E83120313291C062F072F0D2FAB0199
:100E1000AB0A3408A4002408AA000130B407031860
:100E2000B50A0030B5073508803AFF0080307F02F0
:100E3000031D1C2F08303402031C1F2F202FD42E1B
:100E4000831203132B080319262F272F422F2A085A
:100E5000A4002408A0002C083107A5002508840060
:100E6000831300080A128A1545240A128A11831274
:100E70000313A6002C083107A700270884002608C2
:100E800083138000080083120313AA01A31F492FB4
:100E90004A2F572FA009A109A209A309A00A0319E3
:100EA000A10A0319A20A0319A30AAA01AA0AA71FE1
:100EB0005A2F5B2F6A2FA409A509A609A709A40A1E
:100EC0000319A50A0319A60A0319A70A0130A800E5
:100ED0002808AA060030AE000030AD000030AC009B
:100EE0000030AB0023082204210420040319792FC9
:100EF0007A2FC72FA901A90A8A2F0130A800031051
:100F0000A00DA10DA20DA30DA80B7F2F0130A800ED
:100F10002808A907A31F8D2F8E2F7D2F0130A80031
:100F20000310AB0DAC0DAD0DAE0DA80B902F23082B
:100F30002702031DA52F22082602031DA52F210825
:100F40002502031DA52F20082402031CA82FA92F6A
:100F5000B82F2008A4022108031C210FA502220893
:100F6000031C220FA6022308031C230FA7022B1425
:100F700001300310A30CA20CA10CA00CFF3E031D1A
:100F8000B92F0130A902031DC62FC72F8E2F2A08A3
:100F90000319CB2FCC2FD72FAB09AC09AD09AE0964
:100FA000AB0A0319AC0A0319AD0A0319AE0A2E08DD
:100FB000A3002D08A2002C08A1002B08A000080007
:100FC000BB340034AF340034E4340134D834013459
:100FD000CC340134C0340134B4340134A834013485
:100FE0009C340134903401344C34013440340134A5
:100FF00034340134283401341C34013410340134C5
:1010000008308A000408840A820700343F3406341A
:101010005B344F3466346D347D3407347F346F3441
:0210200000349A
:1016B80064008001840A04060319003404065D2BC3
:1016C800831203138C1E692B6A2B642B8C121A0845
:1016D800080083120313A0000C1E732B742B702BAD
:1016E8000C12200899000800E330831603138500C4
:1016F800831203139F018030831603139F00193050
:1017080083120313A000A00B872B8A2B08007E08E6
:101718008A007F0882000A128A158B230A128A150A
:101728008000840A04087D0603190034FF0A03199F
:10173800FE0A8F2B83120313A300230C031C05112D
:1017480003180515200C031C851103188515210C99
:10175800031C0512031805162208880008008312C6
:101768000313A300A201231CBA2BBB2BBF2B2008F9
:10177800A1002108A2070310A00D0310A30C230841
:10178800031DC72BC82BB72B22080800831203138D
:10179800A3002308A20002300310A20DFF3E031D80
:1017A800D02B0310220D01389F000430831203133D
:1017B800A200A20BDD2B0000831203131F151F19B3
:1017C800E62BE72BE32B1E08A100831603131E0844
:1017D80083120313A000080083120313A401A501B8
:1017E800201CF72BF82BFE2B2208A4070318A50AA8
:1017F8002308A50701300310A20DA30DFF3E031D0A
:10180800FF2B01300310A10CA00CFF3E031D062C7A
:1018180020082104031D112C122CF42B2508A100EB
:101828002408A000080083120313B9003408B60086
:101838003608A0003508B7003708A10039080A1291
:101848008A1538270A128A1583120313B800380834
:10185800BA00BB013A080A128A156D230A128A15C2
:10186800013083120313B6003608BA070130B600F8
:101878003608BB0705303B02031C432C442C2E2C96
:10188800080083120313A3000130A100200A4E2C84
:101898000310A10DFF3E031D4C2C2108230503193D
:1018A800562C572C662C0130A100200A5D2C031001
:1018B800A10DFF3E031D5B2C2108A2002208A304F2
:1018C8002308752C0130A100200A6C2C0310A10DEF
:1018D800FF3E031D6A2C2108FF3AA2002208A30537
:1018E800230808008312031332083402A7003308C0
:1018F800031C330A3502A80032083002A00033085E
:10190800031C330A3102A10036083802A200370846
:10191800031C370A3902A3000A128A15F0230A1297
:101928008A15831203132108AA002008A9000A12A5
:101938008A15DA250A128A1583120313360827072F
:10194800B00037080318370A2807B10008008316C3
:1019580003130713981683120313981718162F08E2
:10196800B1003008B2000030B21BFF30B300B40041
:1019780006300310B10DB20DB30DB40DFF3E031DBB
:10198800BD2C3408A3003308A2003208A100310896
:10199800A0000130A700E830A6004830A5000030BC
:1019A800A4000A128A1143270A128A158312031304
:1019B8002008FF3E8316031399008B170B178C160C
:1019C800080083120313A4002408A33E84007F3078
:1019D80083130005A2002508220680392206A500E7
:1019E80025087F39A200A3012208A6002308A70022
:1019F8002708A3002608A2000730FF000310A20D45
:101A0800A30DFF0B022D80302205A6000030230510
:101A1800A7002408A23E84007F300005A200250804
:101A2800220680392206A50025087F39A20026084B
:101A38002204A6002708A7002708A1002608A0005E
:101A48000800831203138C1E2A2D2B2D342D6218A7
:101A58002E2D2F2D342D62146310E310D901D801D7
:101A68008C1E372D382D4F2D621C3B2D3C2D4F2DB4
:101A78000A128A1564230A128A15F60083120313C0
:101A88005908A03E84007608831380000130F600D0
:101A98007608D907D8010B1D522D532D5D2D0B113A
:101AA8000A128A1197250A128A150630831203131F
:101AB80081000C1C602D612D762D0C100130F60074
:101AC8007608F40714307402031C6B2D6C2D722DEC
:101AD8006114F4010130F6007608D8073C308F0015
:101AE800B0308E0079088A0078088400770E830069
:101AF800FE0E7E0E090083120313A601A31F852D77
:101B0800862D8D2DA209A309A20A0319A30AA601ED
:101B1800A60AA11F902D912D962DA009A109A00A12
:101B28000319A10A2008210403199B2D9C2DCB2DF4
:101B3800A501A50AAA2D01300310A00DA10DFF3E95
:101B4800031DA02D0130A4002408A507A11FAD2D59
:101B5800AE2D9F2D21082302031DB42D200822023B
:101B6800031CB72DB82DBE2D2008A2022108031C86
:101B7800A303A30201300310A10CA00CFF3E031D18
:101B8800BF2D0130A502031DCA2DCB2DAE2D260871
:101B98000319CF2DD02DD52DA209A309A20A031907
:101BA800A30A2308A1002208A00008008312031337
:101BB800AD01A81FE02DE12DE82DA709A809A70A66
:101BC8000319A80AAD01AD0AAA1FEB2DEC2DF52DBE
:101BD800A909AA09A90A0319AA0A0130AB002B0806
:101BE800AD06AE01AF01270828040319FC2DFD2D11
:101BF800342EAC01AC0A0B2E01300310A70DA80D32
:101C0800FF3E031D012E0130AB002B08AC07A81FB7
:101C18000E2E0F2E002E01300310AE0DAF0DFF3E1D
:101C2800031D102E28082A02031D1C2E270829022E
:101C3800031C1F2E202E272E2708A9022808031C64
:101C4800AA03AA022E1401300310A80CA70CFF3E09
:101C5800031D282E0130AC02031D332E342E0F2E07
:101C68002D080319382E392E3E2EAE09AF09AE0ABB
:101C78000319AF0A2F08A8002E08A700080083122E
:101C880003133008B2003208DA006430A7000030CD
:101C9800A8005A08B200B3013208A9003308AA0004
:101CA8000A128A15DA250A128A15831203132708DD
:101CB800B4003408DD000A30A7000030A8005A0834
:101CC800B200B3013208A2003308A3006430A000B8
:101CD8000030A1000A128A157F250A128A1583127C
:101CE80003132108AA002008A9000A128A15DA2578
:101CF8000A128A15831203132708B4003408DE0079
:101D08005A08B200B3013208A2003308A3006430B5
:101D1800A0000030A1000A128A157F250A128A1530
:101D2800831203132108B6002008B5000A30A0006A
:101D38000030A1003608A3003508A2000A128A154F
:101D48007F250A128A15831203132008B20032086D
:101D5800DF00080083120313AC01AD01102F2C081B
:101D6800A6002607C73E840083130008A700840A3C
:101D78000008A8002D08A90029072707AA00280895
:101D88000318013EAB002A08840083172B1C831319
:101D980020088000840A21088000232F2C08A60030
:101DA8002607C73E840083130008A700840A00089A
:101DB800A8002D08A90029072707AA002808031842
:101DC800013EAB002A08840083172B1C83132208CA
:101DD8008000840A23088000232F2C08A6002607E9
:101DE800C73E840083130008A700840A0008A800DF
:101DF8002D08A90029072707AA0028080318013E6B
:101E0800AB002A08840083172B1C83132408800046
:101E1800840A25088000232F2D08A600A70127087B
:101E2800003A0319182F232F2608003A0319B32E56
:101E3800013A0319D22E033A0319F12E232F013048
:101E4800A6002608AD0703302D02031C2C2F2D2FCA
:101E5800102F0130A6002608AC0710302C02031CF6
:101E6800362F372FB12E080083120313A40024083D
:101E78007F39A2002208A50020087F39A200220885
:101E8800A60021087F39A2002208A7002108A20085
:101E980007300310A20CFF3E031D4D2F22087F3987
:101EA800A3002308A800AA01AB01B001B101831265
:101EB8000313AC01AD01831203133008253E8400DF
:101EC80083130008A2002C0A6B2F0310A20CFF3EFC
:101ED800031D692F22080139A3002308AA0701302E
:101EE800AC070318AD0A0030AD072D08803AFF0093
:101EF80080307F02031D822F08302C02031C852F9F
:101F0800862F5F2F831203132A1C8B2F8C2F942F5D
:101F18008030A2003008253E840022088313800701
:101F2800AA010130B0070318B10A0030B10731081F
:101F3800803AFF0080307F02031DA42F0430300256
:101F4800031CA72FA82F5B2F83120313B201B30121
:101F580083120313AE01AF01831203132E08253E2B
:101F6800840083130008A200320ABC2F0310A20CBD
:101F7800FF3E031DBA2F22080139A3002308AB072F
:101F88000130AE070318AF0A0030AF072F08803AB8
:101F9800FF0080307F02031DD32F04302E02031C64
:101FA800D62FD72FB02F831203132B1CDC2FDD2F36
:101FB800EA2F0130A200320AE32F0310A20DFF3EE0
:101FC800031DE12F2208A3002308A907AB01013054
:101FD800B2070318B30A0030B3073308803AFF008A
:101FE80080307F02031DFA2F08303202031CFD2FB8
:081FF800FE2FAC2F253008007C
:02400E00F23F7F
:00000001FF
