:020000040000FA
:060000000A128A110E280D
:10000800FE00030EF7000408F8000A08F9000A12B7
:100018008A15882C0A128A1111288313E730FD00EB
:100028000B30FE000A30FF00C73084000A128A1520
:10003800CF220A128A115930FD000A30FE00AB3077
:10004800FF004C3084000A128A15CF220A128A1146
:10005800831790308400F0300A128A159A220A1207
:100068008A111030840058300A128A159A220A120E
:100078008A118313A0308400C7300A128A159A2285
:100088000A128A115930840065300A128A159A2298
:100098000A128A11F001F101F201F301F40183015E
:1000A8000A128A1157281F308316031386008030DE
:1000B8008700880101308900E0308B00043081001E
:1000C8000630831203138100313090000A128A151A
:1000D800B8220A128A11803083120313AF00253028
:1000E800B0000A128A150E240A128A1102308312ED
:1000F8000313A0000030A1000230A2000030A300CA
:100108000230A4000030A5000A128A1511260A122E
:100118008A113C30831203138F00B0308E00831293
:100128000317DF0183120313DC01831203175D1425
:100138000313631CA028A128382B232B64146310F5
:1001480083120317EA01EB01C52983120313B401D3
:10015800B40A831203176A08543E84008313000804
:1001680083120313BC003C08B50003300A128A1539
:10017800A8230A128A11023083120313BC003C0818
:10018800B400831203176A08503E840083130008E2
:1001980083120313BD003D08B50003300A128A1507
:1001A800A8230A128A11033083120313BC003C08E7
:1001B800B400831203176A084C3E840083130008B6
:1001C80083120313BD003D08B50003300A128A15D7
:1001D800A8230A128A11DA2983120313B401B40A74
:1001E800831203176A08543E84008313000883129D
:1001F8000313BC003C08B50005300A128A15A82371
:100208000A128A11023083120313BC003C08B4009E
:10021800831203176A08503E840083130008831270
:100228000313BD003D08B50005300A128A15A8233E
:100238000A128A11033083120313BC003C08B4006D
:10024800831203176A084C3E840083130008831244
:100258000313BD003D08B50005300A128A15A8230E
:100268000A128A11DA2983120313B401B40A831219
:1002780003176A08543E840083130008831203138B
:10028800BC003C08B50007300A128A15A8230A12D8
:100298008A11023083120313BC003C08B400831295
:1002A80003176A08503E840083130008831203135F
:1002B800BD003D08B50007300A128A15A8230A12A6
:1002C8008A11033083120313BC003C08B400831264
:1002D80003176A084C3E8400831300088312031333
:1002E800BD003D08B50007300A128A15A8230A1276
:1002F8008A11DA2983120313B401B40A831203178B
:100308006A08543E84008313000883120313BC0058
:100318003C08B50009300A128A15A8230A128A1166
:10032800023083120313BC003C08B4008312031785
:100338006A08503E84008313000883120313BD002B
:100348003D08B50009300A128A15A8230A128A1135
:10035800033083120313BC003C08B4008312031754
:100368006A084C3E84008313000883120313BD00FF
:100378003D08B50009300A128A15A8230A128A1105
:10038800DA29831203176B08003A0319CC29DA29F2
:100398006A08003A0319A928013A0319F028033A10
:1003A80003193729013A03197E29DA290130831202
:1003B8000317EA070318EB0A0030EB076B08803ACB
:1003C800FF0080307F02031DEB2904306A02031C02
:1003D800EE29EF29C52983120317E601E70167080B
:1003E800803AFF0080307F02031DFC29043066023A
:1003F800031CFF29002A012A172A831203176608FB
:10040800543E8400831380016608503E84008001B6
:1004180066084C3E840080010130E6070318E70AAD
:100428000030E707F32983120317E301053063025D
:10043800031C1F2A202A212A382B6308A03E840087
:1004480083138001013083120313BC003C0883121C
:100458000317E3071A2A6414631000300A128A1576
:100468002A230A128A11831203132008BC002108C8
:10047800BD003D0DBD0CBC0C3D0DBD0CBC0C3C08BD
:10048800B0003D08B1000030B200B300FF30B40046
:100498000030B500EC30B600FF30B7003C30B80093
:1004A8000030B9000A128A15D9230A128A11831258
:1004B80003133008BE003E0883120317DA00013028
:1004C8000A128A152A230A128A1183120313200892
:1004D800BC002108BD003D0DBD0CBC0C3D0DBD0C84
:1004E800BC0C3C08B0003D08B1000030B200B300BD
:1004F800FF30B4000030B5000030B600B7006430FB
:10050800B8000030B9000A128A15D9230A128A11D4
:10051800831203133008BE003E0883120317DB0062
:1005280005300A128A152A230A128A118312031324
:100538002008BC002108BD003D0DBD0CBC0C3D0DC4
:10054800BD0CBC0C3C08B0003D08B1000030B20046
:10055800B300FF30B4000030B5000030B600B7007B
:100568006430B8000030B9000A128A15D9230A127B
:100578008A11831203133008BE003E088312031742
:10058800DC0083120313B401831203175A08831281
:100598000313BC003C08B50002300A128A15A823D0
:1005A8000A128A1183120313B401831203175B081A
:1005B80083120313BC003C08B50004300A128A15E4
:1005C800A8230A128A1183120313B4018312031792
:1005D8005C0883120313BC003C08B50006300A12FD
:1005E8008A15A8230A128A1183120317E401053019
:1005F8006402031C002B012B022B382B6408A03E3D
:10060800840083138001013083120313BC003C086B
:1006180083120317E407FB2A04305902031C152B25
:10062800162B192B6414E41463100F305A02031CA0
:100638001E2B1F2B382B6414E4106310382B8316E1
:10064800031320087F3983120313BC00BD013D0842
:10065800003A0319302B102B3C08083A0319A2283A
:10066800023A03192F2A102B0313641C3C2B3D2B31
:10067800D42B6310DA016410D901E41C442B452BF8
:10068800472BE410D42BA0300A128A112B270A1208
:100698008A1183120317E50103306502031C552BE9
:1006A800562B572BD42B053083120313BC003C0860
:1006B800A0008312031765080A128A15F3220A128A
:1006C8008A1183120313BD003D0883120317E0004B
:1006D8006008A03E84008313000883120313BC0043
:1006E8003C0883120317DE005E0883120313BC0064
:1006F80003103C0C0F39BD003D0883120317D800C6
:100708006008A03E8400000883120313BC003C0864
:1007180083120317DE005E0883120313BC00053042
:100728000310BC0CFF3E031D942B3C080339FF3E0D
:10073800BD003D0883120317D90060080A128A1504
:1007480048240A128A1183120317580883120313C4
:10075800BC003C07C73E840083130008BD00840A20
:100768000008BE0083120317590883120313BF0041
:100778003F073D07C0003E080318013EC10040087E
:1007880084008317411C831320088000840A2108F1
:1007980080000130BC003C0883120317E507502B8A
:1007A800831203175D1CD92BDA2BCB2CE8011030F0
:1007B8006802031CE02BE12BE22B9C2CE90103309F
:1007C8006902031CE82BE92BEA2B932C6808831297
:1007D8000313BC003C07C73E840083130008BD0018
:1007E800840A0008BE0083120317690883120313E2
:1007F800BF003F073D07C0003E080318013EC10087
:10080800400884008317411C83130008C200840A2F
:100818000008C30083120317680883120313C40077
:100828004407C73E840083130008C500840A0008F3
:10083800C60083120317690883120313C70047070A
:10084800063E4507C80046080318013EC900480887
:1008580084008317491C83130008CA00840A00080F
:10086800CB0043084B06031D3B2C42084A060319DC
:100878003E2C3F2C8C2C8312031768088312031319
:10088800BC003C07C73E840083130008BD00840AEF
:100898000008BE0083120317690883120313BF0000
:1008A8003F073D07C0003E080318013EC10040084D
:1008B80084008317411C83130008C200840A0008BF
:1008C800C30083120317680883120313C400440784
:1008D800C73E840083130008C500840A0008C600C8
:1008E80083120317690883120313C7004707063EDC
:1008F8004507C80046080318013EC9004808840097
:100908008317491C831342088000840A4308800027
:100918000130BC003C0883120317E907E32B0130C0
:1009280083120313BC003C0883120317E807DB2B70
:1009380003135808013E0F39BC003C08D80058087A
:10094800BC003C07C73E840083130008BD00840A2E
:100958000008BE003D08063EBF003E080318013EE1
:10096800003EC0003F0884008317401C8313000822
:10097800C100840A0008C20041084204031DC52CB6
:10098800C62CCB2C5808031DCA2CCB2C9C2C03132B
:10099800621CCF2CD02C952D611CD32CD42C952DDA
:1009A800013083120317E1070318E20A0030E20757
:1009B8005D10831203135808BC003C07C73E84002F
:1009C80083130008BD00840A0008BE0083120317C1
:1009D8005F0883120313BF003F07063E3D07C000B0
:1009E8003E080318013EC100400884008317411CDB
:1009F80083130008C200840A0008C3008312031787
:100A08006108831203134202C400831203176208A9
:100A1800031C620A831203134302C500C51F152D68
:100A2800162D1D2D831203175D140130E1000030CF
:100A3800E2000230831203175F06031D242D252DC3
:100A48005B2D831203135808BC003C07C73E840083
:100A580083130008BD00840A0008BE003D080A3E52
:100A6800BF003E080318013E003EC0003F08840056
:100A78008317401C83130008C100840A0008C200C1
:100A8800831203176208803A83120313C3004208D3
:100A9800803A4302031D542D410883120317610253
:100AA800031C572D582D5B2D831203175D148312D9
:100AB80003135808BC003C07C73E84008313000892
:100AC800BD00840A0008BE00831203175F08831262
:100AD8000313BF003F07063E3D07C0003E0803184A
:100AE800013EC100400884008317411C831300089D
:100AF800C200840A0008C300831203176108831226
:100B080003134202B000831203176208031C620A2F
:100B1800831203134302B1000A128A15A6250A128A
:100B28008A11831203135C085D0603199C2D9D2D01
:100B3800192E5C08BC003C08DD00032E5E08031972
:100B4800A62DA72D192EA001A1015E08013E840043
:100B58000A128A1500200A128A11BC003C08A20059
:100B680001300A128A15DE220A128A11192E5F082C
:100B7800031DBF2DC02DC52D5E080319C42DC52D1D
:100B8800192EA001A00AA1015F08013E84000A12E3
:100B98008A1500200A128A11BC003C08A200003005
:100BA8000A128A15DE220A128A11192EA001A10141
:100BB800A10A6008013E84000A128A1500200A1260
:100BC8008A11BC003C08A20000300A128A15DE22F5
:100BD8000A128A11192EA001A1015808013E8400A9
:100BE8000A128A1500200A128A11BC003C08A200C9
:100BF80001300A128A15DE220A128A11192E5C089F
:100C0800BC00BD013D08003A03190B2E192E3C0803
:100C1800003A0319A22D013A0319BB2D033A03190F
:100C2800DA2D013A0319EF2D192E0330831203131D
:100C3800A0000030A1005C08013EA20000300318AB
:100C48000130A3000A128A15E2240A128A118312BB
:100C580003132008BC003C08DC00621C342E352E2F
:100C68003B2E611C382E392E3B2E62106110621CFF
:100C78003E2E3F2E9C286118422E432E9C2861143C
:100C88009C280A128A110E288312031386194D2EE6
:100C98004E2E552E0130F0070318F10A0030F107E7
:100CA800822E861D582E592E822E01307102F43064
:100CB80003197002031C612E622E662E0130F500A6
:100CC8007508D40705307102DC3003197002031C63
:100CD8006E2E6F2E732E0130F5007508D0070B307D
:100CE8007102B83003197002031C7B2E7C2E802EF3
:100CF8000130F5007508CC07F001F101061A852EC0
:100D0800862E8D2E0130F0070318F10A0030F10706
:100D1800BA2E061E902E912EBA2E01307102F43092
:100D280003197002031C992E9A2E9E2E0130F5008D
:100D38007508D50705307102DC3003197002031CF1
:100D4800A62EA72EAB2E0130F5007508D1070B3063
:100D58007102B83003197002031CB32EB42EB82EDA
:100D68000130F5007508CD07F001F101861ABD2E96
:100D7800BE2EC52E0130F0070318F10A0030F10726
:100D8800F22E861EC82EC92EF22E01307102F430C2
:100D980003197002031CD12ED22ED62E0130F50075
:100DA8007508D60705307102DC3003197002031C80
:100DB800DE2EDF2EE32E0130F5007508D2070B304A
:100DC8007102B83003197002031CEB2EEC2EF02EC2
:100DD8000130F5007508CE07F001F101851AF52EEE
:100DE800F62EFD2E0130F0070318F10A0030F10746
:100DF8002A2F851E002F012F2A2F01307102F4306F
:100E080003197002031C092F0A2F0E2F0130F50059
:100E18007508D70705307102DC3003197002031C0E
:100E2800162F172F1B2F0130F5007508D3070B302D
:100E38007102B83003197002031C232F242F282FA6
:100E48000130F5007508CF07F001F10108008312A1
:100E58000313B100AB01A801AC01A901AA01B201B9
:100E6800B30183120313AD01AE01831203133208D9
:100E78003107A4002408840083130008A5002D0A64
:100E8800472F0310A50CFF3E031D452F25080139E8
:100E9800A6002608A8070130AD070318AE0A0030DF
:100EA800AE072E08803AFF0080307F02031D5E2FB8
:100EB80008302D02031C612F622F392F8312031370
:100EC800281C672F682F6E2FAB01AB0A3208A400CD
:100ED8002408AC000130B2070318B30A0030B30786
:100EE8003308803AFF0080307F02031D7D2F0530D4
:100EF8003202031C802F812F352F83120313B40174
:100F0800B50183120313AF01B001831203132F0835
:100F18003107A4002408840083130008A500340ABC
:100F2800972F0310A50CFF3E031D952F25080139A7
:100F3800A6002608A9070130AF070318B00A003039
:100F4800B0073008803AFF0080307F02031DAE2FC3
:100F580004302F02031CB12FB22F892F83120313E1
:100F6800291CB72FB82FBE2FAB01AB0A3408A40039
:100F78002408AA000130B4070318B50A0030B507E1
:100F88003508803AFF0080307F02031DCD2F0830DE
:100F98003402031CD02FD12F852F831203132B0863
:100FA8000319D72FD82FF32F2A08A4002408A0004C
:100FB8002C083107A50025088400831300080A12AD
:100FC8008A1577230A128A1183120313A6002C08A4
:100FD8003107A7002708840026088313800008002B
:100FE80083120313A0000C1EFA2FFB2FF72F0C12ED
:060FF8002008990008002A
:1010000008308A000408840A820700343F3406341A
:101010005B344F3466346D347D3407347F346F3441
:0210200000349A
:1019B60064008001840A0406031900340406DC2C42
:1019C600831203138C1EE82CE92CE32C8C121A08C4
:1019D600080083120313A4000C1EF22CF32CEF2C28
:1019E6000C12240899000800E330831603138500BF
:1019F600831203139F018030831603139F0019304F
:101A060083120313A400A40B062D092D08007E08DB
:101A16008A007F0882000A128A150A250A128A1588
:101A26008000840A04087D0603190034FF0A03199E
:101A3600FE0A0E2D83120313A700270C031C0511A3
:101A460003180515240C031C851103188515250C90
:101A5600031C0512031805162608880008008312C1
:101A66000313A700A601271C392D3A2D3E2D240865
:101A7600A5002508A6070310A40D0310A70C270828
:101A8600031D462D472D362D26080800E334003465
:101A9600DD340034D7340034D1340034CB34003450
:101AA600C5340034BF340034B9340034B3340034A0
:101AB600AD340034A7340034B7340134B1340134C2
:101AC600AB340134A53401349F340134831203133B
:101AD600A7002708A60002300310A60DFF3E031D2F
:101AE6006F2D0310260D01389F0004308312031357
:101AF600A600A60B7C2D0000831203131F151F19C9
:101B0600852D862D822D1E08A500831603131E081B
:101B160083120313A400080083120313A801A9016A
:101B2600241C962D972D9D2D2608A8070318A90A73
:101B36002708A90701300310A60DA70DFF3E031DB8
:101B46009E2D01300310A50CA40CFF3E031DA52DF0
:101B560024082504031DB02DB12D932D2908A500B9
:101B66002808A400080083120313BD003808BA0031
:101B76003A08A4003908BB003B08A5003D080A1234
:101B86008A11D9230A128A1583120313BC003C0852
:101B9600BE00BF013E088400831300080A128A159E
:101BA600EC240A128A15013083120313BA003A088C
:101BB600BE070130BA003A08BF0705303F02031CD2
:101BC600E52DE62DCD2D08008312031336083802C5
:101BD600AB003708031C370A3902AC00360834025A
:101BE600A4003708031C370A3502A5003A083C0250
:101BF600A6003B08031C3B0A3D02A7000A128A15F1
:101C06008F250A128A15831203132508AE002408AD
:101C1600AD000A128A11FF260A128A1583120313CF
:101C26003A082B07B4003B0803183B0A2C07B500FB
:101C3600080083120313A80028082407A600260814
:101C4600033E84007F3083170005A7002908270676
:101C560080392706A90029087F39A600A70126088A
:101C6600AA002708AB002B08A7002A08A600073001
:101C7600FF000310A60DA70DFF0B3C2E8030260596
:101C8600AA0000302705AB0028082407A60026086E
:101C9600023E84007F300005A70029082706803908
:101CA6002706A90029087F39A6002A082604AA00C3
:101CB6002B08AB002B08A5002A08A4000800013059
:101CC6007102F43003197002031C6A2E6B2E7B2EF0
:101CD60075087207F6007608840083130008013E33
:101CE600F70075087207F800780884007708800006
:101CF60005307102DC3003197002031C832E842E1A
:101D0600942E75087307F60076088400831300087E
:101D1600013EF70075087307F80078088400770815
:101D260080000B307102B83003197002031C9C2E20
:101D36009D2EAD2E75087407F60076088400831371
:101D46000008013EF70075087407F800780884005B
:101D560077088000080083120313B000B10124083D
:101D6600063E8400831300083106031DBB2EBC2EDD
:101D7600F42EB2013208A50025072407A60026087E
:101D8600840083130008A700840A0008A80031080D
:101D9600A90029073007AA002A088400831700082B
:101DA600AB00840A0008AC003208AD002D072B07F3
:101DB600AE002C080318013EAF002E0884008317DE
:101DC6002F1C831327088000840A2808800001300E
:101DD600A5002508B20703303202031CF32EF42EA9
:101DE600BD2E0130A5002508B10710303102031CB5
:101DF600FD2EFE2EB22E080083120313B2002B080E
:101E0600840083130008013EAC002B0884002C08D4
:101E160080002B0884000008AC002C073207AD00B8
:101E26002D08840083170008AE00840A0008AF005E
:101E36002E08840083172F1C83130008B000840A21
:101E46000008B10030083104031D2A2F2B2F342F30
:101E56002B0884000A3083130002031C332F342F0F
:101E6600022F0A30A4000030A5002B08840083133B
:101E76000008AC00AD012C08A6002D08A7000A1228
:101E86008A1168270A128A15831203132408AE00E2
:101E96002B0884002E08831380000800003083126C
:101EA600031386190130CA000030061A0130CB0030
:101EB6000030861A0130CC000030851A0130CD0082
:101EC600FD017D084A3E840083130008031D6C2F24
:101ED6006D2F762F013083120313CE070318CF0A16
:101EE6000030CF079D2F7D084A3E84000008031965
:101EF6007D2F7E2F9D2F831203134F08F1004E086E
:101F0600F0005F30F9007908F2005B30FA007A08D9
:101F1600F300E930FB007B08F4007D08FC007C0838
:101F2600F5000A128A1562260A128A15831203130D
:101F3600CE01CF010130F9007908FD0704307D029A
:101F4600031CA62FA72F642F08008C1EAB2FAC2FC7
:101F5600B52F5918AF2FB02FB52F59145A10DA10C4
:101F6600D101D0018C1EB82FB92FD02F591CBC2FF0
:101F7600BD2FD02F0A128A15E3240A128A1583125E
:101F86000313A0005108903E8400200883178000A8
:101F96000130A0002008D107D0010B1DD32FD42F6C
:101FA600DE2F0B110A128A1551270A128A150630DE
:101FB6008312031381000C1CE12FE22FF72F0C1064
:101FC6000130A0002008D40714305402031CEC2F63
:101FD600ED2FF32F5814D4010130A0002008D007AC
:101FE6003C308F00B0308E0023088A00220884001F
:0A1FF600210E8300FE0E7E0E09008E
:02400E00F23F7F
:00000001FF
