:020000040000FA
:060000000A128A1110280B
:10000800FE00030E83120313A1000408A2000A08CD
:10001800A3000A128A15632C0A128A111328831363
:10002800EF30FD000930FE00E030FF00DB308400D7
:100038000A128A15D1210A128A1183179030840076
:10004800E5300A128A15A9210A128A111030840093
:100058003A300A128A15A9210A128A118313A0308C
:100068008400DB300A128A15A9210A128A115B3032
:10007800840065300A128A15A9210A128A1183019F
:100088000A128A11472838308316031386008030F5
:100098008700880101308900E0308B00043081003E
:1000A8000630831203138100313090003C308F00FA
:1000B800B0308E000A128A15BA210A128A118030CD
:1000C80083120313B3002530B4000A128A15A7223D
:1000D8000A128A11063083120313A4000030A50007
:1000E8000430A6000030A7000230A8000030A900A4
:1000F800E730D2005208AA000A128A1107250A120C
:100108008A11831203130710861307110613871029
:100118008610631C902891289B2B862B64146310EF
:1001280083160317EF01143083120313B80000304D
:10013800B9000A128A1545260A128A118312031376
:100148003108D200D3015208BA005308BB000A1282
:100158008A15BB240A128A11831203133808013E38
:10016800D400540883160317E500143083120313D0
:10017800B8000030B9000A128A1545260A128A11F9
:10018800831203133108D200D3015208BA0053086E
:10019800BB000A128A15BB240A128A1183120313A0
:1001A8003808013ED400540883160317E6001430BB
:1001B80083120313B8000030B9000A128A154526C5
:1001C8000A128A11831203133108D200D30152088C
:1001D800BA005308BB000A128A15BB240A128A11F6
:1001E800831203133808013ED400540883160317FA
:1001F800E700650883120313D200831603176F08FC
:10020800BF3E8400831203135208831380008316B1
:100218000317660883120313D200831603176F08A7
:10022800BB3E840083120313520880008316031711
:10023800670883120313D200831603176F08B73EAB
:10024800840083120313520880003A2AB801B80ABE
:10025800831603176F08BF3E840000088312031338
:10026800D2005208B90003300A128A1541220A1234
:100278008A11023083120313D2005208B800831681
:1002880003176F08BB3E840083130008831203130F
:10029800D3005308B90003300A128A1541220A1202
:1002A8008A11033083120313D2005208B800831650
:1002B80003176F08B73E84008313000883120313E3
:1002C800D3005308B90003300A128A1541220A12D2
:1002D8008A11542AB801B80A831603176F08BF3E5B
:1002E8008400000883120313D2005208B9000530B5
:1002F8000A128A1541220A128A1102308312031344
:10030800D2005208B800831603176F08BB3E84005A
:100318008313000883120313D3005308B900053070
:100328000A128A1541220A128A1103308312031312
:10033800D2005208B800831603176F08B73E84002E
:100348008313000883120313D3005308B900053040
:100358000A128A1541220A128A11542AB801B80AC7
:10036800831603176F08BF3E840000088312031327
:10037800D2005208B90007300A128A1541220A121F
:100388008A11023083120313D2005208B800831670
:1003980003176F08BB3E84008313000883120313FE
:1003A800D3005308B90007300A128A1541220A12ED
:1003B8008A11033083120313D2005208B80083163F
:1003C80003176F08B73E84008313000883120313D2
:1003D800D3005308B90007300A128A1541220A12BD
:1003E8008A11542AB801B80A831603176F08BF3E4A
:1003F8008400000883120313D2005208B9000930A0
:100408000A128A1541220A128A1102308312031332
:10041800D2005208B800831603176F08BB3E840049
:100428008313000883120313D3005308B90009305B
:100438000A128A1541220A128A1103308312031301
:10044800D2005208B800831603176F08B73E84001D
:100458008313000883120313D3005308B90009302B
:100468000A128A1541220A128A11542A831603177E
:100478006F0883120313D200D3015308003A0319FB
:10048800462A542A5208003A03192A29013A03191C
:100498006E29033A0319B229013A0319F629542A95
:1004A800013083120313D200520883160317EF0793
:1004B80004306F02031C612A622A9728EB01EC01C1
:1004C800831603176B08BF3E8400831380016B08F3
:1004D800BB3E840080016B08B73E84008001013078
:1004E800EB070318EC0A0030EC076C08803AFF00B1
:1004F80080307F02031D822A04306B02031C852A88
:10050800862A642A83160317E80105306802031C4B
:100518008E2A8F2A902A9B2B6808903E8400831786
:100528008001013083120313D20052088316031787
:10053800E807892A6414631000300A128A15F42126
:100548000A128A11831203132408D2002508D30043
:10055800530DD30CD20C530DD30CD20C5208C80037
:100568005308C9000030CA00CB00FF30CC0000306F
:10057800CD00EC30CE00FF30CF003C30D000003052
:10058800D1000A128A1572220A128A1183120313E1
:100598004808D4005408DC0001300A128A15F421F6
:1005A8000A128A11831203132408D2002508D300E3
:1005B800530DD30CD20C530DD30CD20C5208C800D7
:1005C8005308C9000030CA00CB00FF30CC0000300F
:1005D800CD000030CE00CF006430D0000030D10014
:1005E8000A128A1572220A128A1183120313480802
:1005F800D4005408DB0005300A128A15F4210A12C7
:100608008A11831203132408D2002508D300530D3E
:10061800D30CD20C530DD30CD20C5208C80053087B
:10062800C9000030CA00CB00FF30CC000030CD003C
:100638000030CE00CF006430D0000030D1000A1264
:100648008A1572220A128A11831203134808D400E9
:10065800540883160313B60083120313B8015C0809
:10066800D2005208B90002300A128A1541220A1231
:100678008A1183120313B8015B08D2005208B9002B
:1006880004300A128A1541220A128A1183120313AE
:10069800B80183160313360883120313D2005208D5
:1006A800B90006300A128A1541220A128A118316E5
:1006B8000317E90105306902031C632B642B652BC2
:1006C8009B2B6908903E84008317800101308312B8
:1006D8000313D200520883160317E9075E2B043070
:1006E8005D02031C782B792B7C2B6414E4146310B3
:1006F8000F305E02031C812B822B9B2B6414E410A9
:1007080063109B2B8316031710087F39831203137A
:10071800D200D3015308003A0319932B732B5208C4
:10072800083A03199228023A03199E2A732B831256
:100738000313641CA02BA12BB52B6310DE016410DE
:10074800DD01E41CA82BA92BAB2BE410B52BE7305B
:10075800D2005208AC0090300A128A1516250A12E7
:100768008A1183120313621CBA2BBB2BE92C611C60
:10077800BE2BBF2BE92C83160317EE0102306E0245
:10078800031CC72BC82BC92BE92C6E08E73E840035
:100798008313000884008317000883120313D20010
:1007A800840A0008D300520853040319DC2BDD2BFC
:1007B800E02C831603176E0883120313D200520726
:1007C800A03E8400013083138007840A0318800A3E
:1007D800831603176E08E73E840000080C3E840069
:1007E8008317000883120313D200520883160317D5
:1007F800ED006E0883120313D2005207A03E840056
:1008080083130008D300840A0008D4008316031752
:100818006E08E73E84006D0883120313D500550760
:100828000007D6005608840083170008D700840AFA
:100838000008D80053085702D9005408031C540A6A
:100848005802DA00DA1F292C2A2C832C0130D20016
:10085800520883160317ED076E0883120313D2009C
:100868005207A03E8400013083138000840A0030C0
:1008780080000330831603176D02031C442C452C9B
:10088800832CED016E08031D4A2C4B2C832CE7307A
:100898000A128A1169270A128A1183160317EA01B4
:1008A80008306A02031C592C5A2C5B2C7B2C6A08D2
:1008B80083120313D2005207A03E84000130831331
:1008C8008000840A00308000831603176A08E73E18
:1008D800840000080C3E84008317800101308312D5
:1008E8000313D200520883160317EA07542C831601
:1008F800031368080C3E840083178001800A83165E
:1009080003176D0883120313D2005208A40083163C
:1009180003176E080A128A15BB230A128A11831656
:1009280003176D0883120313D200831603176E088A
:10093800E73E8400831300080C3E840083120313EF
:10094800520883178000831603176E088312031357
:10095800D2005208C800831603176E0883120313C7
:10096800D3005307A03E840083130008D400840AF0
:100978000008D500831603176E08E73E84006D084B
:1009880083120313D60056070007D70057088400C0
:1009980083170008D800840A0008D90054085802B0
:1009A800C9005508031C550A5902CA00DF300A124B
:1009B8008A11D4250A128A11013083120313D20036
:1009C800520883160317EE07C22B0A128A155327FB
:1009D8000A128A1183120313621CF32CF42CFA2CCA
:1009E800611CF72CF82CFA2C62106110621CFD2C8B
:1009F800FE2C8D286118012D022D8D2861148D285B
:100A08000A128A11102883120313AF012F082A072C
:100A1800AB002B088400831300080C3E8400831766
:100A280080012F082A07AB002B08840083130008D5
:100A38000D3E840083178001AE019A2D2F082A07E6
:100A4800AB002B0884002E08AC002C07831300078A
:100A5800AD002D088400240883178000840A250827
:100A680080002F082A07AB002B0884002E08AC0052
:100A78002C0783130007AD002D08063E84002408C8
:100A880083178000840A25088000AD2D2F082A07C7
:100A9800AB002B0884002E08AC002C07831300073A
:100AA800AD002D088400260883178000840A2708D3
:100AB80080002F082A07AB002B0884002E08AC0002
:100AC8002C0783130007AD002D08063E8400260876
:100AD80083178000840A27088000AD2D2F082A0775
:100AE800AB002B0884002E08AC002C0783130007EA
:100AF800AD002D088400280883178000840A29087F
:100B080080002F082A07AB002B0884002E08AC00B1
:100B18002C0783130007AD002D08063E8400280823
:100B280083178000840A29088000AD2D2E08AB00A9
:100B3800AC012C08003A0319A22DAD2D2B08003A60
:100B48000319222D013A03194A2D033A0319722D6C
:100B5800AD2D0130AB002B08AE0703302E02031C6D
:100B6800B62DB72D9A2D0130AB002B08AF070830F2
:100B78002F02031CC02DC12D0A2D2A0A84008313BD
:100B880000080C3E840083178001800A2A0A84002A
:100B9800831300080D3E840083178001800A080033
:100BA80083120313D000ED2D0A3083120313BF0004
:100BB8000030C0004A08C2004908C1000A128A155C
:100BC800DC250A128A11831203134008CA003F0861
:100BD800C900E830BF000330C0004A08C200490815
:100BE800C1000A128A15DC250A128A11831203131E
:100BF8004008803AFF0080307F02031D052E013037
:100C08003F020318082E092ED82D643083120313CF
:100C1800BF000030C0004A08C2004908C1000A12DB
:100C28008A15DC250A128A11831203133F08CB00A8
:100C3800500884000330CC004C08A40048080A126D
:100C48008A11DB270A128A11831300078312031300
:100C5800CD004D0884004B0880000A30BF000030EA
:100C6800C0004A08BB004908BA006430B800003028
:100C7800B9000A128A15BB240A128A1183120313B7
:100C88003908C2003808C1000A128A15DC250A1280
:100C98008A11831203133F08CB00500884000330E5
:100CA800CC004C08A40048080A128A11DB270A1253
:100CB8008A118313000783120313CD004D0A8400A1
:100CC8004B0880004A08BB004908BA006430B800E5
:100CD8000030B9000A128A15BB240A128A1183123D
:100CE80003133908CF003808CE000A30B8000030A6
:100CF800B9004F08BB004E08BA000A128A15BB2477
:100D08000A128A11831203133808CB005008840092
:100D18000330CC004C08A40048080A128A11DB27CB
:100D28000A128A118313000783120313CD004D089A
:100D3800023E84004B088000080083120313A800B9
:100D480028087F39A6002608A90024087F39A600AC
:100D58002608AA0025087F39A6002608AB00250822
:100D6800A60007300310A60CFF3E031DB62E26086A
:100D78007F39A7002708AC00AE01AF01B401B50167
:100D880083120313B001B101831203133408293EFF
:100D9800840083130008A600300AD42E0310A60C82
:100DA800FF3E031DD22E26080139A7002708AE07EB
:100DB8000130B0070318B10A0030B1073108803A92
:100DC800FF0080307F02031DEB2E08303002031C29
:100DD800EE2EEF2EC82E831203132E1CF42EF52EA2
:100DE800FD2E8030A6003408293E8400260883138F
:100DF8008007AE010130B4070318B50A0030B50703
:100E08003508803AFF0080307F02031D0D2F043023
:100E18003402031C102F112FC42E83120313B601A2
:100E2800B70183120313B201B3018312031332080B
:100E3800293E840083130008A600360A252F0310D4
:100E4800A60CFF3E031D232F26080139A7002708FB
:100E5800AF070130B2070318B30A0030B3073308ED
:100E6800803AFF0080307F02031D3C2F043032029D
:100E7800031C3F2F402F192F831203132F1C452FBC
:100E8800462F532F0130A600360A4C2F0310A60D0B
:100E9800FF3E031D4A2F2608A7002708AD07AF010C
:100EA8000130B6070318B70A0030B7073708803A89
:100EB800FF0080307F02031D632F08303602031CB9
:100EC800662F672F152F2930080083120313AE00F1
:100ED800B001AF0130082E07A400240884002F08B1
:100EE800A500250783130007A6002608063E8400F0
:100EF80083170008A700840A0008A80030082E07F6
:100F0800A900290884002F08AA002A0783130007CC
:100F1800AB002B08840083170008AC00840A000883
:100F2800AD0028082D06031D9B2F27082C06031942
:100F38009E2F9F2FC62F30082E07A4002408840058
:100F48002F08A500250783130007A6002608063EDC
:100F5800840083170008A700840A0008A800300846
:100F68002E07A900290884002F08AA002A0783133E
:100F78000007AB002B088400270883178000840A29
:100F8800280880000130A4002408AF0703302F028E
:100F9800031CCF2FD02F6E2F0130A4002408B007D8
:100FA80008303002031CD92FDA2F6D2F0800831266
:100FB8000313A700A601271CE22FE32FE72F24081D
:100FC800A5002508A6070310A40D0310A70C2708E1
:100FD800031DEF2FF02FDF2F2608080083120313BD
:100FE800A4000C1EF82FF92FF52F0C1224089900D5
:020FF8000800EF
:1010000008308A000408840A820700343F3406341A
:101010005B344F3466346D347D3407347F346F3441
:04102000003408345C
:1013520064008001840A0406031900340406AA29E1
:10136200831203138C1EB629B729B1298C121A08CD
:101372000800E330831603138500831203139F01D1
:101382008030831603139F00193083120313A400C5
:10139200A40BC929CC2908007E088A007F08820094
:1013A2000A128A15CD210A128A158000840A0408BD
:1013B2007D0603190034FF0A0319FE0AD1290134FC
:1013C200003400340034D834D534D234CF34CC3461
:1013D200C934C634C334D734C934BB34AD349F3472
:1013E2002C341E34103483120313A7002708A600DE
:1013F20002300310A60DFF3E031DFA290310260D2D
:1014020001389F00043083120313A600A60B072A9B
:101412000000831203131F151F19102A112A0D2A07
:101422001E08A500831603131E0883120313A400CB
:10143200080083120313A801A901241C212A222ACD
:10144200282A2608A8070318A90A2708A90701308D
:101452000310A60DA70DFF3E031D292A013003101C
:10146200A50CA40CFF3E031D302A24082504031DED
:101472003B2A3C2A1E2A2908A5002808A4000800A5
:1014820083120313BD003808BA003A08A4003908D1
:10149200BB003B08A5003D080A128A11A1260A12C8
:1014A2008A1583120313BC003C08BE00BF013E082C
:1014B2008400831300080A128A11F2270A128A157D
:1014C200013083120313BA003A08BE070130BA0092
:1014D2003A08BF0705303F02031C702A712A582AB6
:1014E2000800831203134A084C02BF004B08031C76
:1014F2004B0A4D02C0004A084802A4004B08031CD4
:101502004B0A4902A5004E085002A6004F08031CD0
:101512004F0A5102A7000A128A151A220A128A15C4
:10152200831203132508C2002408C1000A128A1577
:10153200DC250A128A15831203134E083F07C800DE
:101542004F0803184F0A4007C90008008316031307
:101552000713981683120313981718163308B50049
:101562003408B6000030B61BFF30B700B8000630B2
:101572000310B50DB60DB70DB80DFF3E031DB92A08
:101582003808A7003708A6003608A5003508A400C9
:101592000130AB00E830AA004830A9000030A800B2
:1015A2000A128A15B6260A128A1583120313240810
:1015B200FF3E8316031399008B170B178C16080036
:1015C20083120313A80028082407A6002608033E56
:1015D20084007F3083170005A70029082706803979
:1015E2002706A90029087F39A600A7012608AA0014
:1015F2002708AB002B08A7002A08A6000730FF0027
:101602000310A60DA70DFF0B012B80302605AA00A3
:1016120000302705AB0028082407A6002608023E52
:1016220084007F300005A700290827068039270695
:10163200A90029087F39A6002A082604AA002B0837
:10164200AB002B08A5002A08A40008000030831272
:101652000313B0000030AF000030AE000030AD0028
:10166200241C342B352B4C2B2808AD0729080311D9
:101672000318013E03193E2BAE072A080311031873
:10168200013E0319452BAF072B0803110318013E36
:1016920003194C2BB0070130AC000310A80DA90DA3
:1016A200AA0DAB0DAC0B4E2B01300310A70CA60CF0
:1016B200A50CA40CFF3E031D562B27082604250467
:1016C2002404031D652B662B312B3008A7002F083D
:1016D200A6002E08A5002D08A40008000130710202
:1016E200F43003197002031C772B782B882B7508B2
:1016F2007207F6007608840083130008013EF700A3
:1017020075087207F80078088400770880000530B1
:101712007102DC3003197002031C902B912BA12B58
:1017220075087307F6007608840083130008013EEB
:10173200F70075087307F8007808840077088000BE
:101742000B307102B83003197002031CA92BAA2BAB
:10175200BA2B75087407F600760884008313000814
:10176200013EF70075087407F800780884007708CE
:101772008000080083120313A700FD2B87100711B6
:1017820007140D2C0710071187140D2C0710871052
:1017920007150D2C2408A500A6012608003A0319F6
:1017A200D32B0D2C2508003A0319BF2B013A03193C
:1017B200C32B033A0319C72B0D2C86100613861769
:1017C2000D2C8613061386140D2C8613861006170D
:1017D2000D2C2408A500A6012608003A0319F22BB5
:1017E2000D2C2508003A0319DE2B013A0319E22BCE
:1017F200033A0319E62B0D2C2708A500A60126089B
:10180200003A0319052C0D2C2508003A0319CB2B9D
:10181200013A0319EA2B0D2C080083120313AA00C4
:10182200522C240C031C051103180515250C031C4E
:10183200851103188515260C031C051203180516BD
:10184200240C031C061003180614250C031C061096
:1018520003180614260C031C061003180614270886
:101862008800622C240C031C851203188516250C93
:10187200031C061003180614260C031C061003187A
:101882000614240C031C061003180614250C031C52
:10189200061003180614260C031C0610031806145F
:1018A200622C2A08A800A9012908003A03195A2C17
:1018B200622C2808003A0319122C013A0319332C1E
:1018C200622C08008C1E662C672C702C63186A2C04
:1018D2006B2C702C63146410E410DE01DD018C1E8D
:1018E200732C742C8B2C631C772C782C8B2C0A1267
:1018F2008A15B1210A128A1583120313A0005E0809
:10190200903E84002008831780000130A000200848
:10191200DE07DD010B1D8E2C8F2C992C0B110A1268
:101922008A1577250A128A1506308312031381005D
:101932000C1C9C2C9D2CB22C0C100130A0002008F9
:10194200DF0714305F02031CA72CA82CAE2C6214F4
:10195200DF010130A0002008DD073C308F00B030ED
:101962008E0023088A0022088400210E8300FE0EC6
:101972007E0E090083120313BE01BB1FC12CC22CB1
:10198200C92CBA09BB09BA0A0319BB0ABE01BE0AAD
:10199200B91FCC2CCD2CD22CB809B909B80A03191D
:1019A200B90A380839040319D72CD82C072DBD01E0
:1019B200BD0AE62C01300310B80DB90DFF3E031D20
:1019C200DC2C0130BC003C08BD07B91FE92CEA2C15
:1019D200DB2C39083B02031DF02C38083A02031CA9
:1019E200F32CF42CFA2C3808BA023908031CBB0376
:1019F200BB0201300310B90CB80CFF3E031DFB2CD7
:101A02000130BD02031D062D072DEA2C3E080319E5
:101A12000B2D0C2D112DBA09BB09BA0A0319BB0AE9
:101A22003B08B9003A08B800080083120313B30058
:101A3200B50103303502031C1F2D202D212D762DDB
:101A42000530AD002D08A40035080A128A11DB27E3
:101A52000A128A1583120313AE002E08B40034084A
:101A62003307AD002D08840083170008AE00031071
:101A72002E0C0F39AF002F08B10034083307AD0028
:101A82002D0884000008AE0005300310AE0CFF3EA6
:101A9200031D462D2E080339FF3EAF002F08B2006A
:101AA2003308AD002D08A40034080A128A15E12279
:101AB2000A128A158312031331082C07AE002E086E
:101AC20084003208AF002F0783130007B0003008EC
:101AD200063E8400240883178000840A25088000BB
:101AE2000130AD002D08B5071A2D08000030831211
:101AF20003138619013083160313B00000308312DA
:101B02000313061A013083160313B1000030831247
:101B12000313861A013083160313B20000308312B6
:101B22000313851A013083160313B300FD017D08E8
:101B3200B03E840083130008031DA02DA12DAA2D01
:101B4200013083160313B4070318B50A0030B50732
:101B5200D12D7D08B03E840000080319B12DB22DAD
:101B6200D12D831603133508F1003408F000BF307D
:101B7200F9007908F200BB30FA007A08F300B730B6
:101B8200FB007B08F4007D08FC007C08F5000A12CB
:101B92008A156F230A128A1583160313B401B5013D
:101BA2000130F9007908FD0704307D02031CDA2DAB
:101BB200DB2D982D080083120313C501C01FE22DEF
:101BC200E32DEA2DBF09C009BF0A0319C00AC501E6
:101BD200C50AC21FED2DEE2DF72DC109C209C10A9A
:101BE2000319C20A0130C3004308C506C601C70172
:101BF2003F0840040319FE2DFF2D362EC401C40AEE
:101C02000D2E01300310BF0DC00DFF3E031D032E2C
:101C12000130C3004308C407C01F102E112E022E2C
:101C220001300310C60DC70DFF3E031D122E4008E2
:101C32004202031D1E2E3F084102031C212E222EAA
:101C4200292E3F08C1024008031CC203C2024614E7
:101C520001300310C00CBF0CFF3E031D2A2E0130C1
:101C6200C402031D352E362E112E450803193A2EB5
:101C72003B2E402EC609C709C60A0319C70A4708E0
:101C8200C0004608BF000800831603135E088312D3
:101C92000313A700831603135D0883120313A60020
:101CA200831603135C0883120313A5008316031320
:101CB2005B0883120313A4004130AB00C630AA00B4
:101CC2004E30A9006D30A8000A128A1527230A1285
:101CD2008A1583120313270883160313DE00831267
:101CE2000313260883160313DD008312031325084A
:101CF20083160313DC0083120313240883160313D1
:101D0200DB003930DB07303003183130DC070030BC
:101D120003180130DD07003003180130DE075B08CD
:101D220083120313B300831603135C088312031395
:101D3200B400831603135D0883120313B5008316E0
:101D420003135E0883120313B6001030B700360D7A
:101D5200B60CB50CB40CB30CB70BA82EFF30330580
:101D6200B1007F303405B200080083120313AE01C4
:101D7200A71FBC2EBD2ECA2EA409A509A609A70914
:101D8200A40A0319A50A0319A60A0319A70AAE0190
:101D9200AE0AAB1FCD2ECE2EDD2EA809A909AA09A7
:101DA200AB09A80A0319A90A0319AA0A0319AB0A5B
:101DB2000130AC002C08AE060030B2000030B10099
:101DC2000030B0000030AF002708260425042404A8
:101DD2000319EC2EED2E3A2FAD01AD0AFD2E013086
:101DE200AC000310A40DA50DA60DA70DAC0BF22E91
:101DF2000130AC002C08AD07A71F002F012FF02ED9
:101E02000130AC000310AF0DB00DB10DB20DAC0B33
:101E1200032F27082B02031D182F26082A02031D51
:101E2200182F25082902031D182F24082802031C35
:101E32001B2F1C2F2B2F2408A8022508031C250F5B
:101E4200A9022608031C260FAA022708031C270F33
:101E5200AB022F1401300310A70CA60CA50CA40C86
:101E6200FF3E031D2C2F0130AD02031D392F3A2FE7
:101E7200012F2E0803193E2F3F2F4A2FAF09B00919
:101E8200B109B209AF0A0319B00A0319B10A031959
:101E9200B20A3208A7003108A6003008A5002F08B0
:101EA200A400080083120313C101CA2F4108DF3EB8
:101EB200840083130008840000080319612F622F35
:101EC200DD2FA401A40AA501A6014108DF3E84007A
:101ED200000884000008013E84000A128A150020CE
:101EE2000A128A15BF003F08A70041080A128A1584
:101EF2000E240A128A15DD2F4108DF3E8400831367
:101F0200000A84000008031D872F882F922F4108A2
:101F1200DF3E84000008840000080319912F922FED
:101F2200DD2FA401A501A50AA6014108DF3E840018
:101F3200000A84000008013E84000A128A1500206B
:101F42000A128A15BF003F08A70041080A128A1523
:101F52000E240A128A15DD2FA401A501A601A60AE4
:101F62004108DF3E840083130008023E840000081B
:101F7200013E84000A128A1500200A128A15BF0047
:101F82003F08A70041080A128A150E240A128A1570
:101F9200DD2F6008BF00C0014008003A0319D22FAC
:101FA200DD2F3F08003A0319572F013A03197D2FFD
:101FB200033A0319AD2FDD2F013083120313BF0043
:101FC2003F08C10708304102031CE82FE92FCA2F3E
:101FD2000330B8000030B9006008013EBA0000309A
:101FE20003180130BB000A128A15BB240A128A1593
:0E1FF200831203133808BF003F08E000080008
:02400E00F23F7F
:00000001FF
