:020000040000FA
:060000000A128A1110280B
:10000800FE00030E83120313A1000408A2000A08CD
:10001800A3000A128A15482D0A128A11132883167A
:1000280003130A128A15DB210A128A11EB000A123D
:100038008A15DC210A128A11EC000A128A15DD21C0
:100048000A128A11ED000A128A15DE210A128A1193
:10005800EE00831203130A128A15DF210A128A118D
:10006800E2000A128A15E0210A128A11E3000A1234
:100078008A15E1210A128A11E4000A128A15E2217E
:100088000A128A11E5008313A0308400EB300A12AB
:100098008A15E3210A128A11DB01DC01DD01DE0188
:1000A800DF01E001E10183010A128A115B2838307F
:1000B8008316031386008030870088010130890089
:1000C800E0308B0004308100063083120313810076
:1000D800313090003C308F00B0308E000A128A1503
:1000E800F4210A128A11803083120313B3002530D9
:1000F800B4000A128A15D1220A128A110630831214
:100108000313A4000030A5000430A6000030A700A7
:100118000230A8000030A9006430D2005208AA00BA
:100128000A128A119F260A128A11831203130710D2
:1001380086130711061387108610601CA428A528AB
:10014800BF2BAA2B61146010831603179901143072
:1001580083120313B8000030B9000A128A15E22688
:100168000A128A11831203133108D200D3015208EC
:10017800BA005308BB000A128A158D240A128A1184
:10018800831203133808013ED4005408831603175A
:100198009000143083120313B8000030B9000A121B
:1001A8008A15E2260A128A11831203133108D20033
:1001B800D3015208BA005308BB000A128A158D24CD
:1001C8000A128A11831203133808013ED400540816
:1001D800831603179100143083120313B8000030FC
:1001E800B9000A128A15E2260A128A118312031329
:1001F8003108D200D3015208BA005308BB000A12D2
:100208008A158D240A128A11831203133808013EB5
:10021800D40054088316031792001008831203139E
:10022800D200831603171908E13E840083120313D2
:1002380052088313800083160317110883120313CF
:10024800D200831603171908DD3E840083120313B6
:100258005208800083160317120883120313D20072
:10026800831603171908D93E840083120313520812
:1002780080004E2AB801B80A831603171908E13E10
:100288008400000883120313D2005208B900033017
:100298000A128A156B220A128A110230831203137A
:1002A800D2005208B800831603171908DD3E8400EF
:1002B8008313000883120313D3005308B9000330D3
:1002C8000A128A156B220A128A1103308312031349
:1002D800D2005208B800831603171908D93E8400C3
:1002E8008313000883120313D3005308B9000330A3
:1002F8000A128A156B220A128A11682AB801B80AEA
:10030800831603171908E13E8400000883120313BB
:10031800D2005208B90005300A128A156B220A1257
:100328008A11023083120313D2005208B8008316D0
:1003380003171908DD3E8400831300088312031392
:10034800D3005308B90005300A128A156B220A1225
:100358008A11033083120313D2005208B80083169F
:1003680003171908D93E8400831300088312031366
:10037800D3005308B90005300A128A156B220A12F5
:100388008A11682AB801B80A831603171908E13ECA
:100398008400000883120313D2005208B900073002
:1003A8000A128A156B220A128A1102308312031369
:1003B800D2005208B800831603171908DD3E8400DE
:1003C8008313000883120313D3005308B9000730BE
:1003D8000A128A156B220A128A1103308312031338
:1003E800D2005208B800831603171908D93E8400B2
:1003F8008313000883120313D3005308B90007308E
:100408000A128A156B220A128A11682AB801B80AD8
:10041800831603171908E13E8400000883120313AA
:10042800D2005208B90009300A128A156B220A1242
:100438008A11023083120313D2005208B8008316BF
:1004480003171908DD3E8400831300088312031381
:10045800D3005308B90009300A128A156B220A1210
:100468008A11033083120313D2005208B80083168E
:1004780003171908D93E8400831300088312031355
:10048800D3005308B90009300A128A156B220A12E0
:100498008A11682A83160317190883120313D200D6
:1004A800D3015308003A03195A2A682A5208003A15
:1004B80003193E29013A03198229033A0319C62967
:1004C800013A03190A2A682A013083120313D20059
:1004D800520883160317990704301902031C752A5A
:1004E800762AAB2895019601831603171508E13E75
:1004F8008400831380011508DD3E840080011508FF
:10050800D93E84008001013095070318960A00300F
:1005180096071608803AFF0080307F02031D962A4E
:1005280004301502031C992A9A2A782A831603177D
:1005380093011308AE3E84008313800101308312B7
:100548000313D200520883160317930705301302CA
:10055800031CAF2AB02A9D2ABF2B611460100030FB
:100568000A128A151E220A128A11831203132408FA
:10057800D2002508D300530DD30CD20C530DD30C45
:10058800D20C5208C8005308C9000030CA00CB007A
:10059800FF30CC000030CD00EC30CE00FF30CF0073
:1005A8003C30D0000030D1000A128A159C220A1271
:1005B8008A11831203134808D400540883160313BE
:1005C800AC0001300A128A151E220A128A118312FF
:1005D80003132408D2002508D300530DD30CD20CE2
:1005E800530DD30CD20C5208C8005308C900003070
:1005F800CA00CB00FF30CC000030CD000030CE0068
:10060800CF006430D0000030D1000A128A159C2235
:100618000A128A11831203134808D4005408831657
:100628000313AB0005300A128A151E220A128A111A
:10063800831203132408D2002508D300530DD30CCA
:10064800D20C530DD30CD20C5208C8005308C90061
:100658000030CA00CB00FF30CC000030CD000030A5
:10066800CE00CF006430D0000030D1000A128A15C5
:100678009C220A128A11831203134808D4005408D2
:1006880083160313AA0083120313B80183160313F6
:100698002C0883120313D2005208B90002300A1240
:1006A8008A156B220A128A1183120313B801831662
:1006B80003132B0883120313D2005208B900043025
:1006C8000A128A156B220A128A1183120313B801BF
:1006D800831603132A0883120313D2005208B900A1
:1006E80006300A128A156B220A128A11831603171A
:1006F800940105301402031C822B832B842BBF2BFF
:100708001408AE3E84008313800101308312031362
:10071800D20052088316031794077D2B04308316E2
:1007280003132D02031C992B9A2B9F2B831203135F
:100738006114E11460100F3083125B02031CA52BB7
:10074800A62BBF2B6114E1106010BF2B8316031377
:100758002E087F3983120313D200D3015308003ABD
:100768000319B72B922B5208083A0319A628023A04
:100778000319B12A922B83120313611CC42BC52BB6
:10078800DD2B6010DB01611083160313AD018312AA
:100798000313E11CD02BD12BD32BE110DD2B6430BC
:1007A800D2005208AC00AE300A128A15E8240A12A8
:1007B8008A11831203135F1CE22BE32BEC2C5E1CC3
:1007C800E62BE72BEC2C831603179801023018024E
:1007D800031CEF2BF02BF12BEC2C1808643E840043
:1007E800831300088400000883120313D200840ACC
:1007F8000008D300520853040319032C042CE32CDB
:1008080083160317180883120313D2005207A43E55
:10081800840001308007840A0318800A83160317AE
:100828001808643E840000080C3E84000008831207
:100838000313D2005208831603179700180883126F
:100848000313D2005207A43E84000008D300840A90
:100858000008D400831603171808643E840017089C
:1008680083120313D50055070007D60056088400E5
:100878000008D700840A0008D80053085702D90096
:100888005408031C540A5802DA00DA1F4C2C4D2C69
:10089800892C0130D20052088316031797071808CD
:1008A80083120313D2005207A43E84000130800053
:1008B800840A003080000330831603171702031CD4
:1008C800662C672C892C97011808031D6C2C6D2C3D
:1008D800892C64300A128A1577260A128A11013087
:1008E80083160313A4000030A5000130A6000030D1
:1008F800A7008312031364080C3E8400831380014D
:1009080065080C3E84008001800A831603171708C7
:1009180083120313D2005208A40083160317180881
:100928000A128A15E5230A128A1183160317170873
:1009380083120313D200831603171808643E840039
:10094800831300080C3E84008312031352088000AE
:1009580083160317180883120313D2005208C8001D
:1009680083160317180883120313D3005307A43EF2
:1009780084000008D400840A0008D50083160317F1
:100988001808643E8400170883120313D60056071C
:100998000007D700570884000008D800840A000818
:1009A800D90054085802C9005508031C550A5902B1
:1009B800CA0062300A128A110A250A128A11013005
:1009C80083120313D2005208831603179807EA2BE1
:1009D8000A128A1553270A128A11831203135F1CFD
:1009E800F62CF72CFD2C5E1CFA2CFB2CFD2C5F1032
:1009F8005E105F1C002D012DA1285E18042D052D09
:100A0800A1285E14A1280A128A1110288312031340
:100A1800D000232D0A3083120313BF000030C0001A
:100A28004A08C2004908C1000A128A150E260A128D
:100A38008A11831203134008CA003F08C900E8302E
:100A4800BF000330C0004A08C2004908C1000A12AA
:100A58008A150E260A128A11831203134008803A57
:100A6800FF0080307F02031D3B2D01303F02031839
:100A78003E2D3F2D0E2D643083120313BF0000302E
:100A8800C0004A08C2004908C1000A128A150E2689
:100A98000A128A11831203133F08CB0050088400FE
:100AA8000330CC004C08A40048080A128A15072213
:100AB8000A128A118313000783120313CD004D080D
:100AC80084004B0880000A30BF000030C0004A088C
:100AD800BB004908BA006430B8000030B9000A12F7
:100AE8008A158D240A128A11831203133908C20049
:100AF8003808C1000A128A150E260A128A118312B2
:100B080003133F08CB00500884000330CC004C0886
:100B1800A40048080A128A1507220A128A118313A8
:100B2800000783120313CD004D0A84004B08800090
:100B38004A08BB004908BA006430B8000030B90060
:100B48000A128A158D240A128A118312031339088E
:100B5800CF003808CE000A30B8000030B9004F087E
:100B6800BB004E08BA000A128A158D240A128A118F
:100B7800831203133808CB00500884000330CC00DC
:100B88004C08A40048080A128A1507220A128A117A
:100B98008313000783120313CD004D08023E84001F
:100BA8004B088000080083120313A80028087F3927
:100BB800A6002608A90024087F39A6002608AA004E
:100BC80025087F39A6002608AB002508A6000730AF
:100BD8000310A60CFF3E031DEC2D26087F39A70045
:100BE8002708AC00AE01AF01B401B50183120313AD
:100BF800B001B101831203133408293E8400831322
:100C08000008A600300A0A2E0310A60CFF3E031D9A
:100C1800082E26080139A7002708AE070130B007BB
:100C28000318B10A0030B1073108803AFF0080305C
:100C38007F02031D212E08303002031C242E252E8E
:100C4800FE2D831203132E1C2A2E2B2E332E8030BA
:100C5800A6003408293E8400260883138007AE01C5
:100C68000130B4070318B50A0030B5073508803AD3
:100C7800FF0080307F02031D432E04303402031C22
:100C8800462E472EFA2D83120313B601B70183129D
:100C98000313B201B301831203133208293E8400FF
:100CA80083130008A600360A5B2E0310A60CFF3E2D
:100CB800031D592E26080139A7002708AF07013060
:100CC800B2070318B30A0030B3073308803AFF00AD
:100CD80080307F02031D722E04303202031C752EF1
:100CE800762E4F2E831203132F1C7B2E7C2E892EDB
:100CF8000130A600360A822E0310A60DFF3E031D02
:100D0800802E2608A7002708AD07AF010130B607D7
:100D18000318B70A0030B7073708803AFF00803059
:100D28007F02031D992E08303602031C9C2E9D2E2F
:100D38004B2E2930080083120313AE01AF01132F85
:100D48002E082A07AB002B0884002F08AC002C07BC
:100D580083130007AD002D08840024088000840A4E
:100D6800250880002E082A07AB002B0884002F08CE
:100D7800AC002C070007AD002D08063E84002408AF
:100D88008000840A25088000262F2E082A07AB0039
:100D98002B0884002F08AC002C0783130007AD0034
:100DA8002D08840026088000840A270880002E0861
:100DB8002A07AB002B0884002F08AC002C0700077B
:100DC800AD002D08063E840026088000840A270806
:100DD8008000262F2E082A07AB002B0884002F0836
:100DE800AC002C0783130007AD002D0884002808E9
:100DF8008000840A290880002E082A07AB002B08E7
:100E080084002F08AC002C070007AD002D08063E13
:100E1800840028088000840A29088000262F2F08CB
:100E2800AB00AC012C08003A03191B2F262F2B0806
:100E3800003A0319A42E013A0319C92E033A0319DB
:100E4800EE2E262F0130AB002B08AF0703302F0200
:100E5800031C2F2F302F132F0130AB002B08AE07A8
:100E680002302E02031C392F3A2FA22E2A088400A2
:100E7800831300080C3E840080012A0884000008BF
:100E88000D3E840080012A0A840000080C3E84007C
:100E98008001800A2A0A840000080D3E840080012F
:100EA800800A080083120313AE01A71F5C2F5D2F71
:100EB8006A2FA409A509A609A709A40A0319A50A5E
:100EC8000319A60A0319A70AAE01AE0AAB1F6D2FB4
:100ED8006E2F7D2FA809A909AA09AB09A80A031929
:100EE800A90A0319AA0A0319AB0A0130AC002C0895
:100EF800AE060030B2000030B1000030B000003063
:100F0800AF00270826042504240403198C2F8D2FED
:100F1800DA2FAD01AD0A9D2F0130AC000310A40DEE
:100F2800A50DA60DA70DAC0B922F0130AC002C0817
:100F3800AD07A71FA02FA12F902F0130AC000310E1
:100F4800AF0DB00DB10DB20DAC0BA32F27082B02BE
:100F5800031DB82F26082A02031DB82F25082902C9
:100F6800031DB82F24082802031CBB2FBC2FCB2F2E
:100F78002408A8022508031C250FA9022608031C1B
:100F8800260FAA022708031C270FAB022F140130D3
:100F98000310A70CA60CA50CA40CFF3E031DCC2F18
:100FA8000130AD02031DD92FDA2FA12F2E08031906
:100FB800DE2FDF2FEA2FAF09B009B109B209AF0A56
:100FC8000319B00A0319B10A0319B20A3208A700B3
:100FD8003108A6003008A5002F08A40008008312D5
:100FE8000313A4000C1EF92FFA2FF62F0C12240855
:040FF8009900080054
:1010000008308A000408840A820700343F3406341A
:101010005B344F3466346D347D3407347F346F3441
:041020000034023462
:1013B6000134003400340034E834E534CB34BD3431
:1013C60064008001840A0406031900340406E42933
:1013D600831203138C1EF029F129EB298C121A08AB
:1013E6000800E330831603138500831203139F015D
:1013F6008030831603139F00193083120313A40051
:10140600A40B032A062A080083120313A700A601C9
:10141600271C0E2A0F2A132A2408A5002508A6072A
:101426000310A40D0310A70C2708031D1B2A1C2A52
:101436000B2A2608080083120313A7002708A60014
:1014460002300310A60DFF3E031D242A0310260DAD
:1014560001389F00043083120313A600A60B312A1D
:101466000000831203131F151F193A2A3B2A372A35
:101476001E08A500831603131E0883120313A40077
:10148600080083120313A801A901241C4B2A4C2A25
:10149600522A2608A8070318A90A2708A90701300F
:1014A6000310A60DA70DFF3E031D532A013003109E
:1014B600A50CA40CFF3E031D5A2A24082504031D6F
:1014C600652A662A482A2908A5002808A4000800D3
:1014D60083120313BD003808BA003A08A40039087D
:1014E600BB003B08A5003D080A128A11D7250A123F
:1014F6008A1583120313BC003C08BE00BF013E08D8
:101506008400831300080A128A11F3270A128A1527
:10151600013083120313BA003A08BE070130BA003D
:101526003A08BF0705303F02031C9A2A9B2A822AE3
:101536000800831203134A084C02BF004B08031C21
:101546004B0A4D02C0004A084802A4004B08031C7F
:101556004B0A4902A5004E085002A6004F08031C7C
:101566004F0A5102A7000A128A1544220A128A1546
:10157600831203132508C2002408C1000A128A1523
:101586000E260A128A15831203134E083F07C80057
:101596004F0803184F0A4007C900080083160313B3
:1015A6000713981683120313981718163308B500F5
:1015B6003408B6000030B61BFF30B700B80006305E
:1015C6000310B50DB60DB70DB80DFF3E031DE32A8A
:1015D6003808A7003708A6003608A5003508A40075
:1015E6000130AB00E830AA004830A9000030A8005E
:1015F6000A128A1156270A128A158312031324081F
:10160600FF3E8316031399008B170B178C160800E1
:1016160083120313A80028082407A6002608033E01
:1016260084007F3083130005A70029082706803928
:101636002706A90029087F39A600A7012608AA00BF
:101646002708AB002B08A7002A08A6000730FF00D2
:101656000310A60DA70DFF0B2B2B80302605AA0025
:1016660000302705AB0028082407A6002608023EFE
:1016760084007F300005A700290827068039270641
:10168600A90029087F39A6002A082604AA002B08E3
:10169600AB002B08A5002A08A4000800003083121E
:1016A6000313B0000030AF000030AE000030AD00D4
:1016B600241C5E2B5F2B762B2808AD072908031107
:1016C6000318013E0319682BAE072A0803110318F5
:1016D600013E03196F2BAF072B0803110318013EB8
:1016E6000319762BB0070130AC000310A80DA90D25
:1016F600AA0DAB0DAC0B782B01300310A70CA60C72
:10170600A50CA40CFF3E031D802B270826042504E8
:101716002404031D8F2B902B5B2B3008A7002F086A
:10172600A6002E08A5002D08A400080001307102AD
:10173600F43003197002031CA12BA22BB22B7508DF
:101746007207F6007608840083130008013EF7004E
:1017560075087207F800780884007708800005305D
:101766007102DC3003197002031CBA2BBB2BCB2B86
:1017760075087307F6007608840083130008013E97
:10178600F70075087307F80078088400770880006A
:101796000B307102B83003197002031CD32BD42B03
:1017A600E42B75087407F600760884008313000896
:1017B600013EF70075087407F8007808840077087A
:1017C6008000080083120313A700272C8710071137
:1017D6000714372C071007118714372C07108710AA
:1017E6000715372C2408A500A6012608003A031978
:1017F600FD2B372C2508003A0319E92B013A03196A
:10180600ED2B033A0319F12B372C86100613861796
:10181600372C861306138614372C86138610061764
:10182600372C2408A500A6012608003A03191C2C0B
:10183600372C2508003A0319082C013A03190C2CF9
:10184600033A0319102C372C2708A500A6012608F1
:10185600003A03192F2C372C2508003A0319F52BCB
:10186600013A0319142C372C080083120313AA001B
:101876007C2C240C031C051103180515250C031CD0
:10188600851103188515260C031C05120318051669
:10189600240C031C061003180614250C031C061042
:1018A60003180614260C031C061003180614270832
:1018B60088008C2C240C031C851203188516250C15
:1018C600031C061003180614260C031C0610031826
:1018D6000614240C031C061003180614250C031CFE
:1018E600061003180614260C031C0610031806140B
:1018F6008C2C2A08A800A9012908003A0319842C6F
:101906008C2C2808003A03193C2C013A03195D2C4B
:101916008C2C080083120313BE01BB1F932C942C3E
:101926009B2CBA09BB09BA0A0319BB0ABE01BE0A37
:10193600B91F9E2C9F2CA42CB809B909B80A031903
:10194600B90A380839040319A92CAA2CD92CBD01C7
:10195600BD0AB82C01300310B80DB90DFF3E031DAA
:10196600AE2C0130BC003C08BD07B91FBB2CBC2CFB
:10197600AD2C39083B02031DC22C38083A02031C61
:10198600C52CC62CCC2C3808BA023908031CBB035C
:10199600BB0201300310B90CB80CFF3E031DCD2C61
:1019A6000130BD02031DD82CD92CBC2C3E080319CE
:1019B600DD2CDE2CE32CBA09BB09BA0A0319BB0AD3
:1019C6003B08B9003A08B800080083120313B300B5
:1019D600B50103303502031CF12CF22CF32C472DF4
:1019E6000530AD002D08A40035080A128A15072215
:1019F6000A128A1583120313AE002E08B4003408A7
:101A06003307AD002D08840083130008AE000310D1
:101A16002E0C0F39AF002F08B10034083307AD0084
:101A26002D0884000008AE0005300310AE0CFF3E02
:101A3600031D182D2E080339FF3EAF002F08B200F4
:101A46003308AD002D08A40034080A128A150B23AA
:101A56000A128A158312031331082C07AE002E08CA
:101A660084003208AF002F0783130007B000300848
:101A7600063E840024088000840A25088000013080
:101A8600AD002D08B507EC2C08008C1E4B2D4C2DF7
:101A9600572D60184F2D502D572D60146110E110F1
:101AA600DB0183160313AD0183128C1E5B2D5C2DA7
:101AB600752D601C5F2D602D752D0A128A15EB2180
:101AC6000A128A1583120313A0005B08AE3E840037
:101AD6002008831380000130A0002008DB0783164E
:101AE6000313AD010B1D782D792D832D0B110A12D1
:101AF6008A15A9250A128A15063083120313810056
:101B060083120C1C872D882DA02D0C100130A000EF
:101B16002008DC0714305C02031C922D932D9B2DAC
:101B26005F14DC010130A000200883160313AD0703
:101B36003C3083128F00B0308E0023088A002208C2
:101B46008400210E8300FE0E7E0E090000308312F3
:101B560003138619013083160313A0000030831285
:101B66000313061A013083160313A10000308312F3
:101B76000313861A013083160313A2000030831262
:101B86000313851A013083160313A300FD017D0894
:101B9600A03E840083130008031DD22DD32DDC2D17
:101BA600013083160313A8070318A90A0030A907F2
:101BB600032E7D08A03E840000080319E32DE42DC2
:101BC600032E831603132908F1002808F000E130DC
:101BD600F9007908F200DD30FA007A08F300D9300E
:101BE600FB007B08F4007D08FC007C08F5000A1267
:101BF6008A1599230A128A1583160313A801A901C7
:101C06000130F9007908FD0704307D02031C0C2E13
:101C16000D2ECA2D080083120313C501C01F142EF2
:101C2600152E1C2EBF09C009BF0A0319C00AC5011B
:101C3600C50AC21F1F2E202E292EC109C209C10A9C
:101C46000319C20A0130C3004308C506C601C7010D
:101C56003F0840040319302E312E682EC401C40AF1
:101C66003F2E01300310BF0DC00DFF3E031D352E64
:101C76000130C3004308C407C01F422E432E342E32
:101C860001300310C60DC70DFF3E031D442E40084C
:101C96004202031D502E3F084102031C532E542EB0
:101CA6005B2E3F08C1024008031CC203C202461451
:101CB60001300310C00CBF0CFF3E031D5C2E01302B
:101CC600C402031D672E682E432E450803196C2E89
:101CD6006D2E722EC609C709C60A0319C70A470818
:101CE600C0004608BF00080083120313AE00B0010F
:101CF600AF0130082E07A400240884002F08A50091
:101D0600250783130007A6002608063E8400000860
:101D1600A700840A0008A80030082E07A900290891
:101D260084002F08AA002A070007AB002B088400AE
:101D36000008AC00840A0008AD0028082D06031D23
:101D4600A62E27082C060319A92EAA2ECD2E30085A
:101D56002E07A400240884002F08A50025070007E5
:101D6600A6002608063E84000008A700840A00088C
:101D7600A80030082E07A900290884002F08AA0009
:101D86002A070007AB002B08840027088000840A76
:101D9600280880000130A4002408AF0703302F0272
:101DA600031CD62ED72E7C2E0130A4002408B007A3
:101DB60002303002031CE02EE12E7B2E0800831633
:101DC60003136E0883120313A700831603136D080B
:101DD60083120313A600831603136C0883120313DE
:101DE600A500831603136B0883120313A400413066
:101DF600AB00C630AA004E30A9006D30A8000A120A
:101E06008A1551230A128A1583120313270883168B
:101E16000313EE0083120313260883160313ED0043
:101E260083120313250883160313EC00831203138E
:101E3600240883160313EB003930EB073030031800
:101E46003130EC07003003180130ED07003003187D
:101E56000130EE076B0883120313B30083160313D6
:101E66006C0883120313B400831603136D088312E0
:101E76000313B500831603136E0883120313B6000B
:101E86001030B700360DB60CB50CB40CB30CB70B4E
:101E9600452FFF303305B1007F303405B20008000E
:101EA60083120313C101CA2F4108623E84008313C3
:101EB6000008840000080319612F622FDD2FA4019A
:101EC600A40AA501A6014108623E84000008840018
:101ED6000008013E84000A128A1500200A128A159B
:101EE600BF003F08A70041080A128A1538240A12C3
:101EF6008A15DD2F4108623E84008313000A8400A0
:101F06000008031D872F882F922F4108623E840008
:101F16000008840000080319912F922FDD2FA401D9
:101F2600A501A50AA6014108623E8400000A8400B4
:101F36000008013E84000A128A1500200A128A153A
:101F4600BF003F08A70041080A128A1538240A1262
:101F56008A15DD2FA401A501A601A60A4108623E45
:101F6600840083130008023E84000008013E8400BA
:101F76000A128A1500200A128A15BF003F08A70018
:101F860041080A128A1538240A128A15DD2F5D08BF
:101F9600BF00C0014008003A0319D22FDD2F3F08C9
:101FA600003A0319572F013A03197D2F033A0319F3
:101FB600AD2FDD2F013083120313BF003F08C10789
:101FC60002304102031CE82FE92FCA2F0330B80064
:101FD6000030B9005D08013EBA0000300318013038
:101FE600BB000A128A158D240A128A15831203135E
:0A1FF6003808BF003F08DD000800B6
:02400E00F23F7F
:00000001FF
