:020000040000FA
:060000000A128A1110280B
:10000800FE00030E83120313A1000408A2000A08CD
:10001800A3000A128A15CB2A0A128A1113288313FD
:100028006830FD000830FE001530FF005C308400A9
:100038000A128A1538200A128A1183179030840010
:100048009E300A168A11EF270A128A118313A030EC
:100058008400ED300A168A11EF270A128A114830F7
:1000680084005C300A168A11EF270A128A1183016C
:100078000A128A113F28383083160313860080300D
:100088008700880101308900E0308B00043081004E
:100098000630831203138100313090003C308F000A
:1000A800B0308E000A128A1521200A128A11803077
:1000B80083120313B3002530B4000A128A11BB2738
:1000C8000A128A11063083120313A4000030A50017
:1000D8000430A6000030A7000230A8000030A900B4
:1000E8006030831603179E001E0883120313AA00AC
:1000F8000A128A1152250A128A1183120313071051
:1001080086138711061387108610531C8C288D2898
:10011800982B832B8312031354145310C7010A120C
:100128008A159D210A128A11831203133108831636
:1001380003179E001E0883120313C200420A031904
:10014800A628A728002A4208831603179E008312B0
:1001580003134708553E8400831603171E088313AC
:100168008000831203134208831603179E0083122C
:1001780003134708E93E8400831603171E0880000E
:10018800831203134208831603179E008312031376
:100198004708E53E8400831603171E088000002ADE
:1001A80083120313B801B80A4708553E8400831325
:1001B8000008831603179E001E0883120313B90054
:1001C80003300A128A15F1200A128A1102308316A6
:1001D80003179E001E0883120313B8004708E93E60
:1001E800840083130008831603179F001F088312D7
:1001F8000313B90003300A128A15F1200A128A1172
:100208000330831603179E001E0883120313B800D9
:100218004708E53E840083130008831603179F00F0
:100228001F0883120313B90003300A128A15F1203C
:100238000A128A111A2A83120313B801B80A470846
:10024800553E840083130008831603179E001E087A
:1002580083120313B90005300A128A15F1200A1215
:100268008A110230831603179E001E088312031397
:10027800B8004708E93E8400831300088316031773
:100288009F001F0883120313B90005300A128A154C
:10029800F1200A128A110330831603179E001E08E4
:1002A80083120313B8004708E53E8400831300084F
:1002B800831603179F001F0883120313B900053024
:1002C8000A128A15F1200A128A111A2A83120313B4
:1002D800B801B80A4708553E8400831300088316FE
:1002E80003179E001E0883120313B90007300A1271
:1002F8008A15F1200A128A110230831603179E000C
:100308001E0883120313B8004708E93E84008313CC
:100318000008831603179F001F0883120313B900F0
:1003280007300A128A15F1200A128A11033083163F
:1003380003179E001E0883120313B8004708E53E02
:10034800840083130008831603179F001F08831275
:100358000313B90007300A128A15F1200A128A110C
:100368001A2A83120313B801B80A4708553E8400B5
:1003780083130008831603179E001E0883120313B5
:10038800B90009300A128A15F1200A128A110230BE
:10039800831603179E001E0883120313B80047082C
:1003A800E93E840083130008831603179F001F0883
:1003B80083120313B90009300A128A15F1200A12B0
:1003C8008A110330831603179E001E088312031335
:1003D800B8004708E53E8400831300088316031716
:1003E8009F001F0883120313B90009300A128A15E7
:1003F800F1200A128A111A2A831203134708831656
:1004080003179E009F011F08003A03190C2A1A2A95
:100418001E08003A0319D428013A03191F29033A80
:1004280003196A29013A0319B5291A2A01308316D2
:1004380003179E001E0883120313C70704304702E0
:10044800031C272A282A9328C301C40183120313F3
:100458004308553E8400831380014308E93E840025
:1004680080014308E53E840080010130C30703187A
:10047800C40A0030C4074408803AFF0080307F0275
:10048800031D482A04304302031C4B2A4C2A2A2AFB
:1004980083120313C0014008AC3E8400831380011B
:1004A8000130831603179E001E0883120313C0072A
:1004B80005304002031C612A622A4F2A982B8312B6
:1004C80003135414531000300A128A1573200A12A9
:1004D8008A11831203132408831603179E008312BC
:1004E80003132508831603179F001F0D9F0C9E0CEE
:1004F8001F0D9F0C9E0C1E0883120313B400831655
:1005080003171F0883120313B5000030B600B700A5
:10051800FF30B8000030B900EC30BA00FF30BB0043
:100528003C30BC000030BD000A128A1522210A1294
:100538008A1183120313340883160317A0002008B6
:1005480083120313CC0001300A128A1573200A1291
:100558008A11831203132408831603179E0083123B
:1005680003132508831603179F001F0D9F0C9E0C6D
:100578001F0D9F0C9E0C1E0883120313B4008316D4
:1005880003171F0883120313B5000030B600B70025
:10059800FF30B8000030B9000030BA00BB0064304A
:1005A800BC000030BD000A128A1522210A128A11E5
:1005B80083120313340883160317A000200883123C
:1005C8000313CB0005300A128A1573200A128A1108
:1005D800831203132408831603179E008312031340
:1005E8002508831603179F001F0D9F0C9E0C1F0DD7
:1005F8009F0C9E0C1E0883120313B4008316031766
:100608001F0883120313B5000030B600B700FF308F
:10061800B8000030B9000030BA00BB006430BC003C
:100628000030BD000A128A1522210A128A1183128B
:100638000313340883160317A0002008831203133A
:10064800CA00B8014C08831603179E001E088312BF
:100658000313B90002300A128A15F1200A128A110E
:1006680083120313B8014B08831603179E001E0854
:1006780083120313B90004300A128A15F1200A12F2
:100688008A1183120313B8014A08831603179E00C0
:100698001E0883120313B90006300A128A15F120C6
:1006A8000A128A1183120313C10105304102031C87
:1006B8005E2B5F2B602B982B4108AC3E8400831384
:1006C80080010130831603179E001E08831203134E
:1006D800C107592B0430831203134D02031C752BD9
:1006E800762B792B5414D41453100F304E02031C5C
:1006F8007E2B7F2B982B5414D4105310982B8316D1
:1007080003132C087F39831603179E009F011F08C7
:10071800003A0319902B6E2B1E08083A03198E28ED
:10072800023A0319632A6E2B541C9B2B9C2BBA2B61
:100738005310CE015410CD01D41CA32BA42BA62BEF
:10074800D410BA2BAC300A128A1537270A128A112C
:100758006030831603179E001E0883120313AC0033
:10076800AC300A128A154C240A128A118312031318
:10077800521CBF2BC02B392D511CC32BC42B392D18
:10078800C601D62C4608831603179E001E07603E36
:100798008400831300089F00840A0008A0001F0833
:1007A80084008317201C83130008A100840A000812
:1007B800A200210822040319E22BE32BCE2C83127A
:1007C80003134608831603179E001E07A03E8400E5
:1007D800013083138007840A0318800A83120313E5
:1007E8004608831603179E001E07603E8400000813
:1007F8009F00840A0008A0001F080C3EA1002008E2
:100808000318013E003EA200210884008317221C21
:1008180083130008A300230883120313C5004608A6
:10082800831603179E001E07A03E8400831300084A
:100838009F00840A0008A000831203134608831649
:100848000317A1002107603E84000008A200840A63
:100858000008A30083120313450883160317A40096
:1008680024072207A50023080318013EA60025082F
:1008780084008317261C83130008A700840A000835
:10088800A8001F082702A9002008031C200A280224
:10089800AA00AA1F502C512C782C01309E001E084B
:1008A80083120313C5074608831603179E001E0705
:1008B800A03E8400013083138000840A0030800049
:1008C8000330831203134502031C6B2C6C2C782C09
:1008D800C5014608031D712C722C782C60300A1251
:1008E8008A11A1260A128A11831203134608831655
:1008F80003179E001E07603E8400831300089F00B4
:10090800840A0008A0001F080C3EA1002008031854
:10091800013E003EA200210884008317221C831395
:10092800000883120313450603199B2C9C2CCE2C1C
:100938004508831603179E001E0883120313A4009C
:1009480046080A128A1578220A128A11831203139A
:100958004508831603179E0083120313460883165F
:1009680003179F001F07603E840083130008A00040
:10097800840A0008A10020080C3EA20021080318E0
:10098800013E003EA300220884008317231C831322
:100998001E0880000130831603179E001E0883126C
:1009A8000313C60702304602031CDB2CDC2CC62BC3
:1009B8005A30831603179E001E0883120313B400CF
:1009C8005B30831603179F001F0883120313B500BB
:1009D80060080C3E83160317A000831203136108F6
:1009E8000318013E003E83160317A1002008840067
:1009F8008317211C83130008A20022078312031304
:100A0800600783160317A3008312031361080318F2
:100A1800013E83160317A400230884008317241CAF
:100A280083130008A500840A0008A6008316031390
:100A3800200883160317250283120313B6008316B2
:100A480003132108031C210A8316031726028312A5
:100A58000313B70059300A128A1536250A128A116B
:100A68000A128A15BA240A128A1183120313521C15
:100A78003E2D3F2D452D511C422D432D452D521005
:100A88005110521C482D492D892851184C2D4D2D97
:100A98008928511489280A128A11102883120313ED
:100AA800B201B3011D2E3208AB002B072A07AC0098
:100AB8002C08840083130008AD00840A0008AE00E7
:100AC8003308AF002F072D07B0002E080318013E8A
:100AD800B100300884008317311C83132408800078
:100AE800840A250880003208AB002B072A07AC00CF
:100AF8002C08840083130008AD00840A0008AE00A7
:100B08003308AF002F07063E2D07B0002E08031844
:100B1800013EB100300884008317311C8313240878
:100B28008000840A25088000302E3208AB002B078D
:100B38002A07AC002C08840083130008AD00840A3F
:100B48000008AE003308AF002F072D07B0002E08AD
:100B58000318013EB100300884008317311C831349
:100B680026088000840A270880003208AB002B077B
:100B78002A07AC002C08840083130008AD00840AFF
:100B88000008AE003308AF002F07063E2D07B0005F
:100B98002E080318013EB100300884008317311C69
:100BA800831326088000840A27088000302E320824
:100BB800AB002B072A07AC002C088400831300081D
:100BC800AD00840A0008AE003308AF002F072D07D8
:100BD800B0002E080318013EB100300884008317C6
:100BE800311C831328088000840A290880003208F1
:100BF800AB002B072A07AC002C08840083130008DD
:100C0800AD00840A0008AE003308AF002F07063E87
:100C18002D07B0002E080318013EB10030088400EB
:100C28008317311C831328088000840A2908800050
:100C3800302E3308AB00AC012C08003A0319252EDE
:100C4800302E2B08003A0319572D013A0319992D14
:100C5800033A0319DB2D302E0130AB002B08B30704
:100C680003303302031C392E3A2E1D2E0130AB00FF
:100C78002B08B20702303202031C432E442E552D96
:100C88002A08840083130008AB00840A0008AC001B
:100C98002B080C3EAD002C080318013E003EAE00A8
:100CA8002D08840083172E1C831380012A088400D2
:100CB80083130008AB00840A0008AC002B080D3E23
:100CC800AD002C080318013E003EAE002D0884003C
:100CD80083172E1C831380012A08023E8400831385
:100CE8000008AB00840A0008AC002B080C3EAD00DD
:100CF8002C080318013E003EAE002D08840083171F
:100D08002E1C83138001800A2A08023E8400831364
:100D18000008AB00840A0008AC002B080D3EAD00AB
:100D28002C080318013E003EAE002D0884008317EE
:100D38002E1C83138001800A080083120313B70056
:100D4800B801B6013808A40024073707A50025080C
:100D5800840083130008A600840A0008A700360848
:100D6800A8002807063E2607A90027080318013E01
:100D7800AA002908840083172A1C83130008AB00E3
:100D8800840A0008AC003808AD002D073707AE000C
:100D98002E08840083130008AF00840A0008B000FE
:100DA8003608B10031072F07B20030080318013E9A
:100DB800B300320884008317331C83130008B4007F
:100DC800840A0008B5002C083506031DED2E2B08F3
:100DD80034060319F02EF12E322F3808A400240708
:100DE8003707A5002508840083130008A600840A95
:100DF8000008A7003608A8002807063E2607A9000D
:100E080027080318013EAA002908840083172A1C12
:100E180083130008AB00840A0008AC003808AD0052
:100E28002D073707AE002E08840083130008AF0093
:100E3800840A0008B0003608B10031072F07B20055
:100E480030080318013EB300320884008317331CAE
:100E580083132B088000840A2C0880000130A4002A
:100E68002408B60703303602031C3B2F3C2FA62E5E
:100E78003808A40024073707A50025088400831331
:100E88000008A600840A0008A70026080D3EA8004E
:100E980027080318013E003EA9002808840083178C
:100EA800291C83130008AA003808AB002B07370752
:100EB800AC002C08840083130008AD00840A0008E5
:100EC800AE002D080C3EAF002E080318013E003E70
:100ED800B0002F0884008317301C831300082A06EB
:100EE8000319772F782FB02F3808A4002407370765
:100EF800A5002508840083130008A600840A0008BA
:100F0800A70026080D3EA80027080318013E003E4A
:100F1800A900280884008317291C83130008AA0045
:100F28003808AB002B073707AC002C088400831364
:100F38000008AD00840A0008AE002D080C3EAF0082
:100F48002E080318013E003EB0002F0884008317C6
:100F5800301C83132A0880000130A4002408B80735
:100F680002303802031CB92FBA2FA52E08008316A9
:100F780003130713981683120313981718163308C8
:100F8800B5003408B6000030B61BFF30B700B80013
:100F980006300310B50DB60DB70DB80DFF3E031D95
:100FA800CD2F3808A7003708A6003608A500350851
:100FB800A4000130AB00E830AA004830A900003096
:100FC800A8000A128A15D2250A128A11831203135D
:100FD8002408FF3E8316031399008B170B178C16F2
:100FE800080083120313A4000C1EFB2FFC2FF82FFC
:100FF8000C1224089900080008308A000408840AA2
:10100800820700343F3406345B344F3466346D3421
:0C1018007D3407347F346F340034023420
:10102A000134003400340034D7340034C934003475
:10103A00BB34003490340134E33083160313850043
:10104A00831203139F018030831603139F00193004
:10105A0083120313A400A40B3028332808007E0847
:10106A008A007F0882000A128A1534200A128A1519
:10107A008000840A04087D0603190034FF0A031954
:10108A00FE0A382883120313A700270C031C051134
:10109A0003180515240C031C851103188515250C46
:1010AA00031C051203180516260888000800831277
:1010BA000313A700A601271C6328642868282408AC
:1010CA00A5002508A6070310A40D0310A70C2708DE
:1010DA00031D70287128602826080800831203134C
:1010EA00A7002708A60002300310A60DFF3E031D25
:1010FA0079280310260D01389F0004308312031348
:10110A00A600A60B86280000831203131F151F19B9
:10111A008F2890288C281E08A500831603131E0802
:10112A0083120313A400080083120313A801A90160
:10113A00241CA028A128A7282608A8070318A90A5A
:10114A002708A90701300310A60DA70DFF3E031DAE
:10115A00A82801300310A50CA40CFF3E031DAF28DC
:10116A0024082504031DBA28BB289D282908A500A0
:10117A002808A400080083120313A7000130A50061
:10118A00240AC9280310A50DFF3E031DC7282508F8
:10119A0027050319D128D228E1280130A500240AFD
:1011AA00D8280310A50DFF3E031DD6282508A60042
:1011BA002608A7042708F0280130A500240AE728F2
:1011CA000310A50DFF3E031DE5282508FF3AA600DA
:1011DA002608A7052708080083120313BD0038084C
:1011EA00BA003A08A4003908BB003B08A5003D082C
:1011FA000A128A156F260A128A1583120313BC0073
:10120A003C08BE00BF013E088400831300080A128E
:10121A008A11F5270A128A15013083120313BA00BC
:10122A003A08BE070130BA003A08BF0705303F0244
:10123A00031C2029212908290800831203133608D0
:10124A003802AB003708031C370A3902AC003608EB
:10125A003402A4003708031C370A3502A5003A08ED
:10126A003C02A6003B08031C3B0A3D02A7000A12E7
:10127A008A1599200A128A15831203132508AE00CB
:10128A002408AD000A128A15E3230A128A1583126A
:10129A0003133A082B07B4003B0803183B0A2C0730
:1012AA00B500080083120313A80028082407A60023
:1012BA002608033E84007F3083130005A70029080F
:1012CA00270680392706A90029087F39A600A70121
:1012DA002608AA002708AB002B08A7002A08A600A0
:1012EA000730FF000310A60DA70DFF0B77298030EA
:1012FA002605AA0000302705AB0028082407A60007
:10130A002608023E84007F300005A7002908270628
:10131A0080392706A90029087F39A6002A08260449
:10132A00AA002B08AB002B08A5002A08A400080075
:10133A00831203135F08A7005E08A6005D08A500D4
:10134A005C08A4004130AB00C630AA004E30A900A8
:10135A006D30A8000A128A15E4210A128A1583122E
:10136A0003132708DF002608DE002508DD0024080D
:10137A00DC003930DC07303003183130DD0700304B
:10138A0003180130DE07003003180130DF075C085C
:10139A00B3005D08B4005E08B5005F08B6001030FF
:1013AA00B700360DB60CB50CB40CB30CB70BD62976
:1013BA00FF303305B1007F303405B2000800003039
:1013CA0083120313B0000030AF000030AE000030CB
:1013DA00AD00241CF129F229092A2808AD07290899
:1013EA0003110318013E0319FB29AE072A0803114A
:1013FA000318013E0319022AAF072B080311031829
:10140A00013E0319092AB0070130AC000310A80DE8
:10141A00A90DAA0DAB0DAC0B0B2A01300310A70CBA
:10142A00A60CA50CA40CFF3E031D132A27082604AC
:10143A0025042404031D222A232AEE293008A700A2
:10144A002F08A6002E08A5002D08A40008000130C8
:10145A007102F43003197002031C342A352A452A12
:10146A0075087207F6007608840083130008013EA7
:10147A00F70075087207F80078088400770880007A
:10148A0005307102DC3003197002031C4D2A4E2A02
:10149A005E2A75087307F60076088400831300082D
:1014AA00013EF70075087307F8007808840077088A
:1014BA0080000B307102B83003197002031C662ACF
:1014CA00672A772A75087407F6007608840083135A
:1014DA000008013EF70075087407F80078088400D0
:1014EA0077088000080083120313A700BA2A87101E
:1014FA0087110714CA2A071087118714CA2A0710E6
:10150A0087108715CA2A2408A500A6012608003ACA
:10151A000319902ACA2A2508003A03197C2A013A93
:10152A000319802A033A0319842ACA2A8610061341
:10153A008617CA2A861306138614CA2A86138610A1
:10154A000617CA2A2408A500A6012608003A031984
:10155A00AF2ACA2A2508003A03199B2A013A031915
:10156A009F2A033A0319A32ACA2A2708A500A60113
:10157A002608003A0319C22ACA2A2508003A03197A
:10158A00882A013A0319A72ACA2A08008C1ECE2AD9
:10159A00CF2AD82A5318D22AD32AD82A5314541015
:1015AA00D410CE01CD018C1EDB2ADC2AF32A531C6F
:1015BA00DF2AE02AF32A0A168A11F7270A128A155D
:1015CA0083120313A0004E08AC3E84002008831344
:1015DA0080000130A0002008CE07CD010B1DF62A9D
:1015EA00F72A012B0B110A128A157E230A128A1571
:1015FA0006308312031381000C1C042B052B1A2BB3
:10160A000C100130A0002008CF0714304F02031C31
:10161A000F2B102B162B5214CF010130A0002008DB
:10162A00CD073C308F00B0308E0023088A00220894
:10163A008400210E8300FE0E7E0E0900831203131E
:10164A00AA01A71F292B2A2B312BA609A709A60A0B
:10165A000319A70AAA01AA0AA51F342B352B3A2B6C
:10166A00A409A509A40A0319A50A2408250403192B
:10167A003F2B402B6F2BA901A90A4E2B01300310D7
:10168A00A40DA50DFF3E031D442B0130A800280818
:10169A00A907A51F512B522B432B25082702031DEF
:1016AA00582B24082602031C5B2B5C2B622B240874
:1016BA00A6022508031CA703A70201300310A50CE4
:1016CA00A40CFF3E031D632B0130A902031D6E2BE0
:1016DA006F2B522B2A080319732B742B792BA6090B
:1016EA00A709A60A0319A70A2708A5002608A4001D
:1016FA00080000308312031386190130831603137E
:10170A00A800003083120313061A0130831603134C
:10171A00A900003083120313861A013083160313BB
:10172A00AA00003083120313851A013083160313AB
:10173A00AB00FD017D08A83E840083130008031D49
:10174A00A72BA82BB12B013083120313C807031848
:10175A00C90A0030C907D82B7D08A83E84000008B2
:10176A000319B82BB92BD82B831203134908F1009C
:10177A004808F0005530F9007908F200E930FA001B
:10178A007A08F300E530FB007B08F4007D08FC00D2
:10179A007C08F5000A128A152C220A128A1583126D
:1017AA000313C801C9010130F9007908FD070430A3
:1017BA007D02031CE12BE22B9F2B080083120313EB
:1017CA00B101AC1FE92BEA2BF12BAB09AC09AB0A2F
:1017DA000319AC0AB101B10AAE1FF42BF52BFE2B8B
:1017EA00AD09AE09AD0A0319AE0A0130AF002F08E0
:1017FA00B106B201B3012B082C040319052C062CDF
:10180A003D2CB001B00A142C01300310AB0DAC0D05
:10181A00FF3E031D0A2C0130AF002F08B007AC1F92
:10182A00172C182C092C01300310B20DB30DFF3EF2
:10183A00031D192C2C082E02031D252C2B082D0202
:10184A00031C282C292C302C2B08AD022C08031C35
:10185A00AE03AE02321401300310AC0CAB0CFF3EE7
:10186A00031D312C0130B002031D3C2C3D2C182CD9
:10187A0031080319412C422C472CB209B309B20A88
:10188A000319B30A3308AC003208AB00080083120C
:10189A000313B700B90103303902031C552C562C27
:1018AA00572CB92C0530AD002D08A40039080A12AE
:1018BA008A155C200A128A1583120313AE002E08B9
:1018CA00B80038083707AD002D08840083130008D4
:1018DA00AE0003102E0C0F39AF002F08B5003808E0
:1018EA003707AD002D0884000008AE00053003104C
:1018FA00AE0CFF3E031D7C2C2E080339FF3EAF00C1
:10190A002F08B6003708AD002D08A40038080A12BF
:10191A008A1557210A128A15831203133508AE0055
:10192A002E072C07AF002F08840083130008B0008D
:10193A00840A0008B1003608B2003207063E3007B2
:10194A00B30031080318013EB4003308840083173A
:10195A00341C831324088000840A2508800001307F
:10196A00AD002D08B907502C0800082D5908031995
:10197A00BF2CC02C1D2DA401A5015908013E8400CD
:10198A000A128A1500200A128A15AB002B08A60033
:10199A0001300A128A1547200A128A151D2D5A0883
:1019AA00031DD82CD92CDE2C59080319DD2CDE2C6A
:1019BA001D2DA401A40AA5015A08013E84000A1299
:1019CA008A1500200A128A15AB002B08A6000030DF
:1019DA000A128A1547200A128A151D2DA401A5018B
:1019EA00A50A5B08013E84000A128A1500200A1221
:1019FA008A15AB002B08A60000300A128A15472068
:101A0A000A128A151D2D831203135008AB00AC016C
:101A1A002C08003A0319122D1D2D2B08003A031920
:101A2A00BB2C013A0319D42C033A0319F32C1D2DAC
:101A3A00033083120313A4000030A5005008013EAE
:101A4A00A600003003180130A7000A128A152323C2
:101A5A000A128A15831203132408AB002B08D0003C
:101A6A00080083120313BB004F2D0A30831203139D
:101A7A00AB000030AC003708AE003608AD000A12E1
:101A8A008A15E3230A128A15831203132C08B70056
:101A9A002B08B600E830AB000330AC003708AE00C4
:101AAA003608AD000A128A15E3230A128A15831230
:101ABA0003132C08803AFF0080307F02031D672D34
:101ACA0001302B0203186A2D6B2D3A2D64308312D4
:101ADA000313AB000030AC003708AE003608AD0087
:101AEA000A128A15E3230A128A15831203132B0892
:101AFA00B8003B0884003808831380000A30AB0022
:101B0A000030AC003708A7003608A6006430A400ED
:101B1A000030A5000A128A1523230A128A15831295
:101B2A0003132508AE002408AD000A128A15E32320
:101B3A000A128A15831203132B08B800340884008A
:101B4A003808831380003708A7003608A6006430D7
:101B5A00A4000030A5000A128A1523230A128A1546
:101B6A00831203132508BA002408B9000A30A40016
:101B7A000030A5003A08A7003908A6000A128A15FB
:101B8A0023230A128A15831203132408B80035087E
:101B9A008400380883138000080083120313AE01FF
:101BAA00A71FD82DD92DE62DA409A509A609A7098D
:101BBA00A40A0319A50A0319A60A0319A70AAE015A
:101BCA00AE0AAB1FE92DEA2DF92DA809A909AA0920
:101BDA00AB09A80A0319A90A0319AA0A0319AB0A25
:101BEA000130AC002C08AE060030B2000030B10063
:101BFA000030B0000030AF00270826042504240472
:101C0A000319082E092E562EAD01AD0A192E0130E0
:101C1A00AC000310A40DA50DA60DA70DAC0B0E2E3E
:101C2A000130AC002C08AD07A71F1C2E1D2E0C2E50
:101C3A000130AC000310AF0DB00DB10DB20DAC0BFD
:101C4A001F2E27082B02031D342E26082A02031DE5
:101C5A00342E25082902031D342E24082802031CC9
:101C6A00372E382E472E2408A8022508031C250FD4
:101C7A00A9022608031C260FAA022708031C270FFD
:101C8A00AB022F1401300310A70CA60CA50CA40C50
:101C9A00FF3E031D482E0130AD02031D552E562E60
:101CAA001D2E2E0803195A2E5B2E662EAF09B00977
:101CBA00B109B209AF0A0319B00A0319B10A031923
:101CCA00B20A3208A7003108A6003008A5002F087A
:101CDA00A400080083120313A80028087F39A6006D
:101CEA002608A90024087F39A6002608AA00250884
:101CFA007F39A6002608AB002508A6000730031086
:101D0A00A60CFF3E031D842E26087F39A70027084C
:101D1A00AC00AE01AF01B401B50183120313B001E7
:101D2A00B101831203133408293E84008313000887
:101D3A00A600300AA22E0310A60CFF3E031DA02EF9
:101D4A0026080139A7002708AE070130B007031893
:101D5A00B10A0030B1073108803AFF0080307F02B3
:101D6A00031DB92E08303002031CBC2EBD2E962E40
:101D7A00831203132E1CC22EC32ECB2E8030A60034
:101D8A003408293E8400260883138007AE010130F7
:101D9A00B4070318B50A0030B5073508803AFF00C2
:101DAA0080307F02031DDB2E04303402031CDE2E3A
:101DBA00DF2E922E83120313B601B7018312031387
:101DCA00B201B301831203133208293E840083133C
:101DDA000008A600360AF32E0310A60CFF3E031DC8
:101DEA00F12E26080139A7002708AF070130B207EC
:101DFA000318B30A0030B3073308803AFF00803073
:101E0A007F02031D0A2F04303202031C0D2F0E2FEE
:101E1A00E72E831203132F1C132F142F212F0130A7
:101E2A00A600360A1A2F0310A60DFF3E031D182F0F
:101E3A002608A7002708AD07AF010130B607031827
:101E4A00B70A0030B7073708803AFF0080307F02B0
:101E5A00031D312F08303602031C342F352FE32E91
:101E6A002930080083120313B500AF01AC01B00199
:101E7A00AD01AE01B601B70183120313B101B2017C
:101E8A008312031336083507A80028088400831331
:101E9A000008A900310A532F0310A90CFF3E031DA5
:101EAA00512F29080139AA002A08AC070130B107C5
:101EBA000318B20A0030B2073208803AFF008030B5
:101ECA007F02031D6A2F08303102031C6D2F6E2F0B
:101EDA00452F831203132C1C732F742F7A2FAF01F3
:101EEA00AF0A3608A8002808B0000130B607031860
:101EFA00B70A0030B7073708803AFF0080307F0200
:101F0A00031D892F05303602031C8C2F8D2F412F7C
:101F1A0083120313B801B90183120313B301B40185
:101F2A008312031333083507A80028088400831393
:101F3A000008A900380AA32F0310A90CFF3E031DAD
:101F4A00A12F29080139AA002A08AD070130B307D1
:101F5A000318B40A0030B4073408803AFF0080300E
:101F6A007F02031DBA2F04303302031CBD2FBE2F7C
:101F7A00952F831203132D1CC32FC42FCA2FAF0111
:101F8A00AF0A3808A8002808AE000130B8070318BD
:101F9A00B90A0030B9073908803AFF0080307F0259
:101FAA00031DD92F08303802031CDC2FDD2F912F97
:101FBA00831203132F080319E32FE42FFF2F2E0890
:101FCA00A8002808A40030083507A90029088400B9
:101FDA00831300080A128A15C0200A128A1583126E
:101FEA000313AA0030083507AB002B0884002A081F
:061FFA00831380000800C3
:102FDE0064008001840A0406031900340406F02FED
:102FEE00831203138C1EFC2FFD2FF72F8C121A0841
:022FFE000800C9
:02400E00F23F7F
:00000001FF
