:020000040000FA
:060000000A128A1110280B
:10000800FE00030E83120313A1000408A2000A08CD
:10001800A3000A128A15822D0A128A111328831343
:100028006630FD000A30FE007E30FF005E3084003E
:100038000A128A15A6220A128A11A0308400DD301D
:100048000A128A1576220A128A11493084005E3013
:100058000A128A1576220A128A1183010A128A1153
:1000680035283830831603138600803087008801CE
:1000780001308900E0308B000430810006308312A3
:1000880003138100313090003C308F00B0308E0077
:100098000A128A158F220A128A11803083120313DA
:1000A800B3002530B4000A128A157F230A128A1178
:1000B800063083120313A4000030A5000430A60004
:1000C8000030A7000230A8000030A9006430C0004A
:1000D8004008AA000A128A1125260A128A118312D8
:1000E8000313071086130711061387108610581C70
:1000F8007E287F28562B412B59145810831603133A
:10010800E6010A128A15FF230A128A1183120313C1
:100118003108C000400883160313DD000A128A154F
:10012800FF230A128A11831203133108C000400802
:1001380083160313DE000A128A15FF230A128A1196
:10014800831203133108C000400883160313DF002D
:100158005D0A0319B028B128BF285D08831203136C
:10016800C0008316031366085A3E840083120313E3
:10017800400883138000831603135E0A0319C528F9
:10018800C628D4285E0883120313C00083160313FD
:100198006608D33E8400831203134008831380004B
:1001A800831603135F0A0319DA28DB28FE295F0880
:1001B80083120313C000831603136608CF3E84001E
:1001C80083120313400883138000FE29B801B80A7C
:1001D8008316031366085A3E8400831300088312AB
:1001E8000313C0004008B90003300A128A15192306
:1001F8000A128A11023083120313C0004008B800A3
:10020800831603136608D33E840083130008831201
:100218000313C1004108B90003300A128A151923D3
:100228000A128A11033083120313C0004008B80071
:10023800831603136608CF3E8400831300088312D5
:100248000313C1004108B90003300A128A151923A3
:100258000A128A11182AB801B80A83160313660805
:100268005A3E84008313000883120313C000400819
:10027800B90005300A128A1519230A128A110230A8
:1002880083120313C0004008B800831603136608DE
:10029800D33E84008313000883120313C10041086E
:1002A800B90005300A128A1519230A128A11033077
:1002B80083120313C0004008B800831603136608AE
:1002C800CF3E84008313000883120313C100410842
:1002D800B90005300A128A1519230A128A11182A38
:1002E800B801B80A8316031366085A3E84008313BC
:1002F800000883120313C0004008B90007300A122F
:100308008A1519230A128A11023083120313C000B6
:100318004008B800831603136608D33E840083138D
:10032800000883120313C1004108B90007300A12FC
:100338008A1519230A128A11033083120313C00085
:100348004008B800831603136608CF3E8400831361
:10035800000883120313C1004108B90007300A12CC
:100368008A1519230A128A11182AB801B80A83169D
:10037800031366085A3E840083130008831203138C
:10038800C0004008B90009300A128A1519230A1258
:100398008A11023083120313C0004008B800831684
:1003A80003136608D33E84008313000883120313E3
:1003B800C1004108B90009300A128A1519230A1226
:1003C8008A11033083120313C0004008B800831653
:1003D80003136608CF3E84008313000883120313B7
:1003E800C1004108B90009300A128A1519230A12F6
:1003F8008A11182A83160313660883120313C00090
:10040800C1014108003A03190A2A182A4008003A8B
:100418000319EA28013A03192F29033A0319742901
:10042800013A0319B929182A013083120313C000AD
:10043800400883160313E60704306602031C252AC6
:10044800262A8528E201E3018316031362085A3E2F
:100458008400831380016208D33E8400800162080F
:10046800CF3E840080010130E2070318E30A003020
:10047800E3076308803AFF0080307F02031D462AA5
:1004880004306202031C492A4A2A282A83160313C5
:10049800E0016008A43E84008313800101308312C8
:1004A8000313C000400883160313E00705306002F9
:1004B800031C5F2A602A4D2A562B59145810003005
:1004C8000A128A15CC220A128A11831203132408ED
:1004D800C0002508C100410DC10CC00C410DC10C64
:1004E800C00C4008B4004108B5000030B600B700A1
:1004F800FF30B8000030B900EC30BA00FF30BB0064
:100508003C30BC000030BD000A128A154A230A128A
:100518008A11831203133408C2004208D100013043
:100528000A128A15CC220A128A118312031324088C
:10053800C0002508C100410DC10CC00C410DC10C03
:10054800C00C4008B4004108B5000030B600B70040
:10055800FF30B8000030B9000030BA00BB0064308A
:10056800BC000030BD000A128A154A230A128A11FB
:10057800831203133408C2004208D00005300A125F
:100588008A15CC220A128A11831203132408C00088
:100598002508C100410DC10CC00C410DC10CC00C97
:1005A8004008B4004108B5000030B600B700FF307D
:1005B800B8000030B9000030BA00BB006430BC009D
:1005C8000030BD000A128A154A230A128A118312C2
:1005D80003133408C2004208CF00B8015108C00014
:1005E8004008B90002300A128A1519230A128A1122
:1005F80083120313B8015008C0004008B900043042
:100608000A128A1519230A128A1183120313B801D0
:100618004F08C0004008B90006300A128A1519238D
:100628000A128A1183160313E10105306102031CC3
:100638001E2B1F2B202B562B6108A43E84008313EE
:100648008001013083120313C0004008831603138E
:10065800E107192B04305202031C332B342B372BA0
:100668005914D91458100F305302031C3C2B3D2B3E
:10067800562B5914D9105810562B831603132408D7
:100688007F3983120313C000C1014108003A0319DE
:100698004E2B2E2B4008083A03198028023A0319DA
:1006A800612A2E2B8312591C5A2B5B2B6F2B581047
:1006B800D3015910D201D91C622B632B652BD91099
:1006C8006F2B6430C0004008AC00A4300A128A15B1
:1006D80035260A128A1183120313571C742B752BA3
:1006E800722C561C782B792B722C83160313E50178
:1006F80002306502031C812B822B832B722C650828
:10070800643E8400831300088400000883120313E6
:10071800C000840A0008C100400841040319952B51
:10072800962B692C83160313650883120313C000E4
:100738004007493E840001308007840A0318800A74
:10074800831603136508643E840000080C3E840089
:10075800000883120313C000400883160313E40043
:10076800650883120313C0004007493E840000084F
:10077800C100840A0008C200831603136508643E9A
:100788008400640883120313C30043070007C400EE
:10079800440884000008C500840A0008C60041080F
:1007A8004502C7004208031C420A4602C800C81F87
:1007B800DE2BDF2B0F2C0130C000400883160313FB
:1007C800E407650883120313C0004007493E84000C
:1007D80001308000840A0030800003308316031340
:1007E8006402031CF82BF92B0F2CE4016508031D88
:1007F800FE2BFF2B0F2C64300A128A1189270A124C
:100808008A11013083120313C9000030CA00013075
:10081800CB000030CC008316031364088312031343
:10082800C0004008A4008316031365080A128A153D
:10083800DA240A128A118316031364088312031335
:10084800C000831603136508643E84008313000800
:100858000C3E8400831203134008800083160313A0
:10086800650883120313C0004008B40083160313FD
:10087800650883120313C1004107493E840000083C
:10088800C200840A0008C300831603136508643E87
:100898008400640883120313C40044070007C500DA
:1008A800450884000008C600840A0008C7004208FA
:1008B8004602B5004308031C430A4702B6006230EB
:1008C8000A128A1190240A128A1101308312031322
:1008D800C000400883160313E5077C2B0A128A110F
:1008E800DC260A128A1183120313571C7C2C7D2CD8
:1008F800832C561C802C812C832C57105610571C87
:10090800862C872C7B2856188A2C8B2C7B285614EF
:100918007B280A128A11102883120313BC00A92C01
:100928000A3083120313AB000030AC003608AE0067
:100938003508AD000A128A15FA260A128A1183129E
:1009480003132C08B6002B08B500E830AB000330C1
:10095800AC003608AE003508AD000A128A15FA2632
:100968000A128A11831203132C08803AFF00803080
:100978007F02031DC12C01302B020318C42CC52C87
:10098800942C643083120313AB000030AC0036089B
:10099800AE003508AD000A128A15FA260A128A1125
:1009A800831203132B08B7003C0884000330B800F7
:1009B8003808A40034080A128A15B5220A128A11C6
:1009C8008313000783120313B9003908840037081A
:1009D80080000A30AB000030AC003608A7003508AC
:1009E800A6006430A4000030A5000A128A15DA2592
:1009F8000A128A11831203132508AE002408AD00D9
:100A08000A128A15FA260A128A11831203132B086E
:100A1800B7003C0884000330B8003808A400340844
:100A28000A128A15B5220A128A1183130007831243
:100A38000313B900390A8400370880003608A70074
:100A48003508A6006430A4000030A5000A128A15F3
:100A5800DA250A128A11831203132508BB00240819
:100A6800BA000A30A4000030A5003B08A7003A08E5
:100A7800A6000A128A15DA250A128A1183120313AC
:100A88002408B7003C0884000330B8003808A400E4
:100A980034080A128A15B5220A128A11831300072C
:100AA80083120313B9003908023E84003708800016
:100AB800080083120313A80028087F39A600260817
:100AC800A90024087F39A6002608AA0025087F392E
:100AD800A6002608AB002508A60007300310A60CC0
:100AE800FF3E031D722D26087F39A7002708AC009A
:100AF800AE01AF01B401B50183120313B001B10116
:100B0800831203133408293E840083130008A600C7
:100B1800300A902D0310A60CFF3E031D8E2D2608CB
:100B28000139A7002708AE070130B0070318B10A3A
:100B38000030B1073108803AFF0080307F02031D82
:100B4800A72D08303002031CAA2DAB2D842D83124B
:100B580003132E1CB02DB12DB92D8030A6003408FA
:100B6800293E8400260883138007AE010130B407AC
:100B78000318B50A0030B5073508803AFF00803001
:100B88007F02031DC92D04303402031CCC2DCD2D4A
:100B9800802D83120313B601B70183120313B20128
:100BA800B301831203133208293E8400831300081B
:100BB800A600360AE12D0310A60CFF3E031DDF2D0B
:100BC80026080139A7002708AF070130B207031824
:100BD800B30A0030B3073308803AFF0080307F0241
:100BE800031DF82D04303202031CFB2DFC2DD52DDE
:100BF800831203132F1C012E022E0F2E0130A60084
:100C0800360A082E0310A60DFF3E031D062E2608E1
:100C1800A7002708AD07AF010130B6070318B70AC8
:100C28000030B7073708803AFF0080307F02031D85
:100C38001F2E08303602031C222E232ED12D2930D8
:100C4800080083120313AE01AF01992E2E082A075C
:100C5800AB002B0884002F08AC002C078313000777
:100C6800AD002D08840024088000840A250880002F
:100C78002E082A07AB002B0884002F08AC002C078D
:100C88000007AD002D08063E840024088000840A71
:100C980025088000AC2E2E082A07AB002B088400FC
:100CA8002F08AC002C0783130007AD002D08840023
:100CB80026088000840A270880002E082A07AB002F
:100CC8002B0884002F08AC002C070007AD002D0866
:100CD800063E840026088000840A27088000AC2E7F
:100CE8002E082A07AB002B0884002F08AC002C071D
:100CF80083130007AD002D08840028088000840AAB
:100D0800290880002E082A07AB002B0884002F082A
:100D1800AC002C070007AD002D08063E840028080B
:100D28008000840A29088000AC2E2F08AB00AC0193
:100D38002C08003A0319A12EAC2E2B08003A0319EF
:100D48002A2E013A03194F2E033A0319742EAC2E9A
:100D58000130AB002B08AF0703302F02031CB52E60
:100D6800B62E992E0130AB002B08AE0702302E02AA
:100D7800031CBF2EC02E282E2A08840083130008C7
:100D88000C3E840080012A08840000080D3E84007F
:100D980080012A0A840000080C3E84008001800A31
:100DA8002A0A840000080D3E84008001800A080099
:100DB80083120313AD01532F2D08623E8400831361
:100DC8000008840000080319EA2EEB2E662FA40100
:100DD800A40AA501A6012D08623E8400000884002B
:100DE8000008013E84000A128A1500200A128A119E
:100DF800AB002B08A7002D080A128A152D250A1208
:100E08008A11662F2D08623E84008313000A84002D
:100E18000008031D102F112F1B2F2D08623E840080
:100E280000088400000803191A2F1B2F662FA4013D
:100E3800A501A50AA6012D08623E8400000A8400C7
:100E48000008013E84000A128A1500200A128A113D
:100E5800AB002B08A7002D080A128A152D250A12A7
:100E68008A11662FA401A501A601A60A2D08623ED3
:100E7800840083130008023E84000008013E8400B9
:100E88000A128A1500200A128A11AB002B08A70043
:100E98002D080A128A152D250A128A11662F55085F
:100EA800AB00AC012C08003A03195B2F662F2B0806
:100EB800003A0319E02E013A0319062F033A0319E1
:100EC800362F662F013083120313AB002B08AD07B2
:100ED80002302D02031C712F722F532F0330A400F0
:100EE8000030A5005508013EA60000300318013067
:100EF800A7000A128A15DA250A128A118312031327
:100F08002408AB002B08D500080083120313AE0099
:100F1800B001AF0130082E07A400240884002F0870
:100F2800A500250783130007A6002608063E8400AF
:100F38000008A700840A0008A80030082E07A900A6
:100F4800290884002F08AA002A070007AB002B08ED
:100F580084000008AC00840A0008AD0028082D06AB
:100F6800031DB82F27082C060319BB2FBC2FDF2F12
:100F780030082E07A400240884002F08A5002507A0
:100F88000007A6002608063E84000008A700840A79
:100F98000008A80030082E07A900290884002F0897
:100FA800AA002A070007AB002B0884002708800046
:100FB800840A280880000130A4002408AF07033001
:100FC8002F02031CE82FE92F8E2F0130A4002408DC
:100FD800B00702303002031CF22FF32F8D2F0800C8
:100FE80083120313A4000C1EFA2FFB2FF72F0C12E9
:060FF80024089900080026
:1010000008308A000408840A820700343F3406341A
:101010005B344F3466346D347D3407347F346F3441
:041020000034023462
:1014EC0064008001840A0406031900340406772A78
:1014FC000134003400340034DA34D734C134B3341A
:10150C00831203138C1E8B2A8C2A862A8C121A089F
:10151C000800E330831603138500831203139F0125
:10152C008030831603139F00193083120313A40019
:10153C00A40B9E2AA12A08007E088A007F0882003C
:10154C000A128A15A2220A128A158000840A04083B
:10155C007D0603190034FF0A0319FE0AA62A83121A
:10156C000313A700A601271CBC2ABD2AC12A2408E4
:10157C00A5002508A6070310A40D0310A70C270827
:10158C00031DC92ACA2AB92A260808008312031384
:10159C00A7002708A60002300310A60DFF3E031D6E
:1015AC00D22A0310260D01389F0004308312031336
:1015BC00A600A60BDF2A0000831203131F151F19A8
:1015CC00E82AE92AE52A1E08A500831603131E083B
:1015DC0083120313A400080083120313A801A901AA
:1015EC00241CF92AFA2A002B2608A8070318A90A92
:1015FC002708A90701300310A60DA70DFF3E031DF8
:10160C00012B01300310A50CA40CFF3E031D082B6D
:10161C0024082504031D132B142BF62A2908A500D6
:10162C002808A400080083120313BD003808BA0070
:10163C003A08A4003908BB003B08A5003D080A1273
:10164C008A115D250A128A1583120313BC003C080B
:10165C00BE00BF013E088400831300080A128A11E1
:10166C00F4270A128A15013083120313BA003A08C0
:10167C00BE070130BA003A08BF0705303F02031C11
:10168C00482B492B302B08008312031336083802E1
:10169C00AB003708031C370A3902AC003608340299
:1016AC00A4003708031C370A3502A5003A083C028F
:1016BC00A6003B08031C3B0A3D02A7000A128A1530
:1016CC00F2220A128A15831203132508AE0024088D
:1016DC00AD000A128A15FA260A128A158312031310
:1016EC003A082B07B4003B0803183B0A2C07B5003B
:1016FC000800831603130713981683120313981705
:10170C0018163308B5003408B6000030B61BFF308D
:10171C00B700B80006300310B50DB60DB70DB80DF7
:10172C00FF3E031D912B3808A7003708A60036088A
:10173C00A5003508A4000130AB00E830AA00483001
:10174C00A9000030A8000A128A1563270A128A150C
:10175C00831203132408FF3E8316031399008B177F
:10176C000B178C16080083120313A80028082407F3
:10177C00A6002608033E84007F3083130005A700D3
:10178C002908270680392706A90029087F39A600D1
:10179C00A7012608AA002708AB002B08A7002A08D7
:1017AC00A6000730FF000310A60DA70DFF0BD92BC9
:1017BC0080302605AA0000302705AB002808240736
:1017CC00A6002608023E84007F300005A7002908E9
:1017DC00270680392706A90029087F39A6002A0880
:1017EC002604AA002B08AB002B08A5002A08A4008D
:1017FC000800831203136108A7006008A6005F08A5
:10180C00A5005E08A4004130AB00C630AA004E30E3
:10181C00A9006D30A8000A128A1546240A128A15EE
:10182C00831203132708E1002608E0002508DF00D7
:10183C002408DE003930DE07303003183130DF0782
:10184C00003003180130E007003003180130E107C5
:10185C005E08B3005F08B4006008B5006108B6000C
:10186C001030B700360DB60CB50CB40CB30CB70B6E
:10187C00382CFF303305B1007F303405B20008003E
:10188C00003083120313B0000030AF000030AE0004
:10189C000030AD00241C532C542C6B2C2808AD07A5
:1018AC00290803110318013E03195D2CAE072A0801
:1018BC0003110318013E0319642CAF072B08031105
:1018CC000318013E03196B2CB0070130AC00031058
:1018DC00A80DA90DAA0DAB0DAC0B6D2C013003108E
:1018EC00A70CA60CA50CA40CFF3E031D752C2708F9
:1018FC00260425042404031D842C852C502C30082C
:10190C00A7002F08A6002E08A5002D08A40008008B
:10191C0001307102F43003197002031C962C972CC1
:10192C00A72C75087207F60076088400831300084C
:10193C00013EF70075087207F800780884007708F4
:10194C00800005307102DC3003197002031CAF2CCF
:10195C00B02CC02C75087307F6007608840083132E
:10196C000008013EF70075087307F800780884003A
:10197C00770880000B307102B83003197002031C19
:10198C00C82CC92CD92C75087407F600760884006D
:10199C0083130008013EF70075087407F8007808F7
:1019AC00840077088000080083120313A7001C2D05
:1019BC008710071107142C2D0710071187142C2DD5
:1019CC000710871007152C2D2408A500A601260842
:1019DC00003A0319F22C2C2D2508003A0319DE2CA1
:1019EC00013A0319E22C033A0319E62C2C2D86102C
:1019FC00061386172C2D8613061386142C2D86138E
:101A0C00861006172C2D2408A500A6012608003ADE
:101A1C000319112D2C2D2508003A0319FD2C013A20
:101A2C000319012D033A0319052D2C2D2708A500A8
:101A3C00A6012608003A0319242D2C2D2508003A5E
:101A4C000319EA2C013A0319092D2C2D08008312D5
:101A5C000313AA00712D240C031C05110318051582
:101A6C00250C031C851103188515260C031C051267
:101A7C0003180516240C031C061003180614250C59
:101A8C00031C061003180614260C031C061003185E
:101A9C00061427088800812D240C031C85120318BA
:101AAC008516250C031C061003180614260C031CA3
:101ABC00061003180614240C031C06100318061435
:101ACC00250C031C061003180614260C031C061008
:101ADC0003180614812D2A08A800A9012908003A28
:101AEC000319792D812D2808003A0319312D013A5B
:101AFC000319522D812D08008C1E852D862D8F2DBE
:101B0C005818892D8A2D8F2D58145910D910D3019E
:101B1C00D2018C1E922D932DAA2D581C962D972DEB
:101B2C00AA2D0A128A1586220A128A158312031309
:101B3C00A0005308A43E84002008831380000130C9
:101B4C00A0002008D307D2010B1DAD2DAE2DB82D52
:101B5C000B110A128A1595260A128A150630831261
:101B6C00031381000C1CBB2DBC2DD12D0C1001308E
:101B7C00A0002008D40714305402031CC62DC72D16
:101B8C00CD2D5714D4010130A0002008D2073C30D1
:101B9C008F00B0308E0023088A0022088400210EAA
:101BAC008300FE0E7E0E090083120313AA01A71FE9
:101BBC00E02DE12DE82DA609A709A60A0319A70A0D
:101BCC00AA01AA0AA51FEB2DEC2DF12DA409A5093C
:101BDC00A40A0319A50A240825040319F62DF72DC8
:101BEC00262EA901A90A052E01300310A40DA50D5E
:101BFC00FF3E031DFB2D0130A8002808A907A51FD7
:101C0C00082E092EFA2D25082702031D0F2E240855
:101C1C002602031C122E132E192E2408A6022508A8
:101C2C00031CA703A70201300310A50CA40CFF3E54
:101C3C00031D1A2E0130A902031D252E262E092E56
:101C4C002A0803192A2E2B2E302EA609A709A60A1C
:101C5C000319A70A2708A5002608A4000800831268
:101C6C000313B300B50103303502031C3E2E3F2E87
:101C7C00402E942E0530AD002D08A40035080A1214
:101C8C008A15B5220A128A1583120313AE002E0888
:101C9C00B40034083307AD002D088400831300080A
:101CAC00AE0003102E0C0F39AF002F08B100340812
:101CBC003307AD002D0884000008AE00053003107A
:101CCC00AE0CFF3E031D652E2E080339FF3EAF0000
:101CDC002F08B2003308AD002D08A40034080A12F6
:101CEC008A15B9230A128A158312031331082C079B
:101CFC00AE002E0884003208AF002F0783130007B4
:101D0C00B0003008063E840024088000840A2508B0
:101D1C0080000130AD002D08B507392E08000030C9
:101D2C00831203138619013083160313A0000030AD
:101D3C0083120313061A013083160313A10000301B
:101D4C0083120313861A013083160313A20000308A
:101D5C0083120313851A013083160313A300FD01AC
:101D6C007D08A03E840083130008031DBE2EBF2EE9
:101D7C00C82E013083120313CD070318CE0A00308E
:101D8C00CE07EF2E7D08A03E840000080319CF2E4D
:101D9C00D02EEF2E831203134E08F1004D08F000E5
:101DAC005A30F9007908F200D330FA007A08F300BF
:101DBC00CF30FB007B08F4007D08FC007C08F500AC
:101DCC000A128A158E240A128A1583120313CD0166
:101DDC00CE010130F9007908FD0704307D02031CA7
:101DEC00F82EF92EB62E080083120313B101AC1F86
:101DFC00002F012F082FAB09AC09AB0A0319AC0A51
:101E0C00B101B10AAE1F0B2F0C2F152FAD09AE0966
:101E1C00AD0A0319AE0A0130AF002F08B106B201AA
:101E2C00B3012B082C0403191C2F1D2F542FB001A8
:101E3C00B00A2B2F01300310AB0DAC0DFF3E031D70
:101E4C00212F0130AF002F08B007AC1F2E2F2F2FE2
:101E5C00202F01300310B20DB30DFF3E031D302FA8
:101E6C002C082E02031D3C2F2B082D02031C3F2F88
:101E7C00402F472F2B08AD022C08031CAE03AE02DB
:101E8C00321401300310AC0CAB0CFF3E031D482F79
:101E9C000130B002031D532F542F2F2F310803197B
:101EAC00582F592F5E2FB209B309B20A0319B30A7E
:101EBC003308AC003208AB00080083120313AE01E8
:101ECC00A71F692F6A2F772FA409A509A609A709AF
:101EDC00A40A0319A50A0319A60A0319A70AAE0135
:101EEC00AE0AAB1F7A2F7B2F8A2FA809A909AA0942
:101EFC00AB09A80A0319A90A0319AA0A0319AB0A00
:101F0C000130AC002C08AE060030B2000030B1003D
:101F1C000030B0000030AF0027082604250424044C
:101F2C000319992F9A2FE72FAD01AD0AAA2F013073
:101F3C00AC000310A40DA50DA60DA70DAC0B9F2F87
:101F4C000130AC002C08AD07A71FAD2FAE2F9D2F75
:101F5C000130AC000310AF0DB00DB10DB20DAC0BD8
:101F6C00B02F27082B02031DC52F26082A02031D9C
:101F7C00C52F25082902031DC52F24082802031C80
:101F8C00C82FC92FD82F2408A8022508031C250FF9
:101F9C00A9022608031C260FAA022708031C270FD8
:101FAC00AB022F1401300310A70CA60CA50CA40C2B
:101FBC00FF3E031DD92F0130AD02031DE62FE72F85
:101FCC00AE2F2E080319EB2FEC2FF72FAF09B0090A
:101FDC00B109B209AF0A0319B00A0319B10A0319FE
:101FEC00B20A3208A7003108A6003008A5002F0855
:041FFC00A400080035
:02400E00F23F7F
:00000001FF
