:020000040000FA
:060000000A128A1110280B
:10000800FE00030E83120313A1000408A2000A08CD
:10001800A3000A128A15B42D0A128A1113280A128B
:100028008A1573230A128A11E2000A128A157423A8
:100038000A128A11E3000A128A1575230A128A1114
:10004800E4000A128A1576230A128A11E50083133E
:10005800A0308400D9300A128A1577230A128A112F
:100068004930840062300A128A1577230A128A11ED
:1000780083010A128A114028383083160313860038
:1000880080308700880101308900E0308B0004301F
:1000980081000630831203138100313090003C3018
:1000A8008F00B0308E000A128A158A230A128A112C
:1000B800803083120313B3002530B4000A128A1566
:1000C80040240A128A11063083120313A400003058
:1000D800A5000430A6000030A7000230A8000030B8
:1000E800A9006430C0004008AA000A128A11CF256E
:1000F8000A128A11831203130710861307110613B5
:1001080087108610581C89288A280A2BF52A591422
:10011800581083160313DF01E001AE29831203137D
:10012800B801B80A831603135F085E3E8400831380
:10013800000883120313C0004008B90003300A12F4
:100148008A15DA230A128A11023083120313C000B7
:100158004008B800831603135F085A3E84008313CF
:10016800000883120313C1004108B90003300A12C2
:100178008A15DA230A128A11033083120313C00086
:100188004008B800831603135F08CF3E840083132A
:10019800000883120313C1004108B90003300A1292
:1001A8008A15DA230A128A11C32983120313B801A4
:1001B800B80A831603135F085E3E840083130008A1
:1001C80083120313C0004008B90005300A128A15CB
:1001D800DA230A128A11023083120313C00040087E
:1001E800B800831603135F085A3E8400831300087F
:1001F80083120313C1004108B90005300A128A1599
:10020800DA230A128A11033083120313C00040084C
:10021800B800831603135F08CF3E840083130008D9
:1002280083120313C1004108B90005300A128A1568
:10023800DA230A128A11C32983120313B801B80AF0
:10024800831603135F085E3E84008313000883123D
:100258000313C0004008B90007300A128A15DA23D0
:100268000A128A11023083120313C0004008B80032
:10027800831603135F085A3E840083130008831211
:100288000313C1004108B90007300A128A15DA239E
:100298000A128A11033083120313C0004008B80001
:1002A800831603135F08CF3E84008313000883126C
:1002B8000313C1004108B90007300A128A15DA236E
:1002C8000A128A11C32983120313B801B80A8316C4
:1002D80003135F085E3E8400831300088312031330
:1002E800C0004008B90009300A128A15DA230A1238
:1002F8008A11023083120313C0004008B800831625
:1003080003135F085A3E8400831300088312031303
:10031800C1004108B90009300A128A15DA230A1205
:100328008A11033083120313C0004008B8008316F3
:1003380003135F08CF3E840083130008831203135E
:10034800C1004108B90009300A128A15DA230A12D5
:100358008A11C329831603136008003A0319B529C3
:10036800C3295F08003A03199228013A0319D928CA
:10037800033A03192029013A03196729C3290130CF
:1003880083160313DF070318E00A0030E00760084C
:10039800803AFF0080307F02031DD42904305F02B9
:1003A800031CD729D829AE2983160313DB01DC01E6
:1003B800831603135B085E3E8400831380015B0889
:1003C8005A3E840080015B08CF3E840080010130E2
:1003D800DB070318DC0A0030DC075C08803AFF0002
:1003E80080307F02031DFA2904305B02031CFD29BB
:1003F800FE29DC2983160313D9015908A43E840079
:1004080083138001013083120313C0004008831650
:100418000313D90705305902031C132A142A012A89
:100428000A2B5914581000300A128A15B4230A12DC
:100438008A11831203132408C0002508C100410D46
:10044800C10CC00C410DC10CC00C4008B4004108DF
:10045800B5000030B600B700FF30B8000030B90072
:10046800EC30BA00FF30BB003C30BC000030BD00AF
:100478000A128A150B240A128A11831203133408EC
:10048800C2004208D10001300A128A15B4230A12A8
:100498008A11831203132408C0002508C100410DE6
:1004A800C10CC00C410DC10CC00C4008B40041087F
:1004B800B5000030B600B700FF30B8000030B90012
:1004C8000030BA00BB006430BC000030BD000A1226
:1004D8008A150B240A128A11831203133408C200E6
:1004E8004208D00005300A128A15B4230A128A116C
:1004F800831203132408C0002508C100410DC10C54
:10050800C00C410DC10CC00C4008B4004108B50036
:100518000030B600B700FF30B8000030B900003036
:10052800BA00BB006430BC000030BD000A128A1556
:100538000B240A128A11831203133408C2004208DA
:10054800CF00B8015108C0004008B90002300A12B3
:100558008A15DA230A128A1183120313B801500884
:10056800C0004008B90004300A128A15DA230A12BA
:100578008A1183120313B8014F08C0004008B9005C
:1005880006300A128A15DA230A128A11831603130F
:10059800DA0105305A02031CD22AD32AD42A0A2B9C
:1005A8005A08A43E84008313800101308312031388
:1005B800C000400883160313DA07CD2A043052021C
:1005C800031CE72AE82AEB2A5914D91458100F30CB
:1005D8005302031CF02AF12A0A2B5914D910581077
:1005E8000A2B8316031324087F3983120313C000D0
:1005F800C1014108003A0319022BE22A4008083ACF
:1006080003198B28023A0319152AE22A8312591C66
:100618000E2B0F2B232B5810D3015910D201D91CA4
:10062800162B172B192BD910232B6430C000400828
:10063800AC00A4300A128A1567260A128A1183129E
:100648000313571C282B292B1C2C561C2C2B2D2B09
:100658001C2C83160313DE0102305E02031C352BAB
:10066800362B372B1C2C5E08643E8400831300084D
:100678008400000883120313C000840A0008C10024
:10068800400841040319492B4A2B132C83160313E2
:100698005E0883120313C0004007493E84000130FE
:1006A8008007840A0318800A831603135E08643ED1
:1006B800840000080C3E8400000883120313C00065
:1006C800400883160313DD005E0883120313C0007D
:1006D8004007493E84000008C100840A0008C2009F
:1006E800831603135E08643E84005D0883120313B7
:1006F800C30043070007C400440884000008C5007D
:10070800840A0008C60041084502C7004208031CC5
:10071800420A4602C800C81F922B932BB92B0130FE
:10072800C000400883160313DD075E088312031315
:10073800C0004007493E840001308000840A003030
:1007480080000330831603135D02031CAC2BAD2B12
:10075800B92BDD015E08031DB22BB32BB92B643016
:100768000A128A1595270A128A11831603135D083F
:1007780083120313C0004008A400831603135E0805
:100788000A128A150C250A128A11831603135D08AA
:1007980083120313C000831603135E08643E8400AB
:1007A800831300080C3E8400831203134008800062
:1007B800831603135E0883120313C0004008B400B5
:1007C800831603135E0883120313C1004107493ED1
:1007D80084000008C200840A0008C30083160313BB
:1007E8005E08643E84005D0883120313C400440756
:1007F8000007C500450884000008C600840A0008F0
:10080800C70042084602B5004308031C430A4702D2
:10081800B60062300A128A113A240A128A1101308B
:1008280083120313C000400883160313DE07302B1E
:100838000A128A1186260A128A1183120313571C78
:10084800262C272C2D2C561C2A2C2B2C2D2C5710C3
:100858005610571C302C312C86285618342C352C21
:100868008628561486280A128A1110288312031320
:10087800BC00532C0A3083120313AB000030AC00C9
:100888003608AE003508AD000A128A152C270A1260
:100898008A11831203132C08B6002B08B500E83020
:1008A800AB000330AC003608AE003508AD000A12C4
:1008B8008A152C270A128A11831203132C08803AEE
:1008C800FF0080307F02031D6B2C01302B020318C0
:1008D8006E2C6F2C3E2C643083120313AB00003057
:1008E800AC003608AE003508AD000A128A152C2770
:1008F8000A128A11831203132B08B7003C088400DC
:100908000330B8003808A40034080A128A159D2359
:100918000A128A118313000783120313B9003908D6
:100928008400370880000A30AB000030AC0036087D
:10093800A7003508A6006430A4000030A5000A12FC
:100948008A150C260A128A11831203132508AE0091
:100958002408AD000A128A152C270A128A1183125C
:1009680003132B08B7003C0884000330B80038088C
:10097800A40034080A128A159D230A128A118313C7
:10098800000783120313B900390A8400370880006E
:100998003608A7003508A6006430A4000030A5007A
:1009A8000A128A150C260A128A11831203132508C3
:1009B800BB002408BA000A30A4000030A5003B0898
:1009C800A7003A08A6000A128A150C260A128A11EC
:1009D800831203132408B7003C0884000330B800CE
:1009E8003808A40034080A128A159D230A128A11AD
:1009F8008313000783120313B9003908023E8400E9
:100A080037088000080083120313A80028087F39DC
:100A1800A6002608A90024087F39A6002608AA00EF
:100A280025087F39A6002608AB002508A600073050
:100A38000310A60CFF3E031D1C2D26087F39A700B6
:100A48002708AC00AE01AF01B401B501831203134E
:100A5800B001B101831203133408293E84008313C3
:100A68000008A600300A3A2D0310A60CFF3E031D0D
:100A7800382D26080139A7002708AE070130B0072E
:100A88000318B10A0030B1073108803AFF008030FE
:100A98007F02031D512D08303002031C542D552DA3
:100AA8002E2D831203132E1C5A2D5B2D632D80309F
:100AB800A6003408293E8400260883138007AE0167
:100AC8000130B4070318B50A0030B5073508803A75
:100AD800FF0080307F02031D732D04303402031C95
:100AE800762D772D2A2D83120313B601B7018312B1
:100AF8000313B201B301831203133208293E8400A1
:100B080083130008A600360A8B2D0310A60CFF3E9F
:100B1800031D892D26080139A7002708AF070130D2
:100B2800B2070318B30A0030B3073308803AFF004E
:100B380080307F02031DA22D04303202031CA52D34
:100B4800A62D7F2D831203132F1CAB2DAC2DB92D91
:100B58000130A600360AB22D0310A60DFF3E031D74
:100B6800B02D2608A7002708AD07AF010130B6074A
:100B78000318B70A0030B7073708803AFF008030FB
:100B88007F02031DC92D08303602031CCC2DCD2D44
:100B98007B2D2930080083120313AE01AF01432EC9
:100BA8002E082A07AB002B0884002F08AC002C075E
:100BB80083130007AD002D08840024088000840AF0
:100BC800250880002E082A07AB002B0884002F0870
:100BD800AC002C070007AD002D08063E8400240851
:100BE8008000840A25088000562E2E082A07AB00AC
:100BF8002B0884002F08AC002C0783130007AD00D6
:100C08002D08840026088000840A270880002E0802
:100C18002A07AB002B0884002F08AC002C0700071C
:100C2800AD002D08063E840026088000840A2708A7
:100C38008000562E2E082A07AB002B0884002F08A8
:100C4800AC002C0783130007AD002D08840028088A
:100C58008000840A290880002E082A07AB002B0888
:100C680084002F08AC002C070007AD002D08063EB5
:100C7800840028088000840A29088000562E2F083E
:100C8800AB00AC012C08003A03194B2E562E2B084A
:100C9800003A0319D42D013A0319F92D033A03191F
:100CA8001E2E562E0130AB002B08AF0703302F0243
:100CB800031C5F2E602E432E0130AB002B08AE07BD
:100CC80002302E02031C692E6A2ED22D2A088400B7
:100CD800831300080C3E840080012A088400000861
:100CE8000D3E840080012A0A840000080C3E84001E
:100CF8008001800A2A0A840000080D3E84008001D1
:100D0800800A080083120313AD01FD2E2D08623EF0
:100D1800840083130008840000080319942E952E7C
:100D2800102FA401A40AA501A6012D08623E840083
:100D3800000884000008013E84000A128A15002079
:100D48000A128A11AB002B08A7002D080A128A156F
:100D58005F250A128A11102F2D08623E8400831322
:100D6800000A84000008031DBA2EBB2EC52E2D08CC
:100D7800623E84000008840000080319C42EC52EB2
:100D8800102FA401A501A50AA6012D08623E840022
:100D9800000A84000008013E84000A128A15002017
:100DA8000A128A11AB002B08A7002D080A128A150F
:100DB8005F250A128A11102FA401A501A601A60A0F
:100DC8002D08623E840083130008023E8400000858
:100DD800013E84000A128A1500200A128A11AB000B
:100DE8002B08A7002D080A128A155F250A128A11F6
:100DF800102F5508AB00AC012C08003A0319052F39
:100E0800102F2B08003A03198A2E013A0319B02E25
:100E1800033A0319E02E102F013083120313AB009D
:100E28002B08AD0702302D02031C1B2F1C2FFD2E93
:100E38000330A4000030A5005508013EA60000308C
:100E480003180130A7000A128A150C260A128A1103
:100E5800831203132408AB002B08D5000800831263
:100E68000313AE01A71F392F3A2F472FA409A5094D
:100E7800A609A709A40A0319A50A0319A60A0319AA
:100E8800A70AAE01AE0AAB1F4A2F4B2F5A2FA8094B
:100E9800A909AA09AB09A80A0319A90A0319AA0AE0
:100EA8000319AB0A0130AC002C08AE060030B200C2
:100EB8000030B1000030B0000030AF002708260431
:100EC800250424040319692F6A2FB72FAD01AD0A31
:100ED8007A2F0130AC000310A40DA50DA60DA70DA7
:100EE800AC0B6F2F0130AC002C08AD07A71F7D2F6E
:100EF8007E2F6D2F0130AC000310AF0DB00DB10D7A
:100F0800B20DAC0B802F27082B02031D952F260846
:100F18002A02031D952F25082902031D952F240851
:100F28002802031C982F992FA82F2408A802250807
:100F3800031C250FA9022608031C260FAA0227084E
:100F4800031C270FAB022F1401300310A70CA60CAB
:100F5800A50CA40CFF3E031DA92F0130AD02031DF3
:100F6800B62FB72F7E2F2E080319BB2FBC2FC72FE4
:100F7800AF09B009B109B209AF0A0319B00A0319D8
:100F8800B10A0319B20A3208A7003108A6003008CE
:100F9800A5002F08A400080083120313A801A901C3
:100FA800241CD72FD82FDE2F2608A8070318A90A34
:100FB8002708A90701300310A60DA70DFF3E031D42
:100FC800DF2F01300310A50CA40CFF3E031DE62FF4
:100FD80024082504031DF12FF22FD42F2908A5007A
:100FE8002808A4000800831203138C1EFC2FFD2F71
:100FF800F72F8C121A08080008308A000408840A9F
:10100800820700343F3406345B344F3466346D3421
:0C1018007D3407347F346F340034023420
:1016E600D634D334C134B33464008001840A04068A
:1016F600031900340406782B83120313A4000C1E6E
:10170600852B862B822B0C12240899000800E330C7
:10171600831603138500831203139F0180308316FB
:1017260003139F00193083120313A400A40B992BF3
:101736009C2B080083120313A700A601271CA42BC9
:10174600A52BA92B2408A5002508A6070310A40D80
:101756000310A70C2708031DB12BB22BA12B2608BB
:10176600080083120313A7002708A60002300310FF
:10177600A60DFF3E031DBA2B0310260D01389F0050
:10178600043083120313A600A60BC72B0000831296
:1017960003131F151F19D02BD12BCD2B1E08A50007
:1017A600831603131E0883120313A4000800831272
:1017B6000313BD003808BA003A08A4003908BB0074
:1017C6003B08A5003D080A128A1107250A128A1548
:1017D60083120313BC003C08BE00BF013E08840010
:1017E600831300080A128A157F230A128A1501300C
:1017F60083120313BA003A08BE070130BA003A084A
:10180600BF0705303F02031C092C0A2CF12B0800E8
:101816008312031336083802AB003708031C370A55
:101826003902AC0036083402A4003708031C370A14
:101836003502A5003A083C02A6003B08031C3B0AF9
:101846003D02A7000A128A11D0270A128A158312AE
:1018560003132508AE002408AD000A128A152C27AA
:101866000A128A15831203133A082B07B4003B08A1
:1018760003183B0A2C07B500080083160313071349
:10188600981683120313981718163308B5003408F0
:10189600B6000030B61BFF30B700B80006300310A4
:1018A600B50DB60DB70DB80DFF3E031D522C380809
:1018B600A7003708A6003608A5003508A4000130A1
:1018C600AB00E830AA004830A9000030A8000A1290
:1018D6008A1133270A128A15831203132408FF3E3E
:1018E6008316031399008B170B178C1608008312A7
:1018F6000313A80028082407A6002608033E840030
:101906007F3083130005A70029082706803927069C
:10191600A90029087F39A600A7012608AA002708DA
:10192600AB002B08A7002A08A6000730FF0003100B
:10193600A60DA70DFF0B9A2C80302605AA000030B5
:101946002705AB0028082407A6002608023E8400C7
:101956007F300005A7002908270680392706A90039
:1019660029087F39A6002A082604AA002B08AB00FE
:101976002B08A5002A08A400080001307102F430E3
:1019860003197002031CC82CC92CD92C75087207C0
:10199600F6007608840083130008013EF7007508F8
:1019A6007207F80078088400770880000530710215
:1019B600DC3003197002031CE12CE22CF22C7508B2
:1019C6007307F6007608840083130008013EF700CB
:1019D60075087307F80078088400770880000B30D4
:1019E6007102B83003197002031CFA2CFB2C0B2D64
:1019F60075087407F6007608840083130008013E14
:101A0600F70075087407F8007808840077088000E6
:101A1600080083120313A7004E2D87100711071421
:101A26005E2D0710071187145E2D07108710071506
:101A36005E2D2408A500A6012608003A0319242DC8
:101A46005E2D2508003A0319102D013A0319142DAD
:101A5600033A0319182D5E2D8610061386175E2D80
:101A66008613061386145E2D8613861006175E2DC2
:101A76002408A500A6012608003A0319432D5E2D69
:101A86002508003A03192F2D013A0319332D033A7D
:101A96000319372D5E2D2708A500A6012608003A52
:101AA6000319562D5E2D2508003A03191C2D013AFF
:101AB60003193B2D5E2D080083120313AA00A32DE4
:101AC600240C031C051103180515250C031C851190
:101AD60003188515260C031C051203180516240C7D
:101AE600031C061003180614250C031C0610031805
:101AF6000614260C031C0610031806142708880073
:101B0600B32D240C031C851203188516250C031C03
:101B1600061003180614260C031C061003180614D8
:101B2600240C031C061003180614250C031C0610AF
:101B360003180614260C031C061003180614B32DEE
:101B46002A08A800A9012908003A0319AB2DB32DCC
:101B56002808003A0319632D013A0319842DB32D81
:101B660008008C1EB72DB82DC12D5818BB2DBC2DC5
:101B7600C12D58145910D910D301D2018C1EC42D71
:101B8600C52DDC2D581CC82DC92DDC2D0A128A1135
:101B9600F7270A128A1583120313A0005308A43EDE
:101BA60084002008831380000130A0002008D3079A
:101BB600D2010B1DDF2DE02DEA2D0B110A128A151D
:101BC600C7260A128A1506308312031381000C1CDD
:101BD600ED2DEE2D032E0C100130A0002008D407A9
:101BE60014305402031CF82DF92DFF2D5714D4017F
:101BF6000130A0002008D2073C308F00B0308E00A4
:101C060023088A0022088400210E8300FE0E7E0E21
:101C1600090083120313AA01A71F122E132E1A2ED0
:101C2600A609A709A60A0319A70AAA01AA0AA51FAF
:101C36001D2E1E2E232EA409A509A40A0319A50AE2
:101C4600240825040319282E292E582EA901A90A8D
:101C5600372E01300310A40DA50DFF3E031D2D2EBA
:101C66000130A8002808A907A51F3A2E3B2E2C2EC6
:101C760025082702031D412E24082602031C442E94
:101C8600452E4B2E2408A6022508031CA703A702EF
:101C960001300310A50CA40CFF3E031D4C2E013091
:101CA600A902031D572E582E3B2E2A0803195C2E17
:101CB6005D2E622EA609A709A60A0319A70A2708F8
:101CC600A5002608A400080083120313B300B5017B
:101CD60003303502031C702E712E722EC62E05306F
:101CE600AD002D08A40035080A128A159D230A1294
:101CF6008A1583120313AE002E08B4003408330786
:101D0600AD002D08840083130008AE0003102E0CCE
:101D16000F39AF002F08B10034083307AD002D0886
:101D260084000008AE0005300310AE0CFF3E031D14
:101D3600972E2E080339FF3EAF002F08B200330856
:101D4600AD002D08A40034080A128A157A240A1256
:101D56008A158312031331082C07AE002E0884005F
:101D66003208AF002F0783130007B0003008063E85
:101D7600840024088000840A250880000130AD0014
:101D86002D08B5076B2E0800003083120313861941
:101D9600013083160313A000003083120313061AC2
:101DA600013083160313A100003083120313861A31
:101DB600013083160313A200003083120313851A21
:101DC600013083160313A300FD017D08A03E8400A5
:101DD60083130008031DF02EF12EFA2E0130831214
:101DE6000313CD070318CE0A0030CE07212F7D0836
:101DF600A03E840000080319012F022F212F831211
:101E060003134E08F1004D08F0005E30F900790822
:101E1600F2005A30FA007A08F300CF30FB007B0854
:101E2600F4007D08FC007C08F5000A128A15C0241F
:101E36000A128A1583120313CD01CE010130F9006F
:101E46007908FD0704307D02031C2A2F2B2FE82E6C
:101E5600080083120313B101AC1F322F332F3A2F20
:101E6600AB09AC09AB0A0319AC0AB101B10AAE1F42
:101E76003D2F3E2F472FAD09AE09AD0A0319AE0A15
:101E86000130AF002F08B106B201B3012B082C04B4
:101E960003194E2F4F2F862FB001B00A5D2F013048
:101EA6000310AB0DAC0DFF3E031D532F0130AF00E9
:101EB6002F08B007AC1F602F612F522F013003107F
:101EC600B20DB30DFF3E031D622F2C082E02031D1B
:101ED6006E2F2B082D02031C712F722F792F2B08C2
:101EE600AD022C08031CAE03AE02321401300310FF
:101EF600AC0CAB0CFF3E031D7A2F0130B002031D64
:101F0600852F862F612F310803198A2F8B2F902F4B
:101F1600B209B309B20A0319B30A3308AC0032088E
:101F2600AB00080083120313AE00B001AF01300806
:101F36002E07A400240884002F08A5002507831374
:101F46000007A6002608063E84000008A700840AAB
:101F56000008A80030082E07A900290884002F08C9
:101F6600AA002A070007AB002B0884000008AC0073
:101F7600840A0008AD0028082D06031DC42F270873
:101F86002C060319C72FC82FEB2F30082E07A400E5
:101F9600240884002F08A50025070007A6002608A8
:101FA600063E84000008A700840A0008A80030083E
:101FB6002E07A900290884002F08AA002A0700076F
:101FC600AB002B08840027088000840A28088000BC
:101FD6000130A4002408AF0703302F02031CF42F9E
:101FE600F52F9A2F0130A4002408B00702303002E2
:0A1FF600031CFE2FFF2F992F080097
:02400E00F23F7F
:00000001FF
